{"contracts/PokerHandEvaluator.sol":{"PokerHandEvaluator":{"abi":[{"inputs":[{"internalType":"uint8[5]","name":"hand1","type":"uint8[5]"},{"internalType":"uint8[5]","name":"hand2","type":"uint8[5]"}],"name":"compareHands","outputs":[{"internalType":"uint8","name":"","type":"uint8"}],"stateMutability":"pure","type":"function"},{"inputs":[{"internalType":"uint8[5]","name":"cards","type":"uint8[5]"}],"name":"countCards","outputs":[{"internalType":"uint8[13]","name":"","type":"uint8[13]"}],"stateMutability":"pure","type":"function"},{"inputs":[{"internalType":"uint8[5]","name":"cards","type":"uint8[5]"}],"name":"evaluateHand","outputs":[{"components":[{"internalType":"enum PokerHandEvaluator.HandRank","name":"rank","type":"PokerHandEvaluator.HandRank"},{"internalType":"uint8","name":"highestCard","type":"uint8"}],"internalType":"struct PokerHandEvaluator.Hand","name":"","type":"tuple"}],"stateMutability":"pure","type":"function"},{"inputs":[{"internalType":"uint8[13]","name":"counts","type":"uint8[13]"},{"internalType":"uint8","name":"occurrences","type":"uint8"}],"name":"getHighestRank","outputs":[{"internalType":"uint8","name":"","type":"uint8"}],"stateMutability":"pure","type":"function"},{"inputs":[{"internalType":"uint8[5]","name":"cards","type":"uint8[5]"}],"name":"isFlush","outputs":[{"internalType":"bool","name":"","type":"bool"}],"stateMutability":"pure","type":"function"},{"inputs":[{"internalType":"uint8[5]","name":"cards","type":"uint8[5]"}],"name":"isStraight","outputs":[{"internalType":"bool","name":"","type":"bool"}],"stateMutability":"pure","type":"function"},{"inputs":[{"internalType":"uint8[5]","name":"cards","type":"uint8[5]"}],"name":"sortCards","outputs":[{"internalType":"uint8[5]","name":"","type":"uint8[5]"}],"stateMutability":"pure","type":"function"}],"evm":{"bytecode":{"linkReferences":{},"object":"611251610053600b82828239805160001a607314610046577f4e487b7100000000000000000000000000000000000000000000000000000000600052600060045260246000fd5b30600052607381538281f3fe73000000000000000000000000000000000000000030146080604052600436106100875760003560e01c8063b144865211610065578063b14486521461011c578063d3999c061461014c578063de6cd1611461017c578063f7f1efcd146101ac57610087565b8063433c2e961461008c57806350c07888146100bc57806382e58f9e146100ec575b600080fd5b6100a660048036038101906100a19190610c5c565b6101dc565b6040516100b39190610ca4565b60405180910390f35b6100d660048036038101906100d19190610c5c565b610271565b6040516100e39190610d6a565b60405180910390f35b61010660048036038101906101019190610c5c565b6103a3565b6040516101139190610e2b565b60405180910390f35b61013660048036038101906101319190610c5c565b6107e1565b6040516101439190610eca565b60405180910390f35b61016660048036038101906101619190610ee6565b610875565b6040516101739190610f36565b60405180910390f35b61019660048036038101906101919190610c5c565b61095d565b6040516101a39190610ca4565b60405180910390f35b6101c660048036038101906101c19190611002565b6109f7565b6040516101d39190610f36565b60405180910390f35b600080600190505b60058160ff161015610266576001836001836102009190611073565b60ff1660058110610214576102136110a8565b5b60200201516102239190611073565b60ff16838260ff166005811061023c5761023b6110a8565b5b602002015160ff161461025357600091505061026c565b808061025e906110d7565b9150506101e4565b50600190505b919050565b610279610a59565b60005b60058160ff16101561039a5760006001826102979190611100565b90505b60058160ff16101561038657838160ff16600581106102bc576102bb6110a8565b5b602002015160ff16848360ff16600581106102da576102d96110a8565b5b602002015160ff161015610373576000848360ff1660058110610300576102ff6110a8565b5b60200201519050848260ff166005811061031d5761031c6110a8565b5b6020020151858460ff1660058110610338576103376110a8565b5b602002019060ff16908160ff168152505080858360ff16600581106103605761035f6110a8565b5b602002019060ff16908160ff1681525050505b808061037e906110d7565b91505061029a565b508080610392906110d7565b91505061027c565b50819050919050565b6103ab610a7b565b60006103b683610271565b905060006103c38261095d565b905060006103d0836101dc565b90508080156103dc5750815b1561049d57600a836000600581106103f7576103f66110a8565b5b602002015160ff160361045057604051806040016040528060098081111561042257610421610d85565b5b81526020018460046005811061043b5761043a6110a8565b5b602002015160ff1681525093505050506107dc565b60405180604001604052806008600981111561046f5761046e610d85565b5b815260200184600460058110610488576104876110a8565b5b602002015160ff1681525093505050506107dc565b60006104a8846107e1565b9050600481600c600d81106104c0576104bf6110a8565b5b602002015160ff160361050d576040518060400160405280600760098111156104ec576104eb610d85565b5b81526020016104fc8360046109f7565b60ff168152509450505050506107dc565b600381600c600d8110610523576105226110a8565b5b602002015160ff1614801561055457506002816000600d8110610549576105486110a8565b5b602002015160ff1610155b156105995760405180604001604052806006600981111561057857610577610d85565b5b81526020016105888360036109f7565b60ff168152509450505050506107dc565b82156105ed576040518060400160405280600560098111156105be576105bd610d85565b5b8152602001856004600581106105d7576105d66110a8565b5b602002015160ff168152509450505050506107dc565b81156106415760405180604001604052806004600981111561061257610611610d85565b5b81526020018560046005811061062b5761062a6110a8565b5b602002015160ff168152509450505050506107dc565b600381600c600d8110610657576106566110a8565b5b602002015160ff16036106a45760405180604001604052806003600981111561068357610682610d85565b5b81526020016106938360036109f7565b60ff168152509450505050506107dc565b600281600c600d81106106ba576106b96110a8565b5b602002015160ff161480156106ea57506002816000600d81106106e0576106df6110a8565b5b602002015160ff16145b1561072f5760405180604001604052806002600981111561070e5761070d610d85565b5b815260200161071e8360026109f7565b60ff168152509450505050506107dc565b600281600c600d8110610745576107446110a8565b5b602002015160ff16036107925760405180604001604052806001600981111561077157610770610d85565b5b81526020016107818360026109f7565b60ff168152509450505050506107dc565b6040518060400160405280600060098111156107b1576107b0610d85565b5b8152602001856004600581106107ca576107c96110a8565b5b602002015160ff168152509450505050505b919050565b6107e9610aaa565b6107f1610aaa565b60005b60058160ff16101561086b5781600d858360ff1660058110610819576108186110a8565b5b60200201516108289190611164565b60ff16600d811061083c5761083b6110a8565b5b60200201805180919061084e906110d7565b60ff1660ff16815250508080610863906110d7565b9150506107f4565b5080915050919050565b600080610881846103a3565b9050600061088e846103a3565b9050806000015160098111156108a7576108a6610d85565b5b826000015160098111156108be576108bd610d85565b5b11156108cf57600192505050610957565b806000015160098111156108e6576108e5610d85565b5b826000015160098111156108fd576108fc610d85565b5b101561090e57600292505050610957565b806020015160ff16826020015160ff16111561092f57600192505050610957565b806020015160ff16826020015160ff16101561095057600292505050610957565b6000925050505b92915050565b600080600d83600060058110610976576109756110a8565b5b60200201516109859190611195565b90506000600190505b60058160ff1610156109eb578160ff16600d858360ff16600581106109b6576109b56110a8565b5b60200201516109c59190611195565b60ff16146109d8576000925050506109f2565b80806109e3906110d7565b91505061098e565b5060019150505b919050565b600080600c90505b60008160000b12610a4d578260ff16848260ff16600d8110610a2457610a236110a8565b5b602002015160ff1603610a3a5780915050610a53565b8080610a45906111d3565b9150506109ff565b50600090505b92915050565b6040518060a00160405280600590602082028036833780820191505090505090565b604051806040016040528060006009811115610a9a57610a99610d85565b5b8152602001600060ff1681525090565b604051806101a00160405280600d90602082028036833780820191505090505090565b6000604051905090565b600080fd5b600080fd5b6000601f19601f8301169050919050565b7f4e487b7100000000000000000000000000000000000000000000000000000000600052604160045260246000fd5b610b2a82610ae1565b810181811067ffffffffffffffff82111715610b4957610b48610af2565b5b80604052505050565b6000610b5c610acd565b9050610b688282610b21565b919050565b600067ffffffffffffffff821115610b8857610b87610af2565b5b602082029050919050565b600080fd5b600060ff82169050919050565b610bae81610b98565b8114610bb957600080fd5b50565b600081359050610bcb81610ba5565b92915050565b6000610be4610bdf84610b6d565b610b52565b90508060208402830185811115610bfe57610bfd610b93565b5b835b81811015610c275780610c138882610bbc565b845260208401935050602081019050610c00565b5050509392505050565b600082601f830112610c4657610c45610adc565b5b6005610c53848285610bd1565b91505092915050565b600060a08284031215610c7257610c71610ad7565b5b6000610c8084828501610c31565b91505092915050565b60008115159050919050565b610c9e81610c89565b82525050565b6000602082019050610cb96000830184610c95565b92915050565b600060059050919050565b600081905092915050565b6000819050919050565b610ce881610b98565b82525050565b6000610cfa8383610cdf565b60208301905092915050565b6000602082019050919050565b610d1c81610cbf565b610d268184610cca565b9250610d3182610cd5565b8060005b83811015610d62578151610d498782610cee565b9650610d5483610d06565b925050600181019050610d35565b505050505050565b600060a082019050610d7f6000830184610d13565b92915050565b7f4e487b7100000000000000000000000000000000000000000000000000000000600052602160045260246000fd5b600a8110610dc557610dc4610d85565b5b50565b6000819050610dd682610db4565b919050565b6000610de682610dc8565b9050919050565b610df681610ddb565b82525050565b604082016000820151610e126000850182610ded565b506020820151610e256020850182610cdf565b50505050565b6000604082019050610e406000830184610dfc565b92915050565b6000600d9050919050565b600081905092915050565b6000819050919050565b6000602082019050919050565b610e7c81610e46565b610e868184610e51565b9250610e9182610e5c565b8060005b83811015610ec2578151610ea98782610cee565b9650610eb483610e66565b925050600181019050610e95565b505050505050565b60006101a082019050610ee06000830184610e73565b92915050565b6000806101408385031215610efe57610efd610ad7565b5b6000610f0c85828601610c31565b92505060a0610f1d85828601610c31565b9150509250929050565b610f3081610b98565b82525050565b6000602082019050610f4b6000830184610f27565b92915050565b600067ffffffffffffffff821115610f6c57610f6b610af2565b5b602082029050919050565b6000610f8a610f8584610f51565b610b52565b90508060208402830185811115610fa457610fa3610b93565b5b835b81811015610fcd5780610fb98882610bbc565b845260208401935050602081019050610fa6565b5050509392505050565b600082601f830112610fec57610feb610adc565b5b600d610ff9848285610f77565b91505092915050565b6000806101c0838503121561101a57611019610ad7565b5b600061102885828601610fd7565b9250506101a061103a85828601610bbc565b9150509250929050565b7f4e487b7100000000000000000000000000000000000000000000000000000000600052601160045260246000fd5b600061107e82610b98565b915061108983610b98565b9250828203905060ff8111156110a2576110a1611044565b5b92915050565b7f4e487b7100000000000000000000000000000000000000000000000000000000600052603260045260246000fd5b60006110e282610b98565b915060ff82036110f5576110f4611044565b5b600182019050919050565b600061110b82610b98565b915061111683610b98565b9250828201905060ff81111561112f5761112e611044565b5b92915050565b7f4e487b7100000000000000000000000000000000000000000000000000000000600052601260045260246000fd5b600061116f82610b98565b915061117a83610b98565b92508261118a57611189611135565b5b828206905092915050565b60006111a082610b98565b91506111ab83610b98565b9250826111bb576111ba611135565b5b828204905092915050565b60008160000b9050919050565b60006111de826111c6565b91507fffffffffffffffffffffffffffffffffffffffffffffffffffffffffffffff8082036112105761120f611044565b5b60018203905091905056fea26469706673582212200c898e9c539394e9ceecb78d3057c9d184d643fc8f88fbbc4a5c359bda22fecf64736f6c63430008180033","opcodes":"PUSH2 0x1251 PUSH2 0x53 PUSH1 0xB DUP3 DUP3 DUP3 CODECOPY DUP1 MLOAD PUSH1 0x0 BYTE PUSH1 0x73 EQ PUSH2 0x46 JUMPI PUSH32 0x4E487B7100000000000000000000000000000000000000000000000000000000 PUSH1 0x0 MSTORE PUSH1 0x0 PUSH1 0x4 MSTORE PUSH1 0x24 PUSH1 0x0 REVERT JUMPDEST ADDRESS PUSH1 0x0 MSTORE PUSH1 0x73 DUP2 MSTORE8 DUP3 DUP2 RETURN INVALID PUSH20 0x0 ADDRESS EQ PUSH1 0x80 PUSH1 0x40 MSTORE PUSH1 0x4 CALLDATASIZE LT PUSH2 0x87 JUMPI PUSH1 0x0 CALLDATALOAD PUSH1 0xE0 SHR DUP1 PUSH4 0xB1448652 GT PUSH2 0x65 JUMPI DUP1 PUSH4 0xB1448652 EQ PUSH2 0x11C JUMPI DUP1 PUSH4 0xD3999C06 EQ PUSH2 0x14C JUMPI DUP1 PUSH4 0xDE6CD161 EQ PUSH2 0x17C JUMPI DUP1 PUSH4 0xF7F1EFCD EQ PUSH2 0x1AC JUMPI PUSH2 0x87 JUMP JUMPDEST DUP1 PUSH4 0x433C2E96 EQ PUSH2 0x8C JUMPI DUP1 PUSH4 0x50C07888 EQ PUSH2 0xBC JUMPI DUP1 PUSH4 0x82E58F9E EQ PUSH2 0xEC JUMPI JUMPDEST PUSH1 0x0 DUP1 REVERT JUMPDEST PUSH2 0xA6 PUSH1 0x4 DUP1 CALLDATASIZE SUB DUP2 ADD SWAP1 PUSH2 0xA1 SWAP2 SWAP1 PUSH2 0xC5C JUMP JUMPDEST PUSH2 0x1DC JUMP JUMPDEST PUSH1 0x40 MLOAD PUSH2 0xB3 SWAP2 SWAP1 PUSH2 0xCA4 JUMP JUMPDEST PUSH1 0x40 MLOAD DUP1 SWAP2 SUB SWAP1 RETURN JUMPDEST PUSH2 0xD6 PUSH1 0x4 DUP1 CALLDATASIZE SUB DUP2 ADD SWAP1 PUSH2 0xD1 SWAP2 SWAP1 PUSH2 0xC5C JUMP JUMPDEST PUSH2 0x271 JUMP JUMPDEST PUSH1 0x40 MLOAD PUSH2 0xE3 SWAP2 SWAP1 PUSH2 0xD6A JUMP JUMPDEST PUSH1 0x40 MLOAD DUP1 SWAP2 SUB SWAP1 RETURN JUMPDEST PUSH2 0x106 PUSH1 0x4 DUP1 CALLDATASIZE SUB DUP2 ADD SWAP1 PUSH2 0x101 SWAP2 SWAP1 PUSH2 0xC5C JUMP JUMPDEST PUSH2 0x3A3 JUMP JUMPDEST PUSH1 0x40 MLOAD PUSH2 0x113 SWAP2 SWAP1 PUSH2 0xE2B JUMP JUMPDEST PUSH1 0x40 MLOAD DUP1 SWAP2 SUB SWAP1 RETURN JUMPDEST PUSH2 0x136 PUSH1 0x4 DUP1 CALLDATASIZE SUB DUP2 ADD SWAP1 PUSH2 0x131 SWAP2 SWAP1 PUSH2 0xC5C JUMP JUMPDEST PUSH2 0x7E1 JUMP JUMPDEST PUSH1 0x40 MLOAD PUSH2 0x143 SWAP2 SWAP1 PUSH2 0xECA JUMP JUMPDEST PUSH1 0x40 MLOAD DUP1 SWAP2 SUB SWAP1 RETURN JUMPDEST PUSH2 0x166 PUSH1 0x4 DUP1 CALLDATASIZE SUB DUP2 ADD SWAP1 PUSH2 0x161 SWAP2 SWAP1 PUSH2 0xEE6 JUMP JUMPDEST PUSH2 0x875 JUMP JUMPDEST PUSH1 0x40 MLOAD PUSH2 0x173 SWAP2 SWAP1 PUSH2 0xF36 JUMP JUMPDEST PUSH1 0x40 MLOAD DUP1 SWAP2 SUB SWAP1 RETURN JUMPDEST PUSH2 0x196 PUSH1 0x4 DUP1 CALLDATASIZE SUB DUP2 ADD SWAP1 PUSH2 0x191 SWAP2 SWAP1 PUSH2 0xC5C JUMP JUMPDEST PUSH2 0x95D JUMP JUMPDEST PUSH1 0x40 MLOAD PUSH2 0x1A3 SWAP2 SWAP1 PUSH2 0xCA4 JUMP JUMPDEST PUSH1 0x40 MLOAD DUP1 SWAP2 SUB SWAP1 RETURN JUMPDEST PUSH2 0x1C6 PUSH1 0x4 DUP1 CALLDATASIZE SUB DUP2 ADD SWAP1 PUSH2 0x1C1 SWAP2 SWAP1 PUSH2 0x1002 JUMP JUMPDEST PUSH2 0x9F7 JUMP JUMPDEST PUSH1 0x40 MLOAD PUSH2 0x1D3 SWAP2 SWAP1 PUSH2 0xF36 JUMP JUMPDEST PUSH1 0x40 MLOAD DUP1 SWAP2 SUB SWAP1 RETURN JUMPDEST PUSH1 0x0 DUP1 PUSH1 0x1 SWAP1 POP JUMPDEST PUSH1 0x5 DUP2 PUSH1 0xFF AND LT ISZERO PUSH2 0x266 JUMPI PUSH1 0x1 DUP4 PUSH1 0x1 DUP4 PUSH2 0x200 SWAP2 SWAP1 PUSH2 0x1073 JUMP JUMPDEST PUSH1 0xFF AND PUSH1 0x5 DUP2 LT PUSH2 0x214 JUMPI PUSH2 0x213 PUSH2 0x10A8 JUMP JUMPDEST JUMPDEST PUSH1 0x20 MUL ADD MLOAD PUSH2 0x223 SWAP2 SWAP1 PUSH2 0x1073 JUMP JUMPDEST PUSH1 0xFF AND DUP4 DUP3 PUSH1 0xFF AND PUSH1 0x5 DUP2 LT PUSH2 0x23C JUMPI PUSH2 0x23B PUSH2 0x10A8 JUMP JUMPDEST JUMPDEST PUSH1 0x20 MUL ADD MLOAD PUSH1 0xFF AND EQ PUSH2 0x253 JUMPI PUSH1 0x0 SWAP2 POP POP PUSH2 0x26C JUMP JUMPDEST DUP1 DUP1 PUSH2 0x25E SWAP1 PUSH2 0x10D7 JUMP JUMPDEST SWAP2 POP POP PUSH2 0x1E4 JUMP JUMPDEST POP PUSH1 0x1 SWAP1 POP JUMPDEST SWAP2 SWAP1 POP JUMP JUMPDEST PUSH2 0x279 PUSH2 0xA59 JUMP JUMPDEST PUSH1 0x0 JUMPDEST PUSH1 0x5 DUP2 PUSH1 0xFF AND LT ISZERO PUSH2 0x39A JUMPI PUSH1 0x0 PUSH1 0x1 DUP3 PUSH2 0x297 SWAP2 SWAP1 PUSH2 0x1100 JUMP JUMPDEST SWAP1 POP JUMPDEST PUSH1 0x5 DUP2 PUSH1 0xFF AND LT ISZERO PUSH2 0x386 JUMPI DUP4 DUP2 PUSH1 0xFF AND PUSH1 0x5 DUP2 LT PUSH2 0x2BC JUMPI PUSH2 0x2BB PUSH2 0x10A8 JUMP JUMPDEST JUMPDEST PUSH1 0x20 MUL ADD MLOAD PUSH1 0xFF AND DUP5 DUP4 PUSH1 0xFF AND PUSH1 0x5 DUP2 LT PUSH2 0x2DA JUMPI PUSH2 0x2D9 PUSH2 0x10A8 JUMP JUMPDEST JUMPDEST PUSH1 0x20 MUL ADD MLOAD PUSH1 0xFF AND LT ISZERO PUSH2 0x373 JUMPI PUSH1 0x0 DUP5 DUP4 PUSH1 0xFF AND PUSH1 0x5 DUP2 LT PUSH2 0x300 JUMPI PUSH2 0x2FF PUSH2 0x10A8 JUMP JUMPDEST JUMPDEST PUSH1 0x20 MUL ADD MLOAD SWAP1 POP DUP5 DUP3 PUSH1 0xFF AND PUSH1 0x5 DUP2 LT PUSH2 0x31D JUMPI PUSH2 0x31C PUSH2 0x10A8 JUMP JUMPDEST JUMPDEST PUSH1 0x20 MUL ADD MLOAD DUP6 DUP5 PUSH1 0xFF AND PUSH1 0x5 DUP2 LT PUSH2 0x338 JUMPI PUSH2 0x337 PUSH2 0x10A8 JUMP JUMPDEST JUMPDEST PUSH1 0x20 MUL ADD SWAP1 PUSH1 0xFF AND SWAP1 DUP2 PUSH1 0xFF AND DUP2 MSTORE POP POP DUP1 DUP6 DUP4 PUSH1 0xFF AND PUSH1 0x5 DUP2 LT PUSH2 0x360 JUMPI PUSH2 0x35F PUSH2 0x10A8 JUMP JUMPDEST JUMPDEST PUSH1 0x20 MUL ADD SWAP1 PUSH1 0xFF AND SWAP1 DUP2 PUSH1 0xFF AND DUP2 MSTORE POP POP POP JUMPDEST DUP1 DUP1 PUSH2 0x37E SWAP1 PUSH2 0x10D7 JUMP JUMPDEST SWAP2 POP POP PUSH2 0x29A JUMP JUMPDEST POP DUP1 DUP1 PUSH2 0x392 SWAP1 PUSH2 0x10D7 JUMP JUMPDEST SWAP2 POP POP PUSH2 0x27C JUMP JUMPDEST POP DUP2 SWAP1 POP SWAP2 SWAP1 POP JUMP JUMPDEST PUSH2 0x3AB PUSH2 0xA7B JUMP JUMPDEST PUSH1 0x0 PUSH2 0x3B6 DUP4 PUSH2 0x271 JUMP JUMPDEST SWAP1 POP PUSH1 0x0 PUSH2 0x3C3 DUP3 PUSH2 0x95D JUMP JUMPDEST SWAP1 POP PUSH1 0x0 PUSH2 0x3D0 DUP4 PUSH2 0x1DC JUMP JUMPDEST SWAP1 POP DUP1 DUP1 ISZERO PUSH2 0x3DC JUMPI POP DUP2 JUMPDEST ISZERO PUSH2 0x49D JUMPI PUSH1 0xA DUP4 PUSH1 0x0 PUSH1 0x5 DUP2 LT PUSH2 0x3F7 JUMPI PUSH2 0x3F6 PUSH2 0x10A8 JUMP JUMPDEST JUMPDEST PUSH1 0x20 MUL ADD MLOAD PUSH1 0xFF AND SUB PUSH2 0x450 JUMPI PUSH1 0x40 MLOAD DUP1 PUSH1 0x40 ADD PUSH1 0x40 MSTORE DUP1 PUSH1 0x9 DUP1 DUP2 GT ISZERO PUSH2 0x422 JUMPI PUSH2 0x421 PUSH2 0xD85 JUMP JUMPDEST JUMPDEST DUP2 MSTORE PUSH1 0x20 ADD DUP5 PUSH1 0x4 PUSH1 0x5 DUP2 LT PUSH2 0x43B JUMPI PUSH2 0x43A PUSH2 0x10A8 JUMP JUMPDEST JUMPDEST PUSH1 0x20 MUL ADD MLOAD PUSH1 0xFF AND DUP2 MSTORE POP SWAP4 POP POP POP POP PUSH2 0x7DC JUMP JUMPDEST PUSH1 0x40 MLOAD DUP1 PUSH1 0x40 ADD PUSH1 0x40 MSTORE DUP1 PUSH1 0x8 PUSH1 0x9 DUP2 GT ISZERO PUSH2 0x46F JUMPI PUSH2 0x46E PUSH2 0xD85 JUMP JUMPDEST JUMPDEST DUP2 MSTORE PUSH1 0x20 ADD DUP5 PUSH1 0x4 PUSH1 0x5 DUP2 LT PUSH2 0x488 JUMPI PUSH2 0x487 PUSH2 0x10A8 JUMP JUMPDEST JUMPDEST PUSH1 0x20 MUL ADD MLOAD PUSH1 0xFF AND DUP2 MSTORE POP SWAP4 POP POP POP POP PUSH2 0x7DC JUMP JUMPDEST PUSH1 0x0 PUSH2 0x4A8 DUP5 PUSH2 0x7E1 JUMP JUMPDEST SWAP1 POP PUSH1 0x4 DUP2 PUSH1 0xC PUSH1 0xD DUP2 LT PUSH2 0x4C0 JUMPI PUSH2 0x4BF PUSH2 0x10A8 JUMP JUMPDEST JUMPDEST PUSH1 0x20 MUL ADD MLOAD PUSH1 0xFF AND SUB PUSH2 0x50D JUMPI PUSH1 0x40 MLOAD DUP1 PUSH1 0x40 ADD PUSH1 0x40 MSTORE DUP1 PUSH1 0x7 PUSH1 0x9 DUP2 GT ISZERO PUSH2 0x4EC JUMPI PUSH2 0x4EB PUSH2 0xD85 JUMP JUMPDEST JUMPDEST DUP2 MSTORE PUSH1 0x20 ADD PUSH2 0x4FC DUP4 PUSH1 0x4 PUSH2 0x9F7 JUMP JUMPDEST PUSH1 0xFF AND DUP2 MSTORE POP SWAP5 POP POP POP POP POP PUSH2 0x7DC JUMP JUMPDEST PUSH1 0x3 DUP2 PUSH1 0xC PUSH1 0xD DUP2 LT PUSH2 0x523 JUMPI PUSH2 0x522 PUSH2 0x10A8 JUMP JUMPDEST JUMPDEST PUSH1 0x20 MUL ADD MLOAD PUSH1 0xFF AND EQ DUP1 ISZERO PUSH2 0x554 JUMPI POP PUSH1 0x2 DUP2 PUSH1 0x0 PUSH1 0xD DUP2 LT PUSH2 0x549 JUMPI PUSH2 0x548 PUSH2 0x10A8 JUMP JUMPDEST JUMPDEST PUSH1 0x20 MUL ADD MLOAD PUSH1 0xFF AND LT ISZERO JUMPDEST ISZERO PUSH2 0x599 JUMPI PUSH1 0x40 MLOAD DUP1 PUSH1 0x40 ADD PUSH1 0x40 MSTORE DUP1 PUSH1 0x6 PUSH1 0x9 DUP2 GT ISZERO PUSH2 0x578 JUMPI PUSH2 0x577 PUSH2 0xD85 JUMP JUMPDEST JUMPDEST DUP2 MSTORE PUSH1 0x20 ADD PUSH2 0x588 DUP4 PUSH1 0x3 PUSH2 0x9F7 JUMP JUMPDEST PUSH1 0xFF AND DUP2 MSTORE POP SWAP5 POP POP POP POP POP PUSH2 0x7DC JUMP JUMPDEST DUP3 ISZERO PUSH2 0x5ED JUMPI PUSH1 0x40 MLOAD DUP1 PUSH1 0x40 ADD PUSH1 0x40 MSTORE DUP1 PUSH1 0x5 PUSH1 0x9 DUP2 GT ISZERO PUSH2 0x5BE JUMPI PUSH2 0x5BD PUSH2 0xD85 JUMP JUMPDEST JUMPDEST DUP2 MSTORE PUSH1 0x20 ADD DUP6 PUSH1 0x4 PUSH1 0x5 DUP2 LT PUSH2 0x5D7 JUMPI PUSH2 0x5D6 PUSH2 0x10A8 JUMP JUMPDEST JUMPDEST PUSH1 0x20 MUL ADD MLOAD PUSH1 0xFF AND DUP2 MSTORE POP SWAP5 POP POP POP POP POP PUSH2 0x7DC JUMP JUMPDEST DUP2 ISZERO PUSH2 0x641 JUMPI PUSH1 0x40 MLOAD DUP1 PUSH1 0x40 ADD PUSH1 0x40 MSTORE DUP1 PUSH1 0x4 PUSH1 0x9 DUP2 GT ISZERO PUSH2 0x612 JUMPI PUSH2 0x611 PUSH2 0xD85 JUMP JUMPDEST JUMPDEST DUP2 MSTORE PUSH1 0x20 ADD DUP6 PUSH1 0x4 PUSH1 0x5 DUP2 LT PUSH2 0x62B JUMPI PUSH2 0x62A PUSH2 0x10A8 JUMP JUMPDEST JUMPDEST PUSH1 0x20 MUL ADD MLOAD PUSH1 0xFF AND DUP2 MSTORE POP SWAP5 POP POP POP POP POP PUSH2 0x7DC JUMP JUMPDEST PUSH1 0x3 DUP2 PUSH1 0xC PUSH1 0xD DUP2 LT PUSH2 0x657 JUMPI PUSH2 0x656 PUSH2 0x10A8 JUMP JUMPDEST JUMPDEST PUSH1 0x20 MUL ADD MLOAD PUSH1 0xFF AND SUB PUSH2 0x6A4 JUMPI PUSH1 0x40 MLOAD DUP1 PUSH1 0x40 ADD PUSH1 0x40 MSTORE DUP1 PUSH1 0x3 PUSH1 0x9 DUP2 GT ISZERO PUSH2 0x683 JUMPI PUSH2 0x682 PUSH2 0xD85 JUMP JUMPDEST JUMPDEST DUP2 MSTORE PUSH1 0x20 ADD PUSH2 0x693 DUP4 PUSH1 0x3 PUSH2 0x9F7 JUMP JUMPDEST PUSH1 0xFF AND DUP2 MSTORE POP SWAP5 POP POP POP POP POP PUSH2 0x7DC JUMP JUMPDEST PUSH1 0x2 DUP2 PUSH1 0xC PUSH1 0xD DUP2 LT PUSH2 0x6BA JUMPI PUSH2 0x6B9 PUSH2 0x10A8 JUMP JUMPDEST JUMPDEST PUSH1 0x20 MUL ADD MLOAD PUSH1 0xFF AND EQ DUP1 ISZERO PUSH2 0x6EA JUMPI POP PUSH1 0x2 DUP2 PUSH1 0x0 PUSH1 0xD DUP2 LT PUSH2 0x6E0 JUMPI PUSH2 0x6DF PUSH2 0x10A8 JUMP JUMPDEST JUMPDEST PUSH1 0x20 MUL ADD MLOAD PUSH1 0xFF AND EQ JUMPDEST ISZERO PUSH2 0x72F JUMPI PUSH1 0x40 MLOAD DUP1 PUSH1 0x40 ADD PUSH1 0x40 MSTORE DUP1 PUSH1 0x2 PUSH1 0x9 DUP2 GT ISZERO PUSH2 0x70E JUMPI PUSH2 0x70D PUSH2 0xD85 JUMP JUMPDEST JUMPDEST DUP2 MSTORE PUSH1 0x20 ADD PUSH2 0x71E DUP4 PUSH1 0x2 PUSH2 0x9F7 JUMP JUMPDEST PUSH1 0xFF AND DUP2 MSTORE POP SWAP5 POP POP POP POP POP PUSH2 0x7DC JUMP JUMPDEST PUSH1 0x2 DUP2 PUSH1 0xC PUSH1 0xD DUP2 LT PUSH2 0x745 JUMPI PUSH2 0x744 PUSH2 0x10A8 JUMP JUMPDEST JUMPDEST PUSH1 0x20 MUL ADD MLOAD PUSH1 0xFF AND SUB PUSH2 0x792 JUMPI PUSH1 0x40 MLOAD DUP1 PUSH1 0x40 ADD PUSH1 0x40 MSTORE DUP1 PUSH1 0x1 PUSH1 0x9 DUP2 GT ISZERO PUSH2 0x771 JUMPI PUSH2 0x770 PUSH2 0xD85 JUMP JUMPDEST JUMPDEST DUP2 MSTORE PUSH1 0x20 ADD PUSH2 0x781 DUP4 PUSH1 0x2 PUSH2 0x9F7 JUMP JUMPDEST PUSH1 0xFF AND DUP2 MSTORE POP SWAP5 POP POP POP POP POP PUSH2 0x7DC JUMP JUMPDEST PUSH1 0x40 MLOAD DUP1 PUSH1 0x40 ADD PUSH1 0x40 MSTORE DUP1 PUSH1 0x0 PUSH1 0x9 DUP2 GT ISZERO PUSH2 0x7B1 JUMPI PUSH2 0x7B0 PUSH2 0xD85 JUMP JUMPDEST JUMPDEST DUP2 MSTORE PUSH1 0x20 ADD DUP6 PUSH1 0x4 PUSH1 0x5 DUP2 LT PUSH2 0x7CA JUMPI PUSH2 0x7C9 PUSH2 0x10A8 JUMP JUMPDEST JUMPDEST PUSH1 0x20 MUL ADD MLOAD PUSH1 0xFF AND DUP2 MSTORE POP SWAP5 POP POP POP POP POP JUMPDEST SWAP2 SWAP1 POP JUMP JUMPDEST PUSH2 0x7E9 PUSH2 0xAAA JUMP JUMPDEST PUSH2 0x7F1 PUSH2 0xAAA JUMP JUMPDEST PUSH1 0x0 JUMPDEST PUSH1 0x5 DUP2 PUSH1 0xFF AND LT ISZERO PUSH2 0x86B JUMPI DUP2 PUSH1 0xD DUP6 DUP4 PUSH1 0xFF AND PUSH1 0x5 DUP2 LT PUSH2 0x819 JUMPI PUSH2 0x818 PUSH2 0x10A8 JUMP JUMPDEST JUMPDEST PUSH1 0x20 MUL ADD MLOAD PUSH2 0x828 SWAP2 SWAP1 PUSH2 0x1164 JUMP JUMPDEST PUSH1 0xFF AND PUSH1 0xD DUP2 LT PUSH2 0x83C JUMPI PUSH2 0x83B PUSH2 0x10A8 JUMP JUMPDEST JUMPDEST PUSH1 0x20 MUL ADD DUP1 MLOAD DUP1 SWAP2 SWAP1 PUSH2 0x84E SWAP1 PUSH2 0x10D7 JUMP JUMPDEST PUSH1 0xFF AND PUSH1 0xFF AND DUP2 MSTORE POP POP DUP1 DUP1 PUSH2 0x863 SWAP1 PUSH2 0x10D7 JUMP JUMPDEST SWAP2 POP POP PUSH2 0x7F4 JUMP JUMPDEST POP DUP1 SWAP2 POP POP SWAP2 SWAP1 POP JUMP JUMPDEST PUSH1 0x0 DUP1 PUSH2 0x881 DUP5 PUSH2 0x3A3 JUMP JUMPDEST SWAP1 POP PUSH1 0x0 PUSH2 0x88E DUP5 PUSH2 0x3A3 JUMP JUMPDEST SWAP1 POP DUP1 PUSH1 0x0 ADD MLOAD PUSH1 0x9 DUP2 GT ISZERO PUSH2 0x8A7 JUMPI PUSH2 0x8A6 PUSH2 0xD85 JUMP JUMPDEST JUMPDEST DUP3 PUSH1 0x0 ADD MLOAD PUSH1 0x9 DUP2 GT ISZERO PUSH2 0x8BE JUMPI PUSH2 0x8BD PUSH2 0xD85 JUMP JUMPDEST JUMPDEST GT ISZERO PUSH2 0x8CF JUMPI PUSH1 0x1 SWAP3 POP POP POP PUSH2 0x957 JUMP JUMPDEST DUP1 PUSH1 0x0 ADD MLOAD PUSH1 0x9 DUP2 GT ISZERO PUSH2 0x8E6 JUMPI PUSH2 0x8E5 PUSH2 0xD85 JUMP JUMPDEST JUMPDEST DUP3 PUSH1 0x0 ADD MLOAD PUSH1 0x9 DUP2 GT ISZERO PUSH2 0x8FD JUMPI PUSH2 0x8FC PUSH2 0xD85 JUMP JUMPDEST JUMPDEST LT ISZERO PUSH2 0x90E JUMPI PUSH1 0x2 SWAP3 POP POP POP PUSH2 0x957 JUMP JUMPDEST DUP1 PUSH1 0x20 ADD MLOAD PUSH1 0xFF AND DUP3 PUSH1 0x20 ADD MLOAD PUSH1 0xFF AND GT ISZERO PUSH2 0x92F JUMPI PUSH1 0x1 SWAP3 POP POP POP PUSH2 0x957 JUMP JUMPDEST DUP1 PUSH1 0x20 ADD MLOAD PUSH1 0xFF AND DUP3 PUSH1 0x20 ADD MLOAD PUSH1 0xFF AND LT ISZERO PUSH2 0x950 JUMPI PUSH1 0x2 SWAP3 POP POP POP PUSH2 0x957 JUMP JUMPDEST PUSH1 0x0 SWAP3 POP POP POP JUMPDEST SWAP3 SWAP2 POP POP JUMP JUMPDEST PUSH1 0x0 DUP1 PUSH1 0xD DUP4 PUSH1 0x0 PUSH1 0x5 DUP2 LT PUSH2 0x976 JUMPI PUSH2 0x975 PUSH2 0x10A8 JUMP JUMPDEST JUMPDEST PUSH1 0x20 MUL ADD MLOAD PUSH2 0x985 SWAP2 SWAP1 PUSH2 0x1195 JUMP JUMPDEST SWAP1 POP PUSH1 0x0 PUSH1 0x1 SWAP1 POP JUMPDEST PUSH1 0x5 DUP2 PUSH1 0xFF AND LT ISZERO PUSH2 0x9EB JUMPI DUP2 PUSH1 0xFF AND PUSH1 0xD DUP6 DUP4 PUSH1 0xFF AND PUSH1 0x5 DUP2 LT PUSH2 0x9B6 JUMPI PUSH2 0x9B5 PUSH2 0x10A8 JUMP JUMPDEST JUMPDEST PUSH1 0x20 MUL ADD MLOAD PUSH2 0x9C5 SWAP2 SWAP1 PUSH2 0x1195 JUMP JUMPDEST PUSH1 0xFF AND EQ PUSH2 0x9D8 JUMPI PUSH1 0x0 SWAP3 POP POP POP PUSH2 0x9F2 JUMP JUMPDEST DUP1 DUP1 PUSH2 0x9E3 SWAP1 PUSH2 0x10D7 JUMP JUMPDEST SWAP2 POP POP PUSH2 0x98E JUMP JUMPDEST POP PUSH1 0x1 SWAP2 POP POP JUMPDEST SWAP2 SWAP1 POP JUMP JUMPDEST PUSH1 0x0 DUP1 PUSH1 0xC SWAP1 POP JUMPDEST PUSH1 0x0 DUP2 PUSH1 0x0 SIGNEXTEND SLT PUSH2 0xA4D JUMPI DUP3 PUSH1 0xFF AND DUP5 DUP3 PUSH1 0xFF AND PUSH1 0xD DUP2 LT PUSH2 0xA24 JUMPI PUSH2 0xA23 PUSH2 0x10A8 JUMP JUMPDEST JUMPDEST PUSH1 0x20 MUL ADD MLOAD PUSH1 0xFF AND SUB PUSH2 0xA3A JUMPI DUP1 SWAP2 POP POP PUSH2 0xA53 JUMP JUMPDEST DUP1 DUP1 PUSH2 0xA45 SWAP1 PUSH2 0x11D3 JUMP JUMPDEST SWAP2 POP POP PUSH2 0x9FF JUMP JUMPDEST POP PUSH1 0x0 SWAP1 POP JUMPDEST SWAP3 SWAP2 POP POP JUMP JUMPDEST PUSH1 0x40 MLOAD DUP1 PUSH1 0xA0 ADD PUSH1 0x40 MSTORE DUP1 PUSH1 0x5 SWAP1 PUSH1 0x20 DUP3 MUL DUP1 CALLDATASIZE DUP4 CALLDATACOPY DUP1 DUP3 ADD SWAP2 POP POP SWAP1 POP POP SWAP1 JUMP JUMPDEST PUSH1 0x40 MLOAD DUP1 PUSH1 0x40 ADD PUSH1 0x40 MSTORE DUP1 PUSH1 0x0 PUSH1 0x9 DUP2 GT ISZERO PUSH2 0xA9A JUMPI PUSH2 0xA99 PUSH2 0xD85 JUMP JUMPDEST JUMPDEST DUP2 MSTORE PUSH1 0x20 ADD PUSH1 0x0 PUSH1 0xFF AND DUP2 MSTORE POP SWAP1 JUMP JUMPDEST PUSH1 0x40 MLOAD DUP1 PUSH2 0x1A0 ADD PUSH1 0x40 MSTORE DUP1 PUSH1 0xD SWAP1 PUSH1 0x20 DUP3 MUL DUP1 CALLDATASIZE DUP4 CALLDATACOPY DUP1 DUP3 ADD SWAP2 POP POP SWAP1 POP POP SWAP1 JUMP JUMPDEST PUSH1 0x0 PUSH1 0x40 MLOAD SWAP1 POP SWAP1 JUMP JUMPDEST PUSH1 0x0 DUP1 REVERT JUMPDEST PUSH1 0x0 DUP1 REVERT JUMPDEST PUSH1 0x0 PUSH1 0x1F NOT PUSH1 0x1F DUP4 ADD AND SWAP1 POP SWAP2 SWAP1 POP JUMP JUMPDEST PUSH32 0x4E487B7100000000000000000000000000000000000000000000000000000000 PUSH1 0x0 MSTORE PUSH1 0x41 PUSH1 0x4 MSTORE PUSH1 0x24 PUSH1 0x0 REVERT JUMPDEST PUSH2 0xB2A DUP3 PUSH2 0xAE1 JUMP JUMPDEST DUP2 ADD DUP2 DUP2 LT PUSH8 0xFFFFFFFFFFFFFFFF DUP3 GT OR ISZERO PUSH2 0xB49 JUMPI PUSH2 0xB48 PUSH2 0xAF2 JUMP JUMPDEST JUMPDEST DUP1 PUSH1 0x40 MSTORE POP POP POP JUMP JUMPDEST PUSH1 0x0 PUSH2 0xB5C PUSH2 0xACD JUMP JUMPDEST SWAP1 POP PUSH2 0xB68 DUP3 DUP3 PUSH2 0xB21 JUMP JUMPDEST SWAP2 SWAP1 POP JUMP JUMPDEST PUSH1 0x0 PUSH8 0xFFFFFFFFFFFFFFFF DUP3 GT ISZERO PUSH2 0xB88 JUMPI PUSH2 0xB87 PUSH2 0xAF2 JUMP JUMPDEST JUMPDEST PUSH1 0x20 DUP3 MUL SWAP1 POP SWAP2 SWAP1 POP JUMP JUMPDEST PUSH1 0x0 DUP1 REVERT JUMPDEST PUSH1 0x0 PUSH1 0xFF DUP3 AND SWAP1 POP SWAP2 SWAP1 POP JUMP JUMPDEST PUSH2 0xBAE DUP2 PUSH2 0xB98 JUMP JUMPDEST DUP2 EQ PUSH2 0xBB9 JUMPI PUSH1 0x0 DUP1 REVERT JUMPDEST POP JUMP JUMPDEST PUSH1 0x0 DUP2 CALLDATALOAD SWAP1 POP PUSH2 0xBCB DUP2 PUSH2 0xBA5 JUMP JUMPDEST SWAP3 SWAP2 POP POP JUMP JUMPDEST PUSH1 0x0 PUSH2 0xBE4 PUSH2 0xBDF DUP5 PUSH2 0xB6D JUMP JUMPDEST PUSH2 0xB52 JUMP JUMPDEST SWAP1 POP DUP1 PUSH1 0x20 DUP5 MUL DUP4 ADD DUP6 DUP2 GT ISZERO PUSH2 0xBFE JUMPI PUSH2 0xBFD PUSH2 0xB93 JUMP JUMPDEST JUMPDEST DUP4 JUMPDEST DUP2 DUP2 LT ISZERO PUSH2 0xC27 JUMPI DUP1 PUSH2 0xC13 DUP9 DUP3 PUSH2 0xBBC JUMP JUMPDEST DUP5 MSTORE PUSH1 0x20 DUP5 ADD SWAP4 POP POP PUSH1 0x20 DUP2 ADD SWAP1 POP PUSH2 0xC00 JUMP JUMPDEST POP POP POP SWAP4 SWAP3 POP POP POP JUMP JUMPDEST PUSH1 0x0 DUP3 PUSH1 0x1F DUP4 ADD SLT PUSH2 0xC46 JUMPI PUSH2 0xC45 PUSH2 0xADC JUMP JUMPDEST JUMPDEST PUSH1 0x5 PUSH2 0xC53 DUP5 DUP3 DUP6 PUSH2 0xBD1 JUMP JUMPDEST SWAP2 POP POP SWAP3 SWAP2 POP POP JUMP JUMPDEST PUSH1 0x0 PUSH1 0xA0 DUP3 DUP5 SUB SLT ISZERO PUSH2 0xC72 JUMPI PUSH2 0xC71 PUSH2 0xAD7 JUMP JUMPDEST JUMPDEST PUSH1 0x0 PUSH2 0xC80 DUP5 DUP3 DUP6 ADD PUSH2 0xC31 JUMP JUMPDEST SWAP2 POP POP SWAP3 SWAP2 POP POP JUMP JUMPDEST PUSH1 0x0 DUP2 ISZERO ISZERO SWAP1 POP SWAP2 SWAP1 POP JUMP JUMPDEST PUSH2 0xC9E DUP2 PUSH2 0xC89 JUMP JUMPDEST DUP3 MSTORE POP POP JUMP JUMPDEST PUSH1 0x0 PUSH1 0x20 DUP3 ADD SWAP1 POP PUSH2 0xCB9 PUSH1 0x0 DUP4 ADD DUP5 PUSH2 0xC95 JUMP JUMPDEST SWAP3 SWAP2 POP POP JUMP JUMPDEST PUSH1 0x0 PUSH1 0x5 SWAP1 POP SWAP2 SWAP1 POP JUMP JUMPDEST PUSH1 0x0 DUP2 SWAP1 POP SWAP3 SWAP2 POP POP JUMP JUMPDEST PUSH1 0x0 DUP2 SWAP1 POP SWAP2 SWAP1 POP JUMP JUMPDEST PUSH2 0xCE8 DUP2 PUSH2 0xB98 JUMP JUMPDEST DUP3 MSTORE POP POP JUMP JUMPDEST PUSH1 0x0 PUSH2 0xCFA DUP4 DUP4 PUSH2 0xCDF JUMP JUMPDEST PUSH1 0x20 DUP4 ADD SWAP1 POP SWAP3 SWAP2 POP POP JUMP JUMPDEST PUSH1 0x0 PUSH1 0x20 DUP3 ADD SWAP1 POP SWAP2 SWAP1 POP JUMP JUMPDEST PUSH2 0xD1C DUP2 PUSH2 0xCBF JUMP JUMPDEST PUSH2 0xD26 DUP2 DUP5 PUSH2 0xCCA JUMP JUMPDEST SWAP3 POP PUSH2 0xD31 DUP3 PUSH2 0xCD5 JUMP JUMPDEST DUP1 PUSH1 0x0 JUMPDEST DUP4 DUP2 LT ISZERO PUSH2 0xD62 JUMPI DUP2 MLOAD PUSH2 0xD49 DUP8 DUP3 PUSH2 0xCEE JUMP JUMPDEST SWAP7 POP PUSH2 0xD54 DUP4 PUSH2 0xD06 JUMP JUMPDEST SWAP3 POP POP PUSH1 0x1 DUP2 ADD SWAP1 POP PUSH2 0xD35 JUMP JUMPDEST POP POP POP POP POP POP JUMP JUMPDEST PUSH1 0x0 PUSH1 0xA0 DUP3 ADD SWAP1 POP PUSH2 0xD7F PUSH1 0x0 DUP4 ADD DUP5 PUSH2 0xD13 JUMP JUMPDEST SWAP3 SWAP2 POP POP JUMP JUMPDEST PUSH32 0x4E487B7100000000000000000000000000000000000000000000000000000000 PUSH1 0x0 MSTORE PUSH1 0x21 PUSH1 0x4 MSTORE PUSH1 0x24 PUSH1 0x0 REVERT JUMPDEST PUSH1 0xA DUP2 LT PUSH2 0xDC5 JUMPI PUSH2 0xDC4 PUSH2 0xD85 JUMP JUMPDEST JUMPDEST POP JUMP JUMPDEST PUSH1 0x0 DUP2 SWAP1 POP PUSH2 0xDD6 DUP3 PUSH2 0xDB4 JUMP JUMPDEST SWAP2 SWAP1 POP JUMP JUMPDEST PUSH1 0x0 PUSH2 0xDE6 DUP3 PUSH2 0xDC8 JUMP JUMPDEST SWAP1 POP SWAP2 SWAP1 POP JUMP JUMPDEST PUSH2 0xDF6 DUP2 PUSH2 0xDDB JUMP JUMPDEST DUP3 MSTORE POP POP JUMP JUMPDEST PUSH1 0x40 DUP3 ADD PUSH1 0x0 DUP3 ADD MLOAD PUSH2 0xE12 PUSH1 0x0 DUP6 ADD DUP3 PUSH2 0xDED JUMP JUMPDEST POP PUSH1 0x20 DUP3 ADD MLOAD PUSH2 0xE25 PUSH1 0x20 DUP6 ADD DUP3 PUSH2 0xCDF JUMP JUMPDEST POP POP POP POP JUMP JUMPDEST PUSH1 0x0 PUSH1 0x40 DUP3 ADD SWAP1 POP PUSH2 0xE40 PUSH1 0x0 DUP4 ADD DUP5 PUSH2 0xDFC JUMP JUMPDEST SWAP3 SWAP2 POP POP JUMP JUMPDEST PUSH1 0x0 PUSH1 0xD SWAP1 POP SWAP2 SWAP1 POP JUMP JUMPDEST PUSH1 0x0 DUP2 SWAP1 POP SWAP3 SWAP2 POP POP JUMP JUMPDEST PUSH1 0x0 DUP2 SWAP1 POP SWAP2 SWAP1 POP JUMP JUMPDEST PUSH1 0x0 PUSH1 0x20 DUP3 ADD SWAP1 POP SWAP2 SWAP1 POP JUMP JUMPDEST PUSH2 0xE7C DUP2 PUSH2 0xE46 JUMP JUMPDEST PUSH2 0xE86 DUP2 DUP5 PUSH2 0xE51 JUMP JUMPDEST SWAP3 POP PUSH2 0xE91 DUP3 PUSH2 0xE5C JUMP JUMPDEST DUP1 PUSH1 0x0 JUMPDEST DUP4 DUP2 LT ISZERO PUSH2 0xEC2 JUMPI DUP2 MLOAD PUSH2 0xEA9 DUP8 DUP3 PUSH2 0xCEE JUMP JUMPDEST SWAP7 POP PUSH2 0xEB4 DUP4 PUSH2 0xE66 JUMP JUMPDEST SWAP3 POP POP PUSH1 0x1 DUP2 ADD SWAP1 POP PUSH2 0xE95 JUMP JUMPDEST POP POP POP POP POP POP JUMP JUMPDEST PUSH1 0x0 PUSH2 0x1A0 DUP3 ADD SWAP1 POP PUSH2 0xEE0 PUSH1 0x0 DUP4 ADD DUP5 PUSH2 0xE73 JUMP JUMPDEST SWAP3 SWAP2 POP POP JUMP JUMPDEST PUSH1 0x0 DUP1 PUSH2 0x140 DUP4 DUP6 SUB SLT ISZERO PUSH2 0xEFE JUMPI PUSH2 0xEFD PUSH2 0xAD7 JUMP JUMPDEST JUMPDEST PUSH1 0x0 PUSH2 0xF0C DUP6 DUP3 DUP7 ADD PUSH2 0xC31 JUMP JUMPDEST SWAP3 POP POP PUSH1 0xA0 PUSH2 0xF1D DUP6 DUP3 DUP7 ADD PUSH2 0xC31 JUMP JUMPDEST SWAP2 POP POP SWAP3 POP SWAP3 SWAP1 POP JUMP JUMPDEST PUSH2 0xF30 DUP2 PUSH2 0xB98 JUMP JUMPDEST DUP3 MSTORE POP POP JUMP JUMPDEST PUSH1 0x0 PUSH1 0x20 DUP3 ADD SWAP1 POP PUSH2 0xF4B PUSH1 0x0 DUP4 ADD DUP5 PUSH2 0xF27 JUMP JUMPDEST SWAP3 SWAP2 POP POP JUMP JUMPDEST PUSH1 0x0 PUSH8 0xFFFFFFFFFFFFFFFF DUP3 GT ISZERO PUSH2 0xF6C JUMPI PUSH2 0xF6B PUSH2 0xAF2 JUMP JUMPDEST JUMPDEST PUSH1 0x20 DUP3 MUL SWAP1 POP SWAP2 SWAP1 POP JUMP JUMPDEST PUSH1 0x0 PUSH2 0xF8A PUSH2 0xF85 DUP5 PUSH2 0xF51 JUMP JUMPDEST PUSH2 0xB52 JUMP JUMPDEST SWAP1 POP DUP1 PUSH1 0x20 DUP5 MUL DUP4 ADD DUP6 DUP2 GT ISZERO PUSH2 0xFA4 JUMPI PUSH2 0xFA3 PUSH2 0xB93 JUMP JUMPDEST JUMPDEST DUP4 JUMPDEST DUP2 DUP2 LT ISZERO PUSH2 0xFCD JUMPI DUP1 PUSH2 0xFB9 DUP9 DUP3 PUSH2 0xBBC JUMP JUMPDEST DUP5 MSTORE PUSH1 0x20 DUP5 ADD SWAP4 POP POP PUSH1 0x20 DUP2 ADD SWAP1 POP PUSH2 0xFA6 JUMP JUMPDEST POP POP POP SWAP4 SWAP3 POP POP POP JUMP JUMPDEST PUSH1 0x0 DUP3 PUSH1 0x1F DUP4 ADD SLT PUSH2 0xFEC JUMPI PUSH2 0xFEB PUSH2 0xADC JUMP JUMPDEST JUMPDEST PUSH1 0xD PUSH2 0xFF9 DUP5 DUP3 DUP6 PUSH2 0xF77 JUMP JUMPDEST SWAP2 POP POP SWAP3 SWAP2 POP POP JUMP JUMPDEST PUSH1 0x0 DUP1 PUSH2 0x1C0 DUP4 DUP6 SUB SLT ISZERO PUSH2 0x101A JUMPI PUSH2 0x1019 PUSH2 0xAD7 JUMP JUMPDEST JUMPDEST PUSH1 0x0 PUSH2 0x1028 DUP6 DUP3 DUP7 ADD PUSH2 0xFD7 JUMP JUMPDEST SWAP3 POP POP PUSH2 0x1A0 PUSH2 0x103A DUP6 DUP3 DUP7 ADD PUSH2 0xBBC JUMP JUMPDEST SWAP2 POP POP SWAP3 POP SWAP3 SWAP1 POP JUMP JUMPDEST PUSH32 0x4E487B7100000000000000000000000000000000000000000000000000000000 PUSH1 0x0 MSTORE PUSH1 0x11 PUSH1 0x4 MSTORE PUSH1 0x24 PUSH1 0x0 REVERT JUMPDEST PUSH1 0x0 PUSH2 0x107E DUP3 PUSH2 0xB98 JUMP JUMPDEST SWAP2 POP PUSH2 0x1089 DUP4 PUSH2 0xB98 JUMP JUMPDEST SWAP3 POP DUP3 DUP3 SUB SWAP1 POP PUSH1 0xFF DUP2 GT ISZERO PUSH2 0x10A2 JUMPI PUSH2 0x10A1 PUSH2 0x1044 JUMP JUMPDEST JUMPDEST SWAP3 SWAP2 POP POP JUMP JUMPDEST PUSH32 0x4E487B7100000000000000000000000000000000000000000000000000000000 PUSH1 0x0 MSTORE PUSH1 0x32 PUSH1 0x4 MSTORE PUSH1 0x24 PUSH1 0x0 REVERT JUMPDEST PUSH1 0x0 PUSH2 0x10E2 DUP3 PUSH2 0xB98 JUMP JUMPDEST SWAP2 POP PUSH1 0xFF DUP3 SUB PUSH2 0x10F5 JUMPI PUSH2 0x10F4 PUSH2 0x1044 JUMP JUMPDEST JUMPDEST PUSH1 0x1 DUP3 ADD SWAP1 POP SWAP2 SWAP1 POP JUMP JUMPDEST PUSH1 0x0 PUSH2 0x110B DUP3 PUSH2 0xB98 JUMP JUMPDEST SWAP2 POP PUSH2 0x1116 DUP4 PUSH2 0xB98 JUMP JUMPDEST SWAP3 POP DUP3 DUP3 ADD SWAP1 POP PUSH1 0xFF DUP2 GT ISZERO PUSH2 0x112F JUMPI PUSH2 0x112E PUSH2 0x1044 JUMP JUMPDEST JUMPDEST SWAP3 SWAP2 POP POP JUMP JUMPDEST PUSH32 0x4E487B7100000000000000000000000000000000000000000000000000000000 PUSH1 0x0 MSTORE PUSH1 0x12 PUSH1 0x4 MSTORE PUSH1 0x24 PUSH1 0x0 REVERT JUMPDEST PUSH1 0x0 PUSH2 0x116F DUP3 PUSH2 0xB98 JUMP JUMPDEST SWAP2 POP PUSH2 0x117A DUP4 PUSH2 0xB98 JUMP JUMPDEST SWAP3 POP DUP3 PUSH2 0x118A JUMPI PUSH2 0x1189 PUSH2 0x1135 JUMP JUMPDEST JUMPDEST DUP3 DUP3 MOD SWAP1 POP SWAP3 SWAP2 POP POP JUMP JUMPDEST PUSH1 0x0 PUSH2 0x11A0 DUP3 PUSH2 0xB98 JUMP JUMPDEST SWAP2 POP PUSH2 0x11AB DUP4 PUSH2 0xB98 JUMP JUMPDEST SWAP3 POP DUP3 PUSH2 0x11BB JUMPI PUSH2 0x11BA PUSH2 0x1135 JUMP JUMPDEST JUMPDEST DUP3 DUP3 DIV SWAP1 POP SWAP3 SWAP2 POP POP JUMP JUMPDEST PUSH1 0x0 DUP2 PUSH1 0x0 SIGNEXTEND SWAP1 POP SWAP2 SWAP1 POP JUMP JUMPDEST PUSH1 0x0 PUSH2 0x11DE DUP3 PUSH2 0x11C6 JUMP JUMPDEST SWAP2 POP PUSH32 0xFFFFFFFFFFFFFFFFFFFFFFFFFFFFFFFFFFFFFFFFFFFFFFFFFFFFFFFFFFFFFF80 DUP3 SUB PUSH2 0x1210 JUMPI PUSH2 0x120F PUSH2 0x1044 JUMP JUMPDEST JUMPDEST PUSH1 0x1 DUP3 SUB SWAP1 POP SWAP2 SWAP1 POP JUMP INVALID LOG2 PUSH5 0x6970667358 0x22 SLT KECCAK256 0xC DUP10 DUP15 SWAP13 MSTORE8 SWAP4 SWAP5 0xE9 0xCE 0xEC 0xB7 DUP14 ADDRESS JUMPI 0xC9 0xD1 DUP5 0xD6 NUMBER 0xFC DUP16 DUP9 0xFB 0xBC BLOBBASEFEE TLOAD CALLDATALOAD SWAP12 0xDA 0x22 INVALID 0xCF PUSH5 0x736F6C6343 STOP ADDMOD XOR STOP CALLER "},"methodIdentifiers":{"compareHands(uint8[5],uint8[5])":"d3999c06","countCards(uint8[5])":"b1448652","evaluateHand(uint8[5])":"82e58f9e","getHighestRank(uint8[13],uint8)":"f7f1efcd","isFlush(uint8[5])":"de6cd161","isStraight(uint8[5])":"433c2e96","sortCards(uint8[5])":"50c07888"}}}}}