{"contracts/PokerHandEvaluator.sol":{"PokerHandEvaluator":{"abi":[{"inputs":[{"internalType":"uint8[5]","name":"ranks","type":"uint8[5]"}],"name":"countRanks","outputs":[{"internalType":"uint8[13]","name":"","type":"uint8[13]"}],"stateMutability":"pure","type":"function"},{"inputs":[{"internalType":"uint8[5]","name":"cards","type":"uint8[5]"}],"name":"evaluateHand","outputs":[{"components":[{"internalType":"enum PokerHandEvaluator.HandRank","name":"rank","type":"PokerHandEvaluator.HandRank"},{"internalType":"uint8","name":"highestCard","type":"uint8"}],"internalType":"struct PokerHandEvaluator.Hand","name":"","type":"tuple"}],"stateMutability":"pure","type":"function"},{"inputs":[{"internalType":"uint8[7]","name":"fullHand","type":"uint8[7]"}],"name":"findBestFiveCardHand","outputs":[{"internalType":"uint8[5]","name":"bestHand","type":"uint8[5]"},{"internalType":"uint8","name":"rank","type":"uint8"}],"stateMutability":"pure","type":"function"},{"inputs":[{"internalType":"uint8[5]","name":"ranks","type":"uint8[5]"}],"name":"findStraight","outputs":[{"internalType":"bool","name":"","type":"bool"}],"stateMutability":"pure","type":"function"},{"inputs":[{"internalType":"uint8[5]","name":"suits","type":"uint8[5]"}],"name":"isFlush","outputs":[{"internalType":"bool","name":"","type":"bool"}],"stateMutability":"pure","type":"function"},{"inputs":[{"internalType":"uint8[5]","name":"ranks","type":"uint8[5]"}],"name":"isRoyalStraight","outputs":[{"internalType":"bool","name":"","type":"bool"}],"stateMutability":"pure","type":"function"},{"inputs":[{"internalType":"uint8[5]","name":"ranks","type":"uint8[5]"}],"name":"sortRanks","outputs":[{"internalType":"uint8[5]","name":"","type":"uint8[5]"}],"stateMutability":"pure","type":"function"}],"evm":{"bytecode":{"linkReferences":{},"object":"6117ae610053600b82828239805160001a607314610046577f4e487b7100000000000000000000000000000000000000000000000000000000600052600060045260246000fd5b30600052607381538281f3fe73000000000000000000000000000000000000000030146080604052600436106100875760003560e01c8063b19654ca11610065578063b19654ca1461011d578063cc49a3811461014d578063de6cd1611461017d578063fc04c4e5146101ad57610087565b80630a6850331461008c5780632a73f714146100bd57806382e58f9e146100ed575b600080fd5b6100a660048036038101906100a19190611147565b6101dd565b6040516100b492919061122e565b60405180910390f35b6100d760048036038101906100d29190611308565b6103b7565b6040516100e49190611350565b60405180910390f35b61010760048036038101906101029190611308565b61050c565b6040516101149190611411565b60405180910390f35b61013760048036038101906101329190611308565b610be8565b604051610144919061142c565b60405180910390f35b61016760048036038101906101629190611308565b610d04565b60405161017491906114cb565b60405180910390f35b61019760048036038101906101929190611308565b610e0b565b6040516101a49190611350565b60405180910390f35b6101c760048036038101906101c29190611308565b610e80565b6040516101d49190611350565b60405180910390f35b6101e5610f44565b6000806040518060400160405280600060098111156102075761020661136b565b5b8152602001600060ff16815250905060005b60078160ff1610156103975760006001826102349190611516565b90505b60078160ff1610156103895761024b610f44565b6000805b60078160ff1610156102da578460ff168160ff161415801561027757508360ff168160ff1614155b156102cd57888160ff16600781106102925761029161154b565b5b6020020151838360ff16600581106102ad576102ac61154b565b5b602002019060ff16908160ff168152505081806102c99061157a565b9250505b808060010191505061024f565b5060006102e68361050c565b9050856000015160098111156102ff576102fe61136b565b5b816000015160098111156103165761031561136b565b5b111561032757809550829750610379565b8560000151600981111561033e5761033d61136b565b5b816000015160098111156103555761035461136b565b5b0361037857856020015160ff16816020015160ff161115610377578095508297505b5b5b5050508080600101915050610237565b508080600101915050610219565b50806000015160098111156103af576103ae61136b565b5b915050915091565b6000600e826000600581106103cf576103ce61154b565b5b602002015160ff161480156103ff57506005826001600581106103f5576103f461154b565b5b602002015160ff16145b8015610426575060048260026005811061041c5761041b61154b565b5b602002015160ff16145b801561044d57506003826003600581106104435761044261154b565b5b602002015160ff16145b8015610474575060028260046005811061046a5761046961154b565b5b602002015160ff16145b156104825760019050610507565b60005b60048160ff161015610501576001836001836104a19190611516565b60ff16600581106104b5576104b461154b565b5b60200201516104c49190611516565b60ff16838260ff16600581106104dd576104dc61154b565b5b602002015160ff16146104f4576000915050610507565b8080600101915050610485565b50600190505b919050565b610514610f66565b61051c610f44565b610524610f44565b60005b60058160ff16101561064f576001600d6001878460ff166005811061054f5761054e61154b565b5b602002015161055e91906115a3565b6105689190611607565b6105729190611516565b838260ff16600581106105885761058761154b565b5b602002019060ff16908160ff1681525050600d6001868360ff16600581106105b3576105b261154b565b5b60200201516105c291906115a3565b6105cc9190611638565b828260ff16600581106105e2576105e161154b565b5b602002019060ff16908160ff16815250506001838260ff166005811061060b5761060a61154b565b5b602002015160ff160361064257600e838260ff16600581106106305761062f61154b565b5b602002019060ff16908160ff16815250505b8080600101915050610527565b5061065982610be8565b9150600061066683610d04565b905060008060008061067786610e0b565b90506000610684886103b7565b9050600061069189610e80565b905082801561069d5750805b156106f45760405180604001604052806009808111156106c0576106bf61136b565b5b81526020018a6000600581106106d9576106d861154b565b5b602002015160ff168152509950505050505050505050610be3565b8280156106fe5750815b15610756576040518060400160405280600860098111156107225761072161136b565b5b81526020018a60006005811061073b5761073a61154b565b5b602002015160ff168152509950505050505050505050610be3565b60005b600d8160ff1610156107df576004888260ff16600d811061077d5761077c61154b565b5b602002015160ff16036107d2576040518060400160405280600760098111156107a9576107a861136b565b5b81526020016001836107bb9190611516565b60ff168152509a5050505050505050505050610be3565b8080600101915050610759565b5060005b600d8160ff16101561088b576003888260ff16600d81106108075761080661154b565b5b602002015160ff1603610828576001816108219190611516565b945061087e565b6002888260ff16600d81106108405761083f61154b565b5b602002015160ff160361087d5760008760ff160361086c576001816108659190611516565b965061087c565b6001816108799190611516565b95505b5b5b80806001019150506107e3565b5060008460ff161180156108a2575060008660ff16115b80156108b1575060008560ff16145b156108f1576040518060400160405280600660098111156108d5576108d461136b565b5b81526020018560ff168152509950505050505050505050610be3565b811561094a576040518060400160405280600460098111156109165761091561136b565b5b81526020018a60006005811061092f5761092e61154b565b5b602002015160ff168152509950505050505050505050610be3565b82156109a35760405180604001604052806005600981111561096f5761096e61136b565b5b81526020018a6000600581106109885761098761154b565b5b602002015160ff168152509950505050505050505050610be3565b60008460ff1611156109ea576040518060400160405280600360098111156109ce576109cd61136b565b5b81526020018560ff168152509950505050505050505050610be3565b60008660ff16118015610a00575060008560ff16115b15610a9c578460ff168660ff1603610a4d576040517f08c379a0000000000000000000000000000000000000000000000000000000008152600401610a44906116c6565b60405180910390fd5b604051806040016040528060026009811115610a6c57610a6b61136b565b5b81526020018660ff168860ff1611610a845786610a86565b875b60ff168152509950505050505050505050610be3565b60008660ff161115610ae357604051806040016040528060016009811115610ac757610ac661136b565b5b81526020018760ff168152509950505050505050505050610be3565b60008660ff16118015610af9575060008560ff16115b15610b4d57604051806040016040528060026009811115610b1d57610b1c61136b565b5b81526020018660ff168860ff1611610b355786610b37565b875b60ff168152509950505050505050505050610be3565b60008660ff161115610b9457604051806040016040528060016009811115610b7857610b7761136b565b5b81526020018760ff168152509950505050505050505050610be3565b604051806040016040528060006009811115610bb357610bb261136b565b5b81526020018a600060058110610bcc57610bcb61154b565b5b602002015160ff1681525099505050505050505050505b919050565b610bf0610f44565b60005b60048160ff161015610cfb576000600182610c0e9190611516565b90505b60058160ff161015610ced57838160ff1660058110610c3357610c3261154b565b5b602002015160ff16848360ff1660058110610c5157610c5061154b565b5b602002015160ff161015610ce057838160ff1660058110610c7557610c7461154b565b5b6020020151848360ff1660058110610c9057610c8f61154b565b5b6020020151858460ff1660058110610cab57610caa61154b565b5b60200201868460ff1660058110610cc557610cc461154b565b5b602002018260ff1660ff168152508260ff1660ff1681525050505b8080600101915050610c11565b508080600101915050610bf3565b50819050919050565b610d0c610f95565b610d14610f95565b60005b60058160ff161015610e01576000600e858360ff1660058110610d3d57610d3c61154b565b5b602002015160ff1614610d76576001858360ff1660058110610d6257610d6161154b565b5b6020020151610d7191906115a3565b610d79565b60005b9050600d8160ff1610610dc1576040517f08c379a0000000000000000000000000000000000000000000000000000000008152600401610db890611758565b60405180910390fd5b828160ff16600d8110610dd757610dd661154b565b5b602002018051809190610de99061157a565b60ff1660ff1681525050508080600101915050610d17565b5080915050919050565b600080600190505b60058160ff161015610e755782600060058110610e3357610e3261154b565b5b602002015160ff16838260ff1660058110610e5157610e5061154b565b5b602002015160ff1614610e68576000915050610e7b565b8080600101915050610e13565b50600190505b919050565b6000600e82600060058110610e9857610e9761154b565b5b602002015160ff16148015610ec85750600d82600160058110610ebe57610ebd61154b565b5b602002015160ff16145b8015610eef5750600c82600260058110610ee557610ee461154b565b5b602002015160ff16145b8015610f165750600b82600360058110610f0c57610f0b61154b565b5b602002015160ff16145b8015610f3d5750600a82600460058110610f3357610f3261154b565b5b602002015160ff16145b9050919050565b6040518060a00160405280600590602082028036833780820191505090505090565b604051806040016040528060006009811115610f8557610f8461136b565b5b8152602001600060ff1681525090565b604051806101a00160405280600d90602082028036833780820191505090505090565b6000604051905090565b600080fd5b600080fd5b6000601f19601f8301169050919050565b7f4e487b7100000000000000000000000000000000000000000000000000000000600052604160045260246000fd5b61101582610fcc565b810181811067ffffffffffffffff8211171561103457611033610fdd565b5b80604052505050565b6000611047610fb8565b9050611053828261100c565b919050565b600067ffffffffffffffff82111561107357611072610fdd565b5b602082029050919050565b600080fd5b600060ff82169050919050565b61109981611083565b81146110a457600080fd5b50565b6000813590506110b681611090565b92915050565b60006110cf6110ca84611058565b61103d565b905080602084028301858111156110e9576110e861107e565b5b835b8181101561111257806110fe88826110a7565b8452602084019350506020810190506110eb565b5050509392505050565b600082601f83011261113157611130610fc7565b5b600761113e8482856110bc565b91505092915050565b600060e0828403121561115d5761115c610fc2565b5b600061116b8482850161111c565b91505092915050565b600060059050919050565b600081905092915050565b6000819050919050565b61119d81611083565b82525050565b60006111af8383611194565b60208301905092915050565b6000602082019050919050565b6111d181611174565b6111db818461117f565b92506111e68261118a565b8060005b838110156112175781516111fe87826111a3565b9650611209836111bb565b9250506001810190506111ea565b505050505050565b61122881611083565b82525050565b600060c08201905061124360008301856111c8565b61125060a083018461121f565b9392505050565b600067ffffffffffffffff82111561127257611271610fdd565b5b602082029050919050565b600061129061128b84611257565b61103d565b905080602084028301858111156112aa576112a961107e565b5b835b818110156112d357806112bf88826110a7565b8452602084019350506020810190506112ac565b5050509392505050565b600082601f8301126112f2576112f1610fc7565b5b60056112ff84828561127d565b91505092915050565b600060a0828403121561131e5761131d610fc2565b5b600061132c848285016112dd565b91505092915050565b60008115159050919050565b61134a81611335565b82525050565b60006020820190506113656000830184611341565b92915050565b7f4e487b7100000000000000000000000000000000000000000000000000000000600052602160045260246000fd5b600a81106113ab576113aa61136b565b5b50565b60008190506113bc8261139a565b919050565b60006113cc826113ae565b9050919050565b6113dc816113c1565b82525050565b6040820160008201516113f860008501826113d3565b50602082015161140b6020850182611194565b50505050565b600060408201905061142660008301846113e2565b92915050565b600060a08201905061144160008301846111c8565b92915050565b6000600d9050919050565b600081905092915050565b6000819050919050565b6000602082019050919050565b61147d81611447565b6114878184611452565b92506114928261145d565b8060005b838110156114c35781516114aa87826111a3565b96506114b583611467565b925050600181019050611496565b505050505050565b60006101a0820190506114e16000830184611474565b92915050565b7f4e487b7100000000000000000000000000000000000000000000000000000000600052601160045260246000fd5b600061152182611083565b915061152c83611083565b9250828201905060ff811115611545576115446114e7565b5b92915050565b7f4e487b7100000000000000000000000000000000000000000000000000000000600052603260045260246000fd5b600061158582611083565b915060ff8203611598576115976114e7565b5b600182019050919050565b60006115ae82611083565b91506115b983611083565b9250828203905060ff8111156115d2576115d16114e7565b5b92915050565b7f4e487b7100000000000000000000000000000000000000000000000000000000600052601260045260246000fd5b600061161282611083565b915061161d83611083565b92508261162d5761162c6115d8565b5b828206905092915050565b600061164382611083565b915061164e83611083565b92508261165e5761165d6115d8565b5b828204905092915050565b600082825260208201905092915050565b7f4572726f723a204475706c696361746520706169727320646574656374656421600082015250565b60006116b0602083611669565b91506116bb8261167a565b602082019050919050565b600060208201905081810360008301526116df816116a3565b9050919050565b7f636f756e7452616e6b733a2052616e6b20696e646578206f7574206f6620626f60008201527f756e647300000000000000000000000000000000000000000000000000000000602082015250565b6000611742602483611669565b915061174d826116e6565b604082019050919050565b6000602082019050818103600083015261177181611735565b905091905056fea2646970667358221220d30fd2ca35815a2144670efce46b5e3a0c446f5ef2320f99851ad456a8db230764736f6c63430008180033","opcodes":"PUSH2 0x17AE PUSH2 0x53 PUSH1 0xB DUP3 DUP3 DUP3 CODECOPY DUP1 MLOAD PUSH1 0x0 BYTE PUSH1 0x73 EQ PUSH2 0x46 JUMPI PUSH32 0x4E487B7100000000000000000000000000000000000000000000000000000000 PUSH1 0x0 MSTORE PUSH1 0x0 PUSH1 0x4 MSTORE PUSH1 0x24 PUSH1 0x0 REVERT JUMPDEST ADDRESS PUSH1 0x0 MSTORE PUSH1 0x73 DUP2 MSTORE8 DUP3 DUP2 RETURN INVALID PUSH20 0x0 ADDRESS EQ PUSH1 0x80 PUSH1 0x40 MSTORE PUSH1 0x4 CALLDATASIZE LT PUSH2 0x87 JUMPI PUSH1 0x0 CALLDATALOAD PUSH1 0xE0 SHR DUP1 PUSH4 0xB19654CA GT PUSH2 0x65 JUMPI DUP1 PUSH4 0xB19654CA EQ PUSH2 0x11D JUMPI DUP1 PUSH4 0xCC49A381 EQ PUSH2 0x14D JUMPI DUP1 PUSH4 0xDE6CD161 EQ PUSH2 0x17D JUMPI DUP1 PUSH4 0xFC04C4E5 EQ PUSH2 0x1AD JUMPI PUSH2 0x87 JUMP JUMPDEST DUP1 PUSH4 0xA685033 EQ PUSH2 0x8C JUMPI DUP1 PUSH4 0x2A73F714 EQ PUSH2 0xBD JUMPI DUP1 PUSH4 0x82E58F9E EQ PUSH2 0xED JUMPI JUMPDEST PUSH1 0x0 DUP1 REVERT JUMPDEST PUSH2 0xA6 PUSH1 0x4 DUP1 CALLDATASIZE SUB DUP2 ADD SWAP1 PUSH2 0xA1 SWAP2 SWAP1 PUSH2 0x1147 JUMP JUMPDEST PUSH2 0x1DD JUMP JUMPDEST PUSH1 0x40 MLOAD PUSH2 0xB4 SWAP3 SWAP2 SWAP1 PUSH2 0x122E JUMP JUMPDEST PUSH1 0x40 MLOAD DUP1 SWAP2 SUB SWAP1 RETURN JUMPDEST PUSH2 0xD7 PUSH1 0x4 DUP1 CALLDATASIZE SUB DUP2 ADD SWAP1 PUSH2 0xD2 SWAP2 SWAP1 PUSH2 0x1308 JUMP JUMPDEST PUSH2 0x3B7 JUMP JUMPDEST PUSH1 0x40 MLOAD PUSH2 0xE4 SWAP2 SWAP1 PUSH2 0x1350 JUMP JUMPDEST PUSH1 0x40 MLOAD DUP1 SWAP2 SUB SWAP1 RETURN JUMPDEST PUSH2 0x107 PUSH1 0x4 DUP1 CALLDATASIZE SUB DUP2 ADD SWAP1 PUSH2 0x102 SWAP2 SWAP1 PUSH2 0x1308 JUMP JUMPDEST PUSH2 0x50C JUMP JUMPDEST PUSH1 0x40 MLOAD PUSH2 0x114 SWAP2 SWAP1 PUSH2 0x1411 JUMP JUMPDEST PUSH1 0x40 MLOAD DUP1 SWAP2 SUB SWAP1 RETURN JUMPDEST PUSH2 0x137 PUSH1 0x4 DUP1 CALLDATASIZE SUB DUP2 ADD SWAP1 PUSH2 0x132 SWAP2 SWAP1 PUSH2 0x1308 JUMP JUMPDEST PUSH2 0xBE8 JUMP JUMPDEST PUSH1 0x40 MLOAD PUSH2 0x144 SWAP2 SWAP1 PUSH2 0x142C JUMP JUMPDEST PUSH1 0x40 MLOAD DUP1 SWAP2 SUB SWAP1 RETURN JUMPDEST PUSH2 0x167 PUSH1 0x4 DUP1 CALLDATASIZE SUB DUP2 ADD SWAP1 PUSH2 0x162 SWAP2 SWAP1 PUSH2 0x1308 JUMP JUMPDEST PUSH2 0xD04 JUMP JUMPDEST PUSH1 0x40 MLOAD PUSH2 0x174 SWAP2 SWAP1 PUSH2 0x14CB JUMP JUMPDEST PUSH1 0x40 MLOAD DUP1 SWAP2 SUB SWAP1 RETURN JUMPDEST PUSH2 0x197 PUSH1 0x4 DUP1 CALLDATASIZE SUB DUP2 ADD SWAP1 PUSH2 0x192 SWAP2 SWAP1 PUSH2 0x1308 JUMP JUMPDEST PUSH2 0xE0B JUMP JUMPDEST PUSH1 0x40 MLOAD PUSH2 0x1A4 SWAP2 SWAP1 PUSH2 0x1350 JUMP JUMPDEST PUSH1 0x40 MLOAD DUP1 SWAP2 SUB SWAP1 RETURN JUMPDEST PUSH2 0x1C7 PUSH1 0x4 DUP1 CALLDATASIZE SUB DUP2 ADD SWAP1 PUSH2 0x1C2 SWAP2 SWAP1 PUSH2 0x1308 JUMP JUMPDEST PUSH2 0xE80 JUMP JUMPDEST PUSH1 0x40 MLOAD PUSH2 0x1D4 SWAP2 SWAP1 PUSH2 0x1350 JUMP JUMPDEST PUSH1 0x40 MLOAD DUP1 SWAP2 SUB SWAP1 RETURN JUMPDEST PUSH2 0x1E5 PUSH2 0xF44 JUMP JUMPDEST PUSH1 0x0 DUP1 PUSH1 0x40 MLOAD DUP1 PUSH1 0x40 ADD PUSH1 0x40 MSTORE DUP1 PUSH1 0x0 PUSH1 0x9 DUP2 GT ISZERO PUSH2 0x207 JUMPI PUSH2 0x206 PUSH2 0x136B JUMP JUMPDEST JUMPDEST DUP2 MSTORE PUSH1 0x20 ADD PUSH1 0x0 PUSH1 0xFF AND DUP2 MSTORE POP SWAP1 POP PUSH1 0x0 JUMPDEST PUSH1 0x7 DUP2 PUSH1 0xFF AND LT ISZERO PUSH2 0x397 JUMPI PUSH1 0x0 PUSH1 0x1 DUP3 PUSH2 0x234 SWAP2 SWAP1 PUSH2 0x1516 JUMP JUMPDEST SWAP1 POP JUMPDEST PUSH1 0x7 DUP2 PUSH1 0xFF AND LT ISZERO PUSH2 0x389 JUMPI PUSH2 0x24B PUSH2 0xF44 JUMP JUMPDEST PUSH1 0x0 DUP1 JUMPDEST PUSH1 0x7 DUP2 PUSH1 0xFF AND LT ISZERO PUSH2 0x2DA JUMPI DUP5 PUSH1 0xFF AND DUP2 PUSH1 0xFF AND EQ ISZERO DUP1 ISZERO PUSH2 0x277 JUMPI POP DUP4 PUSH1 0xFF AND DUP2 PUSH1 0xFF AND EQ ISZERO JUMPDEST ISZERO PUSH2 0x2CD JUMPI DUP9 DUP2 PUSH1 0xFF AND PUSH1 0x7 DUP2 LT PUSH2 0x292 JUMPI PUSH2 0x291 PUSH2 0x154B JUMP JUMPDEST JUMPDEST PUSH1 0x20 MUL ADD MLOAD DUP4 DUP4 PUSH1 0xFF AND PUSH1 0x5 DUP2 LT PUSH2 0x2AD JUMPI PUSH2 0x2AC PUSH2 0x154B JUMP JUMPDEST JUMPDEST PUSH1 0x20 MUL ADD SWAP1 PUSH1 0xFF AND SWAP1 DUP2 PUSH1 0xFF AND DUP2 MSTORE POP POP DUP2 DUP1 PUSH2 0x2C9 SWAP1 PUSH2 0x157A JUMP JUMPDEST SWAP3 POP POP JUMPDEST DUP1 DUP1 PUSH1 0x1 ADD SWAP2 POP POP PUSH2 0x24F JUMP JUMPDEST POP PUSH1 0x0 PUSH2 0x2E6 DUP4 PUSH2 0x50C JUMP JUMPDEST SWAP1 POP DUP6 PUSH1 0x0 ADD MLOAD PUSH1 0x9 DUP2 GT ISZERO PUSH2 0x2FF JUMPI PUSH2 0x2FE PUSH2 0x136B JUMP JUMPDEST JUMPDEST DUP2 PUSH1 0x0 ADD MLOAD PUSH1 0x9 DUP2 GT ISZERO PUSH2 0x316 JUMPI PUSH2 0x315 PUSH2 0x136B JUMP JUMPDEST JUMPDEST GT ISZERO PUSH2 0x327 JUMPI DUP1 SWAP6 POP DUP3 SWAP8 POP PUSH2 0x379 JUMP JUMPDEST DUP6 PUSH1 0x0 ADD MLOAD PUSH1 0x9 DUP2 GT ISZERO PUSH2 0x33E JUMPI PUSH2 0x33D PUSH2 0x136B JUMP JUMPDEST JUMPDEST DUP2 PUSH1 0x0 ADD MLOAD PUSH1 0x9 DUP2 GT ISZERO PUSH2 0x355 JUMPI PUSH2 0x354 PUSH2 0x136B JUMP JUMPDEST JUMPDEST SUB PUSH2 0x378 JUMPI DUP6 PUSH1 0x20 ADD MLOAD PUSH1 0xFF AND DUP2 PUSH1 0x20 ADD MLOAD PUSH1 0xFF AND GT ISZERO PUSH2 0x377 JUMPI DUP1 SWAP6 POP DUP3 SWAP8 POP JUMPDEST JUMPDEST JUMPDEST POP POP POP DUP1 DUP1 PUSH1 0x1 ADD SWAP2 POP POP PUSH2 0x237 JUMP JUMPDEST POP DUP1 DUP1 PUSH1 0x1 ADD SWAP2 POP POP PUSH2 0x219 JUMP JUMPDEST POP DUP1 PUSH1 0x0 ADD MLOAD PUSH1 0x9 DUP2 GT ISZERO PUSH2 0x3AF JUMPI PUSH2 0x3AE PUSH2 0x136B JUMP JUMPDEST JUMPDEST SWAP2 POP POP SWAP2 POP SWAP2 JUMP JUMPDEST PUSH1 0x0 PUSH1 0xE DUP3 PUSH1 0x0 PUSH1 0x5 DUP2 LT PUSH2 0x3CF JUMPI PUSH2 0x3CE PUSH2 0x154B JUMP JUMPDEST JUMPDEST PUSH1 0x20 MUL ADD MLOAD PUSH1 0xFF AND EQ DUP1 ISZERO PUSH2 0x3FF JUMPI POP PUSH1 0x5 DUP3 PUSH1 0x1 PUSH1 0x5 DUP2 LT PUSH2 0x3F5 JUMPI PUSH2 0x3F4 PUSH2 0x154B JUMP JUMPDEST JUMPDEST PUSH1 0x20 MUL ADD MLOAD PUSH1 0xFF AND EQ JUMPDEST DUP1 ISZERO PUSH2 0x426 JUMPI POP PUSH1 0x4 DUP3 PUSH1 0x2 PUSH1 0x5 DUP2 LT PUSH2 0x41C JUMPI PUSH2 0x41B PUSH2 0x154B JUMP JUMPDEST JUMPDEST PUSH1 0x20 MUL ADD MLOAD PUSH1 0xFF AND EQ JUMPDEST DUP1 ISZERO PUSH2 0x44D JUMPI POP PUSH1 0x3 DUP3 PUSH1 0x3 PUSH1 0x5 DUP2 LT PUSH2 0x443 JUMPI PUSH2 0x442 PUSH2 0x154B JUMP JUMPDEST JUMPDEST PUSH1 0x20 MUL ADD MLOAD PUSH1 0xFF AND EQ JUMPDEST DUP1 ISZERO PUSH2 0x474 JUMPI POP PUSH1 0x2 DUP3 PUSH1 0x4 PUSH1 0x5 DUP2 LT PUSH2 0x46A JUMPI PUSH2 0x469 PUSH2 0x154B JUMP JUMPDEST JUMPDEST PUSH1 0x20 MUL ADD MLOAD PUSH1 0xFF AND EQ JUMPDEST ISZERO PUSH2 0x482 JUMPI PUSH1 0x1 SWAP1 POP PUSH2 0x507 JUMP JUMPDEST PUSH1 0x0 JUMPDEST PUSH1 0x4 DUP2 PUSH1 0xFF AND LT ISZERO PUSH2 0x501 JUMPI PUSH1 0x1 DUP4 PUSH1 0x1 DUP4 PUSH2 0x4A1 SWAP2 SWAP1 PUSH2 0x1516 JUMP JUMPDEST PUSH1 0xFF AND PUSH1 0x5 DUP2 LT PUSH2 0x4B5 JUMPI PUSH2 0x4B4 PUSH2 0x154B JUMP JUMPDEST JUMPDEST PUSH1 0x20 MUL ADD MLOAD PUSH2 0x4C4 SWAP2 SWAP1 PUSH2 0x1516 JUMP JUMPDEST PUSH1 0xFF AND DUP4 DUP3 PUSH1 0xFF AND PUSH1 0x5 DUP2 LT PUSH2 0x4DD JUMPI PUSH2 0x4DC PUSH2 0x154B JUMP JUMPDEST JUMPDEST PUSH1 0x20 MUL ADD MLOAD PUSH1 0xFF AND EQ PUSH2 0x4F4 JUMPI PUSH1 0x0 SWAP2 POP POP PUSH2 0x507 JUMP JUMPDEST DUP1 DUP1 PUSH1 0x1 ADD SWAP2 POP POP PUSH2 0x485 JUMP JUMPDEST POP PUSH1 0x1 SWAP1 POP JUMPDEST SWAP2 SWAP1 POP JUMP JUMPDEST PUSH2 0x514 PUSH2 0xF66 JUMP JUMPDEST PUSH2 0x51C PUSH2 0xF44 JUMP JUMPDEST PUSH2 0x524 PUSH2 0xF44 JUMP JUMPDEST PUSH1 0x0 JUMPDEST PUSH1 0x5 DUP2 PUSH1 0xFF AND LT ISZERO PUSH2 0x64F JUMPI PUSH1 0x1 PUSH1 0xD PUSH1 0x1 DUP8 DUP5 PUSH1 0xFF AND PUSH1 0x5 DUP2 LT PUSH2 0x54F JUMPI PUSH2 0x54E PUSH2 0x154B JUMP JUMPDEST JUMPDEST PUSH1 0x20 MUL ADD MLOAD PUSH2 0x55E SWAP2 SWAP1 PUSH2 0x15A3 JUMP JUMPDEST PUSH2 0x568 SWAP2 SWAP1 PUSH2 0x1607 JUMP JUMPDEST PUSH2 0x572 SWAP2 SWAP1 PUSH2 0x1516 JUMP JUMPDEST DUP4 DUP3 PUSH1 0xFF AND PUSH1 0x5 DUP2 LT PUSH2 0x588 JUMPI PUSH2 0x587 PUSH2 0x154B JUMP JUMPDEST JUMPDEST PUSH1 0x20 MUL ADD SWAP1 PUSH1 0xFF AND SWAP1 DUP2 PUSH1 0xFF AND DUP2 MSTORE POP POP PUSH1 0xD PUSH1 0x1 DUP7 DUP4 PUSH1 0xFF AND PUSH1 0x5 DUP2 LT PUSH2 0x5B3 JUMPI PUSH2 0x5B2 PUSH2 0x154B JUMP JUMPDEST JUMPDEST PUSH1 0x20 MUL ADD MLOAD PUSH2 0x5C2 SWAP2 SWAP1 PUSH2 0x15A3 JUMP JUMPDEST PUSH2 0x5CC SWAP2 SWAP1 PUSH2 0x1638 JUMP JUMPDEST DUP3 DUP3 PUSH1 0xFF AND PUSH1 0x5 DUP2 LT PUSH2 0x5E2 JUMPI PUSH2 0x5E1 PUSH2 0x154B JUMP JUMPDEST JUMPDEST PUSH1 0x20 MUL ADD SWAP1 PUSH1 0xFF AND SWAP1 DUP2 PUSH1 0xFF AND DUP2 MSTORE POP POP PUSH1 0x1 DUP4 DUP3 PUSH1 0xFF AND PUSH1 0x5 DUP2 LT PUSH2 0x60B JUMPI PUSH2 0x60A PUSH2 0x154B JUMP JUMPDEST JUMPDEST PUSH1 0x20 MUL ADD MLOAD PUSH1 0xFF AND SUB PUSH2 0x642 JUMPI PUSH1 0xE DUP4 DUP3 PUSH1 0xFF AND PUSH1 0x5 DUP2 LT PUSH2 0x630 JUMPI PUSH2 0x62F PUSH2 0x154B JUMP JUMPDEST JUMPDEST PUSH1 0x20 MUL ADD SWAP1 PUSH1 0xFF AND SWAP1 DUP2 PUSH1 0xFF AND DUP2 MSTORE POP POP JUMPDEST DUP1 DUP1 PUSH1 0x1 ADD SWAP2 POP POP PUSH2 0x527 JUMP JUMPDEST POP PUSH2 0x659 DUP3 PUSH2 0xBE8 JUMP JUMPDEST SWAP2 POP PUSH1 0x0 PUSH2 0x666 DUP4 PUSH2 0xD04 JUMP JUMPDEST SWAP1 POP PUSH1 0x0 DUP1 PUSH1 0x0 DUP1 PUSH2 0x677 DUP7 PUSH2 0xE0B JUMP JUMPDEST SWAP1 POP PUSH1 0x0 PUSH2 0x684 DUP9 PUSH2 0x3B7 JUMP JUMPDEST SWAP1 POP PUSH1 0x0 PUSH2 0x691 DUP10 PUSH2 0xE80 JUMP JUMPDEST SWAP1 POP DUP3 DUP1 ISZERO PUSH2 0x69D JUMPI POP DUP1 JUMPDEST ISZERO PUSH2 0x6F4 JUMPI PUSH1 0x40 MLOAD DUP1 PUSH1 0x40 ADD PUSH1 0x40 MSTORE DUP1 PUSH1 0x9 DUP1 DUP2 GT ISZERO PUSH2 0x6C0 JUMPI PUSH2 0x6BF PUSH2 0x136B JUMP JUMPDEST JUMPDEST DUP2 MSTORE PUSH1 0x20 ADD DUP11 PUSH1 0x0 PUSH1 0x5 DUP2 LT PUSH2 0x6D9 JUMPI PUSH2 0x6D8 PUSH2 0x154B JUMP JUMPDEST JUMPDEST PUSH1 0x20 MUL ADD MLOAD PUSH1 0xFF AND DUP2 MSTORE POP SWAP10 POP POP POP POP POP POP POP POP POP POP PUSH2 0xBE3 JUMP JUMPDEST DUP3 DUP1 ISZERO PUSH2 0x6FE JUMPI POP DUP2 JUMPDEST ISZERO PUSH2 0x756 JUMPI PUSH1 0x40 MLOAD DUP1 PUSH1 0x40 ADD PUSH1 0x40 MSTORE DUP1 PUSH1 0x8 PUSH1 0x9 DUP2 GT ISZERO PUSH2 0x722 JUMPI PUSH2 0x721 PUSH2 0x136B JUMP JUMPDEST JUMPDEST DUP2 MSTORE PUSH1 0x20 ADD DUP11 PUSH1 0x0 PUSH1 0x5 DUP2 LT PUSH2 0x73B JUMPI PUSH2 0x73A PUSH2 0x154B JUMP JUMPDEST JUMPDEST PUSH1 0x20 MUL ADD MLOAD PUSH1 0xFF AND DUP2 MSTORE POP SWAP10 POP POP POP POP POP POP POP POP POP POP PUSH2 0xBE3 JUMP JUMPDEST PUSH1 0x0 JUMPDEST PUSH1 0xD DUP2 PUSH1 0xFF AND LT ISZERO PUSH2 0x7DF JUMPI PUSH1 0x4 DUP9 DUP3 PUSH1 0xFF AND PUSH1 0xD DUP2 LT PUSH2 0x77D JUMPI PUSH2 0x77C PUSH2 0x154B JUMP JUMPDEST JUMPDEST PUSH1 0x20 MUL ADD MLOAD PUSH1 0xFF AND SUB PUSH2 0x7D2 JUMPI PUSH1 0x40 MLOAD DUP1 PUSH1 0x40 ADD PUSH1 0x40 MSTORE DUP1 PUSH1 0x7 PUSH1 0x9 DUP2 GT ISZERO PUSH2 0x7A9 JUMPI PUSH2 0x7A8 PUSH2 0x136B JUMP JUMPDEST JUMPDEST DUP2 MSTORE PUSH1 0x20 ADD PUSH1 0x1 DUP4 PUSH2 0x7BB SWAP2 SWAP1 PUSH2 0x1516 JUMP JUMPDEST PUSH1 0xFF AND DUP2 MSTORE POP SWAP11 POP POP POP POP POP POP POP POP POP POP POP PUSH2 0xBE3 JUMP JUMPDEST DUP1 DUP1 PUSH1 0x1 ADD SWAP2 POP POP PUSH2 0x759 JUMP JUMPDEST POP PUSH1 0x0 JUMPDEST PUSH1 0xD DUP2 PUSH1 0xFF AND LT ISZERO PUSH2 0x88B JUMPI PUSH1 0x3 DUP9 DUP3 PUSH1 0xFF AND PUSH1 0xD DUP2 LT PUSH2 0x807 JUMPI PUSH2 0x806 PUSH2 0x154B JUMP JUMPDEST JUMPDEST PUSH1 0x20 MUL ADD MLOAD PUSH1 0xFF AND SUB PUSH2 0x828 JUMPI PUSH1 0x1 DUP2 PUSH2 0x821 SWAP2 SWAP1 PUSH2 0x1516 JUMP JUMPDEST SWAP5 POP PUSH2 0x87E JUMP JUMPDEST PUSH1 0x2 DUP9 DUP3 PUSH1 0xFF AND PUSH1 0xD DUP2 LT PUSH2 0x840 JUMPI PUSH2 0x83F PUSH2 0x154B JUMP JUMPDEST JUMPDEST PUSH1 0x20 MUL ADD MLOAD PUSH1 0xFF AND SUB PUSH2 0x87D JUMPI PUSH1 0x0 DUP8 PUSH1 0xFF AND SUB PUSH2 0x86C JUMPI PUSH1 0x1 DUP2 PUSH2 0x865 SWAP2 SWAP1 PUSH2 0x1516 JUMP JUMPDEST SWAP7 POP PUSH2 0x87C JUMP JUMPDEST PUSH1 0x1 DUP2 PUSH2 0x879 SWAP2 SWAP1 PUSH2 0x1516 JUMP JUMPDEST SWAP6 POP JUMPDEST JUMPDEST JUMPDEST DUP1 DUP1 PUSH1 0x1 ADD SWAP2 POP POP PUSH2 0x7E3 JUMP JUMPDEST POP PUSH1 0x0 DUP5 PUSH1 0xFF AND GT DUP1 ISZERO PUSH2 0x8A2 JUMPI POP PUSH1 0x0 DUP7 PUSH1 0xFF AND GT JUMPDEST DUP1 ISZERO PUSH2 0x8B1 JUMPI POP PUSH1 0x0 DUP6 PUSH1 0xFF AND EQ JUMPDEST ISZERO PUSH2 0x8F1 JUMPI PUSH1 0x40 MLOAD DUP1 PUSH1 0x40 ADD PUSH1 0x40 MSTORE DUP1 PUSH1 0x6 PUSH1 0x9 DUP2 GT ISZERO PUSH2 0x8D5 JUMPI PUSH2 0x8D4 PUSH2 0x136B JUMP JUMPDEST JUMPDEST DUP2 MSTORE PUSH1 0x20 ADD DUP6 PUSH1 0xFF AND DUP2 MSTORE POP SWAP10 POP POP POP POP POP POP POP POP POP POP PUSH2 0xBE3 JUMP JUMPDEST DUP2 ISZERO PUSH2 0x94A JUMPI PUSH1 0x40 MLOAD DUP1 PUSH1 0x40 ADD PUSH1 0x40 MSTORE DUP1 PUSH1 0x4 PUSH1 0x9 DUP2 GT ISZERO PUSH2 0x916 JUMPI PUSH2 0x915 PUSH2 0x136B JUMP JUMPDEST JUMPDEST DUP2 MSTORE PUSH1 0x20 ADD DUP11 PUSH1 0x0 PUSH1 0x5 DUP2 LT PUSH2 0x92F JUMPI PUSH2 0x92E PUSH2 0x154B JUMP JUMPDEST JUMPDEST PUSH1 0x20 MUL ADD MLOAD PUSH1 0xFF AND DUP2 MSTORE POP SWAP10 POP POP POP POP POP POP POP POP POP POP PUSH2 0xBE3 JUMP JUMPDEST DUP3 ISZERO PUSH2 0x9A3 JUMPI PUSH1 0x40 MLOAD DUP1 PUSH1 0x40 ADD PUSH1 0x40 MSTORE DUP1 PUSH1 0x5 PUSH1 0x9 DUP2 GT ISZERO PUSH2 0x96F JUMPI PUSH2 0x96E PUSH2 0x136B JUMP JUMPDEST JUMPDEST DUP2 MSTORE PUSH1 0x20 ADD DUP11 PUSH1 0x0 PUSH1 0x5 DUP2 LT PUSH2 0x988 JUMPI PUSH2 0x987 PUSH2 0x154B JUMP JUMPDEST JUMPDEST PUSH1 0x20 MUL ADD MLOAD PUSH1 0xFF AND DUP2 MSTORE POP SWAP10 POP POP POP POP POP POP POP POP POP POP PUSH2 0xBE3 JUMP JUMPDEST PUSH1 0x0 DUP5 PUSH1 0xFF AND GT ISZERO PUSH2 0x9EA JUMPI PUSH1 0x40 MLOAD DUP1 PUSH1 0x40 ADD PUSH1 0x40 MSTORE DUP1 PUSH1 0x3 PUSH1 0x9 DUP2 GT ISZERO PUSH2 0x9CE JUMPI PUSH2 0x9CD PUSH2 0x136B JUMP JUMPDEST JUMPDEST DUP2 MSTORE PUSH1 0x20 ADD DUP6 PUSH1 0xFF AND DUP2 MSTORE POP SWAP10 POP POP POP POP POP POP POP POP POP POP PUSH2 0xBE3 JUMP JUMPDEST PUSH1 0x0 DUP7 PUSH1 0xFF AND GT DUP1 ISZERO PUSH2 0xA00 JUMPI POP PUSH1 0x0 DUP6 PUSH1 0xFF AND GT JUMPDEST ISZERO PUSH2 0xA9C JUMPI DUP5 PUSH1 0xFF AND DUP7 PUSH1 0xFF AND SUB PUSH2 0xA4D JUMPI PUSH1 0x40 MLOAD PUSH32 0x8C379A000000000000000000000000000000000000000000000000000000000 DUP2 MSTORE PUSH1 0x4 ADD PUSH2 0xA44 SWAP1 PUSH2 0x16C6 JUMP JUMPDEST PUSH1 0x40 MLOAD DUP1 SWAP2 SUB SWAP1 REVERT JUMPDEST PUSH1 0x40 MLOAD DUP1 PUSH1 0x40 ADD PUSH1 0x40 MSTORE DUP1 PUSH1 0x2 PUSH1 0x9 DUP2 GT ISZERO PUSH2 0xA6C JUMPI PUSH2 0xA6B PUSH2 0x136B JUMP JUMPDEST JUMPDEST DUP2 MSTORE PUSH1 0x20 ADD DUP7 PUSH1 0xFF AND DUP9 PUSH1 0xFF AND GT PUSH2 0xA84 JUMPI DUP7 PUSH2 0xA86 JUMP JUMPDEST DUP8 JUMPDEST PUSH1 0xFF AND DUP2 MSTORE POP SWAP10 POP POP POP POP POP POP POP POP POP POP PUSH2 0xBE3 JUMP JUMPDEST PUSH1 0x0 DUP7 PUSH1 0xFF AND GT ISZERO PUSH2 0xAE3 JUMPI PUSH1 0x40 MLOAD DUP1 PUSH1 0x40 ADD PUSH1 0x40 MSTORE DUP1 PUSH1 0x1 PUSH1 0x9 DUP2 GT ISZERO PUSH2 0xAC7 JUMPI PUSH2 0xAC6 PUSH2 0x136B JUMP JUMPDEST JUMPDEST DUP2 MSTORE PUSH1 0x20 ADD DUP8 PUSH1 0xFF AND DUP2 MSTORE POP SWAP10 POP POP POP POP POP POP POP POP POP POP PUSH2 0xBE3 JUMP JUMPDEST PUSH1 0x0 DUP7 PUSH1 0xFF AND GT DUP1 ISZERO PUSH2 0xAF9 JUMPI POP PUSH1 0x0 DUP6 PUSH1 0xFF AND GT JUMPDEST ISZERO PUSH2 0xB4D JUMPI PUSH1 0x40 MLOAD DUP1 PUSH1 0x40 ADD PUSH1 0x40 MSTORE DUP1 PUSH1 0x2 PUSH1 0x9 DUP2 GT ISZERO PUSH2 0xB1D JUMPI PUSH2 0xB1C PUSH2 0x136B JUMP JUMPDEST JUMPDEST DUP2 MSTORE PUSH1 0x20 ADD DUP7 PUSH1 0xFF AND DUP9 PUSH1 0xFF AND GT PUSH2 0xB35 JUMPI DUP7 PUSH2 0xB37 JUMP JUMPDEST DUP8 JUMPDEST PUSH1 0xFF AND DUP2 MSTORE POP SWAP10 POP POP POP POP POP POP POP POP POP POP PUSH2 0xBE3 JUMP JUMPDEST PUSH1 0x0 DUP7 PUSH1 0xFF AND GT ISZERO PUSH2 0xB94 JUMPI PUSH1 0x40 MLOAD DUP1 PUSH1 0x40 ADD PUSH1 0x40 MSTORE DUP1 PUSH1 0x1 PUSH1 0x9 DUP2 GT ISZERO PUSH2 0xB78 JUMPI PUSH2 0xB77 PUSH2 0x136B JUMP JUMPDEST JUMPDEST DUP2 MSTORE PUSH1 0x20 ADD DUP8 PUSH1 0xFF AND DUP2 MSTORE POP SWAP10 POP POP POP POP POP POP POP POP POP POP PUSH2 0xBE3 JUMP JUMPDEST PUSH1 0x40 MLOAD DUP1 PUSH1 0x40 ADD PUSH1 0x40 MSTORE DUP1 PUSH1 0x0 PUSH1 0x9 DUP2 GT ISZERO PUSH2 0xBB3 JUMPI PUSH2 0xBB2 PUSH2 0x136B JUMP JUMPDEST JUMPDEST DUP2 MSTORE PUSH1 0x20 ADD DUP11 PUSH1 0x0 PUSH1 0x5 DUP2 LT PUSH2 0xBCC JUMPI PUSH2 0xBCB PUSH2 0x154B JUMP JUMPDEST JUMPDEST PUSH1 0x20 MUL ADD MLOAD PUSH1 0xFF AND DUP2 MSTORE POP SWAP10 POP POP POP POP POP POP POP POP POP POP JUMPDEST SWAP2 SWAP1 POP JUMP JUMPDEST PUSH2 0xBF0 PUSH2 0xF44 JUMP JUMPDEST PUSH1 0x0 JUMPDEST PUSH1 0x4 DUP2 PUSH1 0xFF AND LT ISZERO PUSH2 0xCFB JUMPI PUSH1 0x0 PUSH1 0x1 DUP3 PUSH2 0xC0E SWAP2 SWAP1 PUSH2 0x1516 JUMP JUMPDEST SWAP1 POP JUMPDEST PUSH1 0x5 DUP2 PUSH1 0xFF AND LT ISZERO PUSH2 0xCED JUMPI DUP4 DUP2 PUSH1 0xFF AND PUSH1 0x5 DUP2 LT PUSH2 0xC33 JUMPI PUSH2 0xC32 PUSH2 0x154B JUMP JUMPDEST JUMPDEST PUSH1 0x20 MUL ADD MLOAD PUSH1 0xFF AND DUP5 DUP4 PUSH1 0xFF AND PUSH1 0x5 DUP2 LT PUSH2 0xC51 JUMPI PUSH2 0xC50 PUSH2 0x154B JUMP JUMPDEST JUMPDEST PUSH1 0x20 MUL ADD MLOAD PUSH1 0xFF AND LT ISZERO PUSH2 0xCE0 JUMPI DUP4 DUP2 PUSH1 0xFF AND PUSH1 0x5 DUP2 LT PUSH2 0xC75 JUMPI PUSH2 0xC74 PUSH2 0x154B JUMP JUMPDEST JUMPDEST PUSH1 0x20 MUL ADD MLOAD DUP5 DUP4 PUSH1 0xFF AND PUSH1 0x5 DUP2 LT PUSH2 0xC90 JUMPI PUSH2 0xC8F PUSH2 0x154B JUMP JUMPDEST JUMPDEST PUSH1 0x20 MUL ADD MLOAD DUP6 DUP5 PUSH1 0xFF AND PUSH1 0x5 DUP2 LT PUSH2 0xCAB JUMPI PUSH2 0xCAA PUSH2 0x154B JUMP JUMPDEST JUMPDEST PUSH1 0x20 MUL ADD DUP7 DUP5 PUSH1 0xFF AND PUSH1 0x5 DUP2 LT PUSH2 0xCC5 JUMPI PUSH2 0xCC4 PUSH2 0x154B JUMP JUMPDEST JUMPDEST PUSH1 0x20 MUL ADD DUP3 PUSH1 0xFF AND PUSH1 0xFF AND DUP2 MSTORE POP DUP3 PUSH1 0xFF AND PUSH1 0xFF AND DUP2 MSTORE POP POP POP JUMPDEST DUP1 DUP1 PUSH1 0x1 ADD SWAP2 POP POP PUSH2 0xC11 JUMP JUMPDEST POP DUP1 DUP1 PUSH1 0x1 ADD SWAP2 POP POP PUSH2 0xBF3 JUMP JUMPDEST POP DUP2 SWAP1 POP SWAP2 SWAP1 POP JUMP JUMPDEST PUSH2 0xD0C PUSH2 0xF95 JUMP JUMPDEST PUSH2 0xD14 PUSH2 0xF95 JUMP JUMPDEST PUSH1 0x0 JUMPDEST PUSH1 0x5 DUP2 PUSH1 0xFF AND LT ISZERO PUSH2 0xE01 JUMPI PUSH1 0x0 PUSH1 0xE DUP6 DUP4 PUSH1 0xFF AND PUSH1 0x5 DUP2 LT PUSH2 0xD3D JUMPI PUSH2 0xD3C PUSH2 0x154B JUMP JUMPDEST JUMPDEST PUSH1 0x20 MUL ADD MLOAD PUSH1 0xFF AND EQ PUSH2 0xD76 JUMPI PUSH1 0x1 DUP6 DUP4 PUSH1 0xFF AND PUSH1 0x5 DUP2 LT PUSH2 0xD62 JUMPI PUSH2 0xD61 PUSH2 0x154B JUMP JUMPDEST JUMPDEST PUSH1 0x20 MUL ADD MLOAD PUSH2 0xD71 SWAP2 SWAP1 PUSH2 0x15A3 JUMP JUMPDEST PUSH2 0xD79 JUMP JUMPDEST PUSH1 0x0 JUMPDEST SWAP1 POP PUSH1 0xD DUP2 PUSH1 0xFF AND LT PUSH2 0xDC1 JUMPI PUSH1 0x40 MLOAD PUSH32 0x8C379A000000000000000000000000000000000000000000000000000000000 DUP2 MSTORE PUSH1 0x4 ADD PUSH2 0xDB8 SWAP1 PUSH2 0x1758 JUMP JUMPDEST PUSH1 0x40 MLOAD DUP1 SWAP2 SUB SWAP1 REVERT JUMPDEST DUP3 DUP2 PUSH1 0xFF AND PUSH1 0xD DUP2 LT PUSH2 0xDD7 JUMPI PUSH2 0xDD6 PUSH2 0x154B JUMP JUMPDEST JUMPDEST PUSH1 0x20 MUL ADD DUP1 MLOAD DUP1 SWAP2 SWAP1 PUSH2 0xDE9 SWAP1 PUSH2 0x157A JUMP JUMPDEST PUSH1 0xFF AND PUSH1 0xFF AND DUP2 MSTORE POP POP POP DUP1 DUP1 PUSH1 0x1 ADD SWAP2 POP POP PUSH2 0xD17 JUMP JUMPDEST POP DUP1 SWAP2 POP POP SWAP2 SWAP1 POP JUMP JUMPDEST PUSH1 0x0 DUP1 PUSH1 0x1 SWAP1 POP JUMPDEST PUSH1 0x5 DUP2 PUSH1 0xFF AND LT ISZERO PUSH2 0xE75 JUMPI DUP3 PUSH1 0x0 PUSH1 0x5 DUP2 LT PUSH2 0xE33 JUMPI PUSH2 0xE32 PUSH2 0x154B JUMP JUMPDEST JUMPDEST PUSH1 0x20 MUL ADD MLOAD PUSH1 0xFF AND DUP4 DUP3 PUSH1 0xFF AND PUSH1 0x5 DUP2 LT PUSH2 0xE51 JUMPI PUSH2 0xE50 PUSH2 0x154B JUMP JUMPDEST JUMPDEST PUSH1 0x20 MUL ADD MLOAD PUSH1 0xFF AND EQ PUSH2 0xE68 JUMPI PUSH1 0x0 SWAP2 POP POP PUSH2 0xE7B JUMP JUMPDEST DUP1 DUP1 PUSH1 0x1 ADD SWAP2 POP POP PUSH2 0xE13 JUMP JUMPDEST POP PUSH1 0x1 SWAP1 POP JUMPDEST SWAP2 SWAP1 POP JUMP JUMPDEST PUSH1 0x0 PUSH1 0xE DUP3 PUSH1 0x0 PUSH1 0x5 DUP2 LT PUSH2 0xE98 JUMPI PUSH2 0xE97 PUSH2 0x154B JUMP JUMPDEST JUMPDEST PUSH1 0x20 MUL ADD MLOAD PUSH1 0xFF AND EQ DUP1 ISZERO PUSH2 0xEC8 JUMPI POP PUSH1 0xD DUP3 PUSH1 0x1 PUSH1 0x5 DUP2 LT PUSH2 0xEBE JUMPI PUSH2 0xEBD PUSH2 0x154B JUMP JUMPDEST JUMPDEST PUSH1 0x20 MUL ADD MLOAD PUSH1 0xFF AND EQ JUMPDEST DUP1 ISZERO PUSH2 0xEEF JUMPI POP PUSH1 0xC DUP3 PUSH1 0x2 PUSH1 0x5 DUP2 LT PUSH2 0xEE5 JUMPI PUSH2 0xEE4 PUSH2 0x154B JUMP JUMPDEST JUMPDEST PUSH1 0x20 MUL ADD MLOAD PUSH1 0xFF AND EQ JUMPDEST DUP1 ISZERO PUSH2 0xF16 JUMPI POP PUSH1 0xB DUP3 PUSH1 0x3 PUSH1 0x5 DUP2 LT PUSH2 0xF0C JUMPI PUSH2 0xF0B PUSH2 0x154B JUMP JUMPDEST JUMPDEST PUSH1 0x20 MUL ADD MLOAD PUSH1 0xFF AND EQ JUMPDEST DUP1 ISZERO PUSH2 0xF3D JUMPI POP PUSH1 0xA DUP3 PUSH1 0x4 PUSH1 0x5 DUP2 LT PUSH2 0xF33 JUMPI PUSH2 0xF32 PUSH2 0x154B JUMP JUMPDEST JUMPDEST PUSH1 0x20 MUL ADD MLOAD PUSH1 0xFF AND EQ JUMPDEST SWAP1 POP SWAP2 SWAP1 POP JUMP JUMPDEST PUSH1 0x40 MLOAD DUP1 PUSH1 0xA0 ADD PUSH1 0x40 MSTORE DUP1 PUSH1 0x5 SWAP1 PUSH1 0x20 DUP3 MUL DUP1 CALLDATASIZE DUP4 CALLDATACOPY DUP1 DUP3 ADD SWAP2 POP POP SWAP1 POP POP SWAP1 JUMP JUMPDEST PUSH1 0x40 MLOAD DUP1 PUSH1 0x40 ADD PUSH1 0x40 MSTORE DUP1 PUSH1 0x0 PUSH1 0x9 DUP2 GT ISZERO PUSH2 0xF85 JUMPI PUSH2 0xF84 PUSH2 0x136B JUMP JUMPDEST JUMPDEST DUP2 MSTORE PUSH1 0x20 ADD PUSH1 0x0 PUSH1 0xFF AND DUP2 MSTORE POP SWAP1 JUMP JUMPDEST PUSH1 0x40 MLOAD DUP1 PUSH2 0x1A0 ADD PUSH1 0x40 MSTORE DUP1 PUSH1 0xD SWAP1 PUSH1 0x20 DUP3 MUL DUP1 CALLDATASIZE DUP4 CALLDATACOPY DUP1 DUP3 ADD SWAP2 POP POP SWAP1 POP POP SWAP1 JUMP JUMPDEST PUSH1 0x0 PUSH1 0x40 MLOAD SWAP1 POP SWAP1 JUMP JUMPDEST PUSH1 0x0 DUP1 REVERT JUMPDEST PUSH1 0x0 DUP1 REVERT JUMPDEST PUSH1 0x0 PUSH1 0x1F NOT PUSH1 0x1F DUP4 ADD AND SWAP1 POP SWAP2 SWAP1 POP JUMP JUMPDEST PUSH32 0x4E487B7100000000000000000000000000000000000000000000000000000000 PUSH1 0x0 MSTORE PUSH1 0x41 PUSH1 0x4 MSTORE PUSH1 0x24 PUSH1 0x0 REVERT JUMPDEST PUSH2 0x1015 DUP3 PUSH2 0xFCC JUMP JUMPDEST DUP2 ADD DUP2 DUP2 LT PUSH8 0xFFFFFFFFFFFFFFFF DUP3 GT OR ISZERO PUSH2 0x1034 JUMPI PUSH2 0x1033 PUSH2 0xFDD JUMP JUMPDEST JUMPDEST DUP1 PUSH1 0x40 MSTORE POP POP POP JUMP JUMPDEST PUSH1 0x0 PUSH2 0x1047 PUSH2 0xFB8 JUMP JUMPDEST SWAP1 POP PUSH2 0x1053 DUP3 DUP3 PUSH2 0x100C JUMP JUMPDEST SWAP2 SWAP1 POP JUMP JUMPDEST PUSH1 0x0 PUSH8 0xFFFFFFFFFFFFFFFF DUP3 GT ISZERO PUSH2 0x1073 JUMPI PUSH2 0x1072 PUSH2 0xFDD JUMP JUMPDEST JUMPDEST PUSH1 0x20 DUP3 MUL SWAP1 POP SWAP2 SWAP1 POP JUMP JUMPDEST PUSH1 0x0 DUP1 REVERT JUMPDEST PUSH1 0x0 PUSH1 0xFF DUP3 AND SWAP1 POP SWAP2 SWAP1 POP JUMP JUMPDEST PUSH2 0x1099 DUP2 PUSH2 0x1083 JUMP JUMPDEST DUP2 EQ PUSH2 0x10A4 JUMPI PUSH1 0x0 DUP1 REVERT JUMPDEST POP JUMP JUMPDEST PUSH1 0x0 DUP2 CALLDATALOAD SWAP1 POP PUSH2 0x10B6 DUP2 PUSH2 0x1090 JUMP JUMPDEST SWAP3 SWAP2 POP POP JUMP JUMPDEST PUSH1 0x0 PUSH2 0x10CF PUSH2 0x10CA DUP5 PUSH2 0x1058 JUMP JUMPDEST PUSH2 0x103D JUMP JUMPDEST SWAP1 POP DUP1 PUSH1 0x20 DUP5 MUL DUP4 ADD DUP6 DUP2 GT ISZERO PUSH2 0x10E9 JUMPI PUSH2 0x10E8 PUSH2 0x107E JUMP JUMPDEST JUMPDEST DUP4 JUMPDEST DUP2 DUP2 LT ISZERO PUSH2 0x1112 JUMPI DUP1 PUSH2 0x10FE DUP9 DUP3 PUSH2 0x10A7 JUMP JUMPDEST DUP5 MSTORE PUSH1 0x20 DUP5 ADD SWAP4 POP POP PUSH1 0x20 DUP2 ADD SWAP1 POP PUSH2 0x10EB JUMP JUMPDEST POP POP POP SWAP4 SWAP3 POP POP POP JUMP JUMPDEST PUSH1 0x0 DUP3 PUSH1 0x1F DUP4 ADD SLT PUSH2 0x1131 JUMPI PUSH2 0x1130 PUSH2 0xFC7 JUMP JUMPDEST JUMPDEST PUSH1 0x7 PUSH2 0x113E DUP5 DUP3 DUP6 PUSH2 0x10BC JUMP JUMPDEST SWAP2 POP POP SWAP3 SWAP2 POP POP JUMP JUMPDEST PUSH1 0x0 PUSH1 0xE0 DUP3 DUP5 SUB SLT ISZERO PUSH2 0x115D JUMPI PUSH2 0x115C PUSH2 0xFC2 JUMP JUMPDEST JUMPDEST PUSH1 0x0 PUSH2 0x116B DUP5 DUP3 DUP6 ADD PUSH2 0x111C JUMP JUMPDEST SWAP2 POP POP SWAP3 SWAP2 POP POP JUMP JUMPDEST PUSH1 0x0 PUSH1 0x5 SWAP1 POP SWAP2 SWAP1 POP JUMP JUMPDEST PUSH1 0x0 DUP2 SWAP1 POP SWAP3 SWAP2 POP POP JUMP JUMPDEST PUSH1 0x0 DUP2 SWAP1 POP SWAP2 SWAP1 POP JUMP JUMPDEST PUSH2 0x119D DUP2 PUSH2 0x1083 JUMP JUMPDEST DUP3 MSTORE POP POP JUMP JUMPDEST PUSH1 0x0 PUSH2 0x11AF DUP4 DUP4 PUSH2 0x1194 JUMP JUMPDEST PUSH1 0x20 DUP4 ADD SWAP1 POP SWAP3 SWAP2 POP POP JUMP JUMPDEST PUSH1 0x0 PUSH1 0x20 DUP3 ADD SWAP1 POP SWAP2 SWAP1 POP JUMP JUMPDEST PUSH2 0x11D1 DUP2 PUSH2 0x1174 JUMP JUMPDEST PUSH2 0x11DB DUP2 DUP5 PUSH2 0x117F JUMP JUMPDEST SWAP3 POP PUSH2 0x11E6 DUP3 PUSH2 0x118A JUMP JUMPDEST DUP1 PUSH1 0x0 JUMPDEST DUP4 DUP2 LT ISZERO PUSH2 0x1217 JUMPI DUP2 MLOAD PUSH2 0x11FE DUP8 DUP3 PUSH2 0x11A3 JUMP JUMPDEST SWAP7 POP PUSH2 0x1209 DUP4 PUSH2 0x11BB JUMP JUMPDEST SWAP3 POP POP PUSH1 0x1 DUP2 ADD SWAP1 POP PUSH2 0x11EA JUMP JUMPDEST POP POP POP POP POP POP JUMP JUMPDEST PUSH2 0x1228 DUP2 PUSH2 0x1083 JUMP JUMPDEST DUP3 MSTORE POP POP JUMP JUMPDEST PUSH1 0x0 PUSH1 0xC0 DUP3 ADD SWAP1 POP PUSH2 0x1243 PUSH1 0x0 DUP4 ADD DUP6 PUSH2 0x11C8 JUMP JUMPDEST PUSH2 0x1250 PUSH1 0xA0 DUP4 ADD DUP5 PUSH2 0x121F JUMP JUMPDEST SWAP4 SWAP3 POP POP POP JUMP JUMPDEST PUSH1 0x0 PUSH8 0xFFFFFFFFFFFFFFFF DUP3 GT ISZERO PUSH2 0x1272 JUMPI PUSH2 0x1271 PUSH2 0xFDD JUMP JUMPDEST JUMPDEST PUSH1 0x20 DUP3 MUL SWAP1 POP SWAP2 SWAP1 POP JUMP JUMPDEST PUSH1 0x0 PUSH2 0x1290 PUSH2 0x128B DUP5 PUSH2 0x1257 JUMP JUMPDEST PUSH2 0x103D JUMP JUMPDEST SWAP1 POP DUP1 PUSH1 0x20 DUP5 MUL DUP4 ADD DUP6 DUP2 GT ISZERO PUSH2 0x12AA JUMPI PUSH2 0x12A9 PUSH2 0x107E JUMP JUMPDEST JUMPDEST DUP4 JUMPDEST DUP2 DUP2 LT ISZERO PUSH2 0x12D3 JUMPI DUP1 PUSH2 0x12BF DUP9 DUP3 PUSH2 0x10A7 JUMP JUMPDEST DUP5 MSTORE PUSH1 0x20 DUP5 ADD SWAP4 POP POP PUSH1 0x20 DUP2 ADD SWAP1 POP PUSH2 0x12AC JUMP JUMPDEST POP POP POP SWAP4 SWAP3 POP POP POP JUMP JUMPDEST PUSH1 0x0 DUP3 PUSH1 0x1F DUP4 ADD SLT PUSH2 0x12F2 JUMPI PUSH2 0x12F1 PUSH2 0xFC7 JUMP JUMPDEST JUMPDEST PUSH1 0x5 PUSH2 0x12FF DUP5 DUP3 DUP6 PUSH2 0x127D JUMP JUMPDEST SWAP2 POP POP SWAP3 SWAP2 POP POP JUMP JUMPDEST PUSH1 0x0 PUSH1 0xA0 DUP3 DUP5 SUB SLT ISZERO PUSH2 0x131E JUMPI PUSH2 0x131D PUSH2 0xFC2 JUMP JUMPDEST JUMPDEST PUSH1 0x0 PUSH2 0x132C DUP5 DUP3 DUP6 ADD PUSH2 0x12DD JUMP JUMPDEST SWAP2 POP POP SWAP3 SWAP2 POP POP JUMP JUMPDEST PUSH1 0x0 DUP2 ISZERO ISZERO SWAP1 POP SWAP2 SWAP1 POP JUMP JUMPDEST PUSH2 0x134A DUP2 PUSH2 0x1335 JUMP JUMPDEST DUP3 MSTORE POP POP JUMP JUMPDEST PUSH1 0x0 PUSH1 0x20 DUP3 ADD SWAP1 POP PUSH2 0x1365 PUSH1 0x0 DUP4 ADD DUP5 PUSH2 0x1341 JUMP JUMPDEST SWAP3 SWAP2 POP POP JUMP JUMPDEST PUSH32 0x4E487B7100000000000000000000000000000000000000000000000000000000 PUSH1 0x0 MSTORE PUSH1 0x21 PUSH1 0x4 MSTORE PUSH1 0x24 PUSH1 0x0 REVERT JUMPDEST PUSH1 0xA DUP2 LT PUSH2 0x13AB JUMPI PUSH2 0x13AA PUSH2 0x136B JUMP JUMPDEST JUMPDEST POP JUMP JUMPDEST PUSH1 0x0 DUP2 SWAP1 POP PUSH2 0x13BC DUP3 PUSH2 0x139A JUMP JUMPDEST SWAP2 SWAP1 POP JUMP JUMPDEST PUSH1 0x0 PUSH2 0x13CC DUP3 PUSH2 0x13AE JUMP JUMPDEST SWAP1 POP SWAP2 SWAP1 POP JUMP JUMPDEST PUSH2 0x13DC DUP2 PUSH2 0x13C1 JUMP JUMPDEST DUP3 MSTORE POP POP JUMP JUMPDEST PUSH1 0x40 DUP3 ADD PUSH1 0x0 DUP3 ADD MLOAD PUSH2 0x13F8 PUSH1 0x0 DUP6 ADD DUP3 PUSH2 0x13D3 JUMP JUMPDEST POP PUSH1 0x20 DUP3 ADD MLOAD PUSH2 0x140B PUSH1 0x20 DUP6 ADD DUP3 PUSH2 0x1194 JUMP JUMPDEST POP POP POP POP JUMP JUMPDEST PUSH1 0x0 PUSH1 0x40 DUP3 ADD SWAP1 POP PUSH2 0x1426 PUSH1 0x0 DUP4 ADD DUP5 PUSH2 0x13E2 JUMP JUMPDEST SWAP3 SWAP2 POP POP JUMP JUMPDEST PUSH1 0x0 PUSH1 0xA0 DUP3 ADD SWAP1 POP PUSH2 0x1441 PUSH1 0x0 DUP4 ADD DUP5 PUSH2 0x11C8 JUMP JUMPDEST SWAP3 SWAP2 POP POP JUMP JUMPDEST PUSH1 0x0 PUSH1 0xD SWAP1 POP SWAP2 SWAP1 POP JUMP JUMPDEST PUSH1 0x0 DUP2 SWAP1 POP SWAP3 SWAP2 POP POP JUMP JUMPDEST PUSH1 0x0 DUP2 SWAP1 POP SWAP2 SWAP1 POP JUMP JUMPDEST PUSH1 0x0 PUSH1 0x20 DUP3 ADD SWAP1 POP SWAP2 SWAP1 POP JUMP JUMPDEST PUSH2 0x147D DUP2 PUSH2 0x1447 JUMP JUMPDEST PUSH2 0x1487 DUP2 DUP5 PUSH2 0x1452 JUMP JUMPDEST SWAP3 POP PUSH2 0x1492 DUP3 PUSH2 0x145D JUMP JUMPDEST DUP1 PUSH1 0x0 JUMPDEST DUP4 DUP2 LT ISZERO PUSH2 0x14C3 JUMPI DUP2 MLOAD PUSH2 0x14AA DUP8 DUP3 PUSH2 0x11A3 JUMP JUMPDEST SWAP7 POP PUSH2 0x14B5 DUP4 PUSH2 0x1467 JUMP JUMPDEST SWAP3 POP POP PUSH1 0x1 DUP2 ADD SWAP1 POP PUSH2 0x1496 JUMP JUMPDEST POP POP POP POP POP POP JUMP JUMPDEST PUSH1 0x0 PUSH2 0x1A0 DUP3 ADD SWAP1 POP PUSH2 0x14E1 PUSH1 0x0 DUP4 ADD DUP5 PUSH2 0x1474 JUMP JUMPDEST SWAP3 SWAP2 POP POP JUMP JUMPDEST PUSH32 0x4E487B7100000000000000000000000000000000000000000000000000000000 PUSH1 0x0 MSTORE PUSH1 0x11 PUSH1 0x4 MSTORE PUSH1 0x24 PUSH1 0x0 REVERT JUMPDEST PUSH1 0x0 PUSH2 0x1521 DUP3 PUSH2 0x1083 JUMP JUMPDEST SWAP2 POP PUSH2 0x152C DUP4 PUSH2 0x1083 JUMP JUMPDEST SWAP3 POP DUP3 DUP3 ADD SWAP1 POP PUSH1 0xFF DUP2 GT ISZERO PUSH2 0x1545 JUMPI PUSH2 0x1544 PUSH2 0x14E7 JUMP JUMPDEST JUMPDEST SWAP3 SWAP2 POP POP JUMP JUMPDEST PUSH32 0x4E487B7100000000000000000000000000000000000000000000000000000000 PUSH1 0x0 MSTORE PUSH1 0x32 PUSH1 0x4 MSTORE PUSH1 0x24 PUSH1 0x0 REVERT JUMPDEST PUSH1 0x0 PUSH2 0x1585 DUP3 PUSH2 0x1083 JUMP JUMPDEST SWAP2 POP PUSH1 0xFF DUP3 SUB PUSH2 0x1598 JUMPI PUSH2 0x1597 PUSH2 0x14E7 JUMP JUMPDEST JUMPDEST PUSH1 0x1 DUP3 ADD SWAP1 POP SWAP2 SWAP1 POP JUMP JUMPDEST PUSH1 0x0 PUSH2 0x15AE DUP3 PUSH2 0x1083 JUMP JUMPDEST SWAP2 POP PUSH2 0x15B9 DUP4 PUSH2 0x1083 JUMP JUMPDEST SWAP3 POP DUP3 DUP3 SUB SWAP1 POP PUSH1 0xFF DUP2 GT ISZERO PUSH2 0x15D2 JUMPI PUSH2 0x15D1 PUSH2 0x14E7 JUMP JUMPDEST JUMPDEST SWAP3 SWAP2 POP POP JUMP JUMPDEST PUSH32 0x4E487B7100000000000000000000000000000000000000000000000000000000 PUSH1 0x0 MSTORE PUSH1 0x12 PUSH1 0x4 MSTORE PUSH1 0x24 PUSH1 0x0 REVERT JUMPDEST PUSH1 0x0 PUSH2 0x1612 DUP3 PUSH2 0x1083 JUMP JUMPDEST SWAP2 POP PUSH2 0x161D DUP4 PUSH2 0x1083 JUMP JUMPDEST SWAP3 POP DUP3 PUSH2 0x162D JUMPI PUSH2 0x162C PUSH2 0x15D8 JUMP JUMPDEST JUMPDEST DUP3 DUP3 MOD SWAP1 POP SWAP3 SWAP2 POP POP JUMP JUMPDEST PUSH1 0x0 PUSH2 0x1643 DUP3 PUSH2 0x1083 JUMP JUMPDEST SWAP2 POP PUSH2 0x164E DUP4 PUSH2 0x1083 JUMP JUMPDEST SWAP3 POP DUP3 PUSH2 0x165E JUMPI PUSH2 0x165D PUSH2 0x15D8 JUMP JUMPDEST JUMPDEST DUP3 DUP3 DIV SWAP1 POP SWAP3 SWAP2 POP POP JUMP JUMPDEST PUSH1 0x0 DUP3 DUP3 MSTORE PUSH1 0x20 DUP3 ADD SWAP1 POP SWAP3 SWAP2 POP POP JUMP JUMPDEST PUSH32 0x4572726F723A204475706C696361746520706169727320646574656374656421 PUSH1 0x0 DUP3 ADD MSTORE POP JUMP JUMPDEST PUSH1 0x0 PUSH2 0x16B0 PUSH1 0x20 DUP4 PUSH2 0x1669 JUMP JUMPDEST SWAP2 POP PUSH2 0x16BB DUP3 PUSH2 0x167A JUMP JUMPDEST PUSH1 0x20 DUP3 ADD SWAP1 POP SWAP2 SWAP1 POP JUMP JUMPDEST PUSH1 0x0 PUSH1 0x20 DUP3 ADD SWAP1 POP DUP2 DUP2 SUB PUSH1 0x0 DUP4 ADD MSTORE PUSH2 0x16DF DUP2 PUSH2 0x16A3 JUMP JUMPDEST SWAP1 POP SWAP2 SWAP1 POP JUMP JUMPDEST PUSH32 0x636F756E7452616E6B733A2052616E6B20696E646578206F7574206F6620626F PUSH1 0x0 DUP3 ADD MSTORE PUSH32 0x756E647300000000000000000000000000000000000000000000000000000000 PUSH1 0x20 DUP3 ADD MSTORE POP JUMP JUMPDEST PUSH1 0x0 PUSH2 0x1742 PUSH1 0x24 DUP4 PUSH2 0x1669 JUMP JUMPDEST SWAP2 POP PUSH2 0x174D DUP3 PUSH2 0x16E6 JUMP JUMPDEST PUSH1 0x40 DUP3 ADD SWAP1 POP SWAP2 SWAP1 POP JUMP JUMPDEST PUSH1 0x0 PUSH1 0x20 DUP3 ADD SWAP1 POP DUP2 DUP2 SUB PUSH1 0x0 DUP4 ADD MSTORE PUSH2 0x1771 DUP2 PUSH2 0x1735 JUMP JUMPDEST SWAP1 POP SWAP2 SWAP1 POP JUMP INVALID LOG2 PUSH5 0x6970667358 0x22 SLT KECCAK256 0xD3 0xF 0xD2 0xCA CALLDATALOAD DUP2 GAS 0x21 PREVRANDAO PUSH8 0xEFCE46B5E3A0C44 PUSH16 0x5EF2320F99851AD456A8DB230764736F PUSH13 0x63430008180033000000000000 "},"methodIdentifiers":{"countRanks(uint8[5])":"cc49a381","evaluateHand(uint8[5])":"82e58f9e","findBestFiveCardHand(uint8[7])":"0a685033","findStraight(uint8[5])":"2a73f714","isFlush(uint8[5])":"de6cd161","isRoyalStraight(uint8[5])":"fc04c4e5","sortRanks(uint8[5])":"b19654ca"}}}}}