{"contracts/Deck.sol":{"Deck":{"abi":[{"inputs":[],"stateMutability":"nonpayable","type":"constructor"},{"inputs":[],"name":"drawCard","outputs":[{"internalType":"uint8","name":"","type":"uint8"}],"stateMutability":"nonpayable","type":"function"},{"inputs":[{"internalType":"uint8","name":"cardIndex","type":"uint8"}],"name":"getCardString","outputs":[{"internalType":"string","name":"","type":"string"}],"stateMutability":"pure","type":"function"},{"inputs":[],"name":"lastDrawnCard","outputs":[{"internalType":"uint8","name":"","type":"uint8"}],"stateMutability":"view","type":"function"},{"inputs":[],"name":"shuffleDeck","outputs":[],"stateMutability":"nonpayable","type":"function"}],"evm":{"bytecode":{"linkReferences":{},"object":"608060405234801561001057600080fd5b5061001f61002460201b60201c565b610127565b60005b60348160ff1610156100845760018161004091906100c3565b60008260ff1660348110610057576100566100f8565b5b602091828204019190066101000a81548160ff021916908360ff1602179055508080600101915050610027565b50565b600060ff82169050919050565b7f4e487b7100000000000000000000000000000000000000000000000000000000600052601160045260246000fd5b60006100ce82610087565b91506100d983610087565b9250828201905060ff8111156100f2576100f1610094565b5b92915050565b7f4e487b7100000000000000000000000000000000000000000000000000000000600052603260045260246000fd5b610da980620001376000396000f3fe608060405234801561001057600080fd5b506004361061004c5760003560e01c80632f5be23e146100515780633371ce4a1461006f578063948f5f451461008d578063b0a3beaf146100bd575b600080fd5b6100596100c7565b6040516100669190610823565b60405180910390f35b6100776101b0565b6040516100849190610823565b60405180910390f35b6100a760048036038101906100a2919061086f565b6101c3565b6040516100b4919061092c565b60405180910390f35b6100c56106bd565b005b60006034600260009054906101000a900460ff1660ff161061011e576040517f08c379a00000000000000000000000000000000000000000000000000000000081526004016101159061099a565b60405180910390fd5b60006002600081819054906101000a900460ff168092919061013f906109e9565b91906101000a81548160ff021916908360ff16021790555060ff166034811061016b5761016a610a12565b5b602091828204019190069054906101000a900460ff16600260016101000a81548160ff021916908360ff160217905550600260019054906101000a900460ff16905090565b600260019054906101000a900460ff1681565b606060018260ff16101580156101dd575060348260ff1611155b61021c576040517f08c379a000000000000000000000000000000000000000000000000000000000815260040161021390610a8d565b60405180910390fd5b6000604051806101a001604052806040518060400160405280600381526020017f416365000000000000000000000000000000000000000000000000000000000081525081526020016040518060400160405280600181526020017f320000000000000000000000000000000000000000000000000000000000000081525081526020016040518060400160405280600181526020017f330000000000000000000000000000000000000000000000000000000000000081525081526020016040518060400160405280600181526020017f340000000000000000000000000000000000000000000000000000000000000081525081526020016040518060400160405280600181526020017f350000000000000000000000000000000000000000000000000000000000000081525081526020016040518060400160405280600181526020017f360000000000000000000000000000000000000000000000000000000000000081525081526020016040518060400160405280600181526020017f370000000000000000000000000000000000000000000000000000000000000081525081526020016040518060400160405280600181526020017f380000000000000000000000000000000000000000000000000000000000000081525081526020016040518060400160405280600181526020017f390000000000000000000000000000000000000000000000000000000000000081525081526020016040518060400160405280600281526020017f313000000000000000000000000000000000000000000000000000000000000081525081526020016040518060400160405280600481526020017f4a61636b0000000000000000000000000000000000000000000000000000000081525081526020016040518060400160405280600581526020017f517565656e00000000000000000000000000000000000000000000000000000081525081526020016040518060400160405280600481526020017f4b696e67000000000000000000000000000000000000000000000000000000008152508152509050600060405180608001604052806040518060400160405280600581526020017f436c75627300000000000000000000000000000000000000000000000000000081525081526020016040518060400160405280600881526020017f4469616d6f6e647300000000000000000000000000000000000000000000000081525081526020016040518060400160405280600681526020017f486561727473000000000000000000000000000000000000000000000000000081525081526020016040518060400160405280600681526020017f537061646573000000000000000000000000000000000000000000000000000081525081525090506000600d6001866106339190610aad565b61063d9190610b11565b90506000600d6001876106509190610aad565b61065a9190610b42565b9050838260ff16600d811061067257610671610a12565b5b6020020151838260ff166004811061068d5761068c610a12565b5b60200201516040516020016106a3929190610bfb565b604051602081830303815290604052945050505050919050565b60005b60348160ff1610156107e857600060344233846040516020016106e593929190610d05565b6040516020818303038152906040528051906020012060001c6107089190610d42565b905060008160ff166034811061072157610720610a12565b5b602091828204019190069054906101000a900460ff1660008360ff166034811061074e5761074d610a12565b5b602091828204019190069054906101000a900460ff1660008460ff166034811061077b5761077a610a12565b5b6020918282040191900660008560ff166034811061079c5761079b610a12565b5b602091828204019190068491906101000a81548160ff021916908360ff1602179055508391906101000a81548160ff021916908360ff16021790555050505080806001019150506106c0565b506000600260006101000a81548160ff021916908360ff160217905550565b600060ff82169050919050565b61081d81610807565b82525050565b60006020820190506108386000830184610814565b92915050565b600080fd5b61084c81610807565b811461085757600080fd5b50565b60008135905061086981610843565b92915050565b6000602082840312156108855761088461083e565b5b60006108938482850161085a565b91505092915050565b600081519050919050565b600082825260208201905092915050565b60005b838110156108d65780820151818401526020810190506108bb565b60008484015250505050565b6000601f19601f8301169050919050565b60006108fe8261089c565b61090881856108a7565b93506109188185602086016108b8565b610921816108e2565b840191505092915050565b6000602082019050818103600083015261094681846108f3565b905092915050565b7f4465636b20697320656d70747900000000000000000000000000000000000000600082015250565b6000610984600d836108a7565b915061098f8261094e565b602082019050919050565b600060208201905081810360008301526109b381610977565b9050919050565b7f4e487b7100000000000000000000000000000000000000000000000000000000600052601160045260246000fd5b60006109f482610807565b915060ff8203610a0757610a066109ba565b5b600182019050919050565b7f4e487b7100000000000000000000000000000000000000000000000000000000600052603260045260246000fd5b7f496e76616c6964206361726420696e6465780000000000000000000000000000600082015250565b6000610a776012836108a7565b9150610a8282610a41565b602082019050919050565b60006020820190508181036000830152610aa681610a6a565b9050919050565b6000610ab882610807565b9150610ac383610807565b9250828203905060ff811115610adc57610adb6109ba565b5b92915050565b7f4e487b7100000000000000000000000000000000000000000000000000000000600052601260045260246000fd5b6000610b1c82610807565b9150610b2783610807565b925082610b3757610b36610ae2565b5b828206905092915050565b6000610b4d82610807565b9150610b5883610807565b925082610b6857610b67610ae2565b5b828204905092915050565b600081905092915050565b6000610b898261089c565b610b938185610b73565b9350610ba38185602086016108b8565b80840191505092915050565b7f206f662000000000000000000000000000000000000000000000000000000000600082015250565b6000610be5600483610b73565b9150610bf082610baf565b600482019050919050565b6000610c078285610b7e565b9150610c1282610bd8565b9150610c1e8284610b7e565b91508190509392505050565b6000819050919050565b6000819050919050565b610c4f610c4a82610c2a565b610c34565b82525050565b600073ffffffffffffffffffffffffffffffffffffffff82169050919050565b6000610c8082610c55565b9050919050565b60008160601b9050919050565b6000610c9f82610c87565b9050919050565b6000610cb182610c94565b9050919050565b610cc9610cc482610c75565b610ca6565b82525050565b60008160f81b9050919050565b6000610ce782610ccf565b9050919050565b610cff610cfa82610807565b610cdc565b82525050565b6000610d118286610c3e565b602082019150610d218285610cb8565b601482019150610d318284610cee565b600182019150819050949350505050565b6000610d4d82610c2a565b9150610d5883610c2a565b925082610d6857610d67610ae2565b5b82820690509291505056fea26469706673582212203c34364c1cd2137b5bae0a8374c4bf2eedf08b03013ed9335f5a7ed11951bd7064736f6c63430008180033","opcodes":"PUSH1 0x80 PUSH1 0x40 MSTORE CALLVALUE DUP1 ISZERO PUSH2 0x10 JUMPI PUSH1 0x0 DUP1 REVERT JUMPDEST POP PUSH2 0x1F PUSH2 0x24 PUSH1 0x20 SHL PUSH1 0x20 SHR JUMP JUMPDEST PUSH2 0x127 JUMP JUMPDEST PUSH1 0x0 JUMPDEST PUSH1 0x34 DUP2 PUSH1 0xFF AND LT ISZERO PUSH2 0x84 JUMPI PUSH1 0x1 DUP2 PUSH2 0x40 SWAP2 SWAP1 PUSH2 0xC3 JUMP JUMPDEST PUSH1 0x0 DUP3 PUSH1 0xFF AND PUSH1 0x34 DUP2 LT PUSH2 0x57 JUMPI PUSH2 0x56 PUSH2 0xF8 JUMP JUMPDEST JUMPDEST PUSH1 0x20 SWAP2 DUP3 DUP3 DIV ADD SWAP2 SWAP1 MOD PUSH2 0x100 EXP DUP2 SLOAD DUP2 PUSH1 0xFF MUL NOT AND SWAP1 DUP4 PUSH1 0xFF AND MUL OR SWAP1 SSTORE POP DUP1 DUP1 PUSH1 0x1 ADD SWAP2 POP POP PUSH2 0x27 JUMP JUMPDEST POP JUMP JUMPDEST PUSH1 0x0 PUSH1 0xFF DUP3 AND SWAP1 POP SWAP2 SWAP1 POP JUMP JUMPDEST PUSH32 0x4E487B7100000000000000000000000000000000000000000000000000000000 PUSH1 0x0 MSTORE PUSH1 0x11 PUSH1 0x4 MSTORE PUSH1 0x24 PUSH1 0x0 REVERT JUMPDEST PUSH1 0x0 PUSH2 0xCE DUP3 PUSH2 0x87 JUMP JUMPDEST SWAP2 POP PUSH2 0xD9 DUP4 PUSH2 0x87 JUMP JUMPDEST SWAP3 POP DUP3 DUP3 ADD SWAP1 POP PUSH1 0xFF DUP2 GT ISZERO PUSH2 0xF2 JUMPI PUSH2 0xF1 PUSH2 0x94 JUMP JUMPDEST JUMPDEST SWAP3 SWAP2 POP POP JUMP JUMPDEST PUSH32 0x4E487B7100000000000000000000000000000000000000000000000000000000 PUSH1 0x0 MSTORE PUSH1 0x32 PUSH1 0x4 MSTORE PUSH1 0x24 PUSH1 0x0 REVERT JUMPDEST PUSH2 0xDA9 DUP1 PUSH3 0x137 PUSH1 0x0 CODECOPY PUSH1 0x0 RETURN INVALID PUSH1 0x80 PUSH1 0x40 MSTORE CALLVALUE DUP1 ISZERO PUSH2 0x10 JUMPI PUSH1 0x0 DUP1 REVERT JUMPDEST POP PUSH1 0x4 CALLDATASIZE LT PUSH2 0x4C JUMPI PUSH1 0x0 CALLDATALOAD PUSH1 0xE0 SHR DUP1 PUSH4 0x2F5BE23E EQ PUSH2 0x51 JUMPI DUP1 PUSH4 0x3371CE4A EQ PUSH2 0x6F JUMPI DUP1 PUSH4 0x948F5F45 EQ PUSH2 0x8D JUMPI DUP1 PUSH4 0xB0A3BEAF EQ PUSH2 0xBD JUMPI JUMPDEST PUSH1 0x0 DUP1 REVERT JUMPDEST PUSH2 0x59 PUSH2 0xC7 JUMP JUMPDEST PUSH1 0x40 MLOAD PUSH2 0x66 SWAP2 SWAP1 PUSH2 0x823 JUMP JUMPDEST PUSH1 0x40 MLOAD DUP1 SWAP2 SUB SWAP1 RETURN JUMPDEST PUSH2 0x77 PUSH2 0x1B0 JUMP JUMPDEST PUSH1 0x40 MLOAD PUSH2 0x84 SWAP2 SWAP1 PUSH2 0x823 JUMP JUMPDEST PUSH1 0x40 MLOAD DUP1 SWAP2 SUB SWAP1 RETURN JUMPDEST PUSH2 0xA7 PUSH1 0x4 DUP1 CALLDATASIZE SUB DUP2 ADD SWAP1 PUSH2 0xA2 SWAP2 SWAP1 PUSH2 0x86F JUMP JUMPDEST PUSH2 0x1C3 JUMP JUMPDEST PUSH1 0x40 MLOAD PUSH2 0xB4 SWAP2 SWAP1 PUSH2 0x92C JUMP JUMPDEST PUSH1 0x40 MLOAD DUP1 SWAP2 SUB SWAP1 RETURN JUMPDEST PUSH2 0xC5 PUSH2 0x6BD JUMP JUMPDEST STOP JUMPDEST PUSH1 0x0 PUSH1 0x34 PUSH1 0x2 PUSH1 0x0 SWAP1 SLOAD SWAP1 PUSH2 0x100 EXP SWAP1 DIV PUSH1 0xFF AND PUSH1 0xFF AND LT PUSH2 0x11E JUMPI PUSH1 0x40 MLOAD PUSH32 0x8C379A000000000000000000000000000000000000000000000000000000000 DUP2 MSTORE PUSH1 0x4 ADD PUSH2 0x115 SWAP1 PUSH2 0x99A JUMP JUMPDEST PUSH1 0x40 MLOAD DUP1 SWAP2 SUB SWAP1 REVERT JUMPDEST PUSH1 0x0 PUSH1 0x2 PUSH1 0x0 DUP2 DUP2 SWAP1 SLOAD SWAP1 PUSH2 0x100 EXP SWAP1 DIV PUSH1 0xFF AND DUP1 SWAP3 SWAP2 SWAP1 PUSH2 0x13F SWAP1 PUSH2 0x9E9 JUMP JUMPDEST SWAP2 SWAP1 PUSH2 0x100 EXP DUP2 SLOAD DUP2 PUSH1 0xFF MUL NOT AND SWAP1 DUP4 PUSH1 0xFF AND MUL OR SWAP1 SSTORE POP PUSH1 0xFF AND PUSH1 0x34 DUP2 LT PUSH2 0x16B JUMPI PUSH2 0x16A PUSH2 0xA12 JUMP JUMPDEST JUMPDEST PUSH1 0x20 SWAP2 DUP3 DUP3 DIV ADD SWAP2 SWAP1 MOD SWAP1 SLOAD SWAP1 PUSH2 0x100 EXP SWAP1 DIV PUSH1 0xFF AND PUSH1 0x2 PUSH1 0x1 PUSH2 0x100 EXP DUP2 SLOAD DUP2 PUSH1 0xFF MUL NOT AND SWAP1 DUP4 PUSH1 0xFF AND MUL OR SWAP1 SSTORE POP PUSH1 0x2 PUSH1 0x1 SWAP1 SLOAD SWAP1 PUSH2 0x100 EXP SWAP1 DIV PUSH1 0xFF AND SWAP1 POP SWAP1 JUMP JUMPDEST PUSH1 0x2 PUSH1 0x1 SWAP1 SLOAD SWAP1 PUSH2 0x100 EXP SWAP1 DIV PUSH1 0xFF AND DUP2 JUMP JUMPDEST PUSH1 0x60 PUSH1 0x1 DUP3 PUSH1 0xFF AND LT ISZERO DUP1 ISZERO PUSH2 0x1DD JUMPI POP PUSH1 0x34 DUP3 PUSH1 0xFF AND GT ISZERO JUMPDEST PUSH2 0x21C JUMPI PUSH1 0x40 MLOAD PUSH32 0x8C379A000000000000000000000000000000000000000000000000000000000 DUP2 MSTORE PUSH1 0x4 ADD PUSH2 0x213 SWAP1 PUSH2 0xA8D JUMP JUMPDEST PUSH1 0x40 MLOAD DUP1 SWAP2 SUB SWAP1 REVERT JUMPDEST PUSH1 0x0 PUSH1 0x40 MLOAD DUP1 PUSH2 0x1A0 ADD PUSH1 0x40 MSTORE DUP1 PUSH1 0x40 MLOAD DUP1 PUSH1 0x40 ADD PUSH1 0x40 MSTORE DUP1 PUSH1 0x3 DUP2 MSTORE PUSH1 0x20 ADD PUSH32 0x4163650000000000000000000000000000000000000000000000000000000000 DUP2 MSTORE POP DUP2 MSTORE PUSH1 0x20 ADD PUSH1 0x40 MLOAD DUP1 PUSH1 0x40 ADD PUSH1 0x40 MSTORE DUP1 PUSH1 0x1 DUP2 MSTORE PUSH1 0x20 ADD PUSH32 0x3200000000000000000000000000000000000000000000000000000000000000 DUP2 MSTORE POP DUP2 MSTORE PUSH1 0x20 ADD PUSH1 0x40 MLOAD DUP1 PUSH1 0x40 ADD PUSH1 0x40 MSTORE DUP1 PUSH1 0x1 DUP2 MSTORE PUSH1 0x20 ADD PUSH32 0x3300000000000000000000000000000000000000000000000000000000000000 DUP2 MSTORE POP DUP2 MSTORE PUSH1 0x20 ADD PUSH1 0x40 MLOAD DUP1 PUSH1 0x40 ADD PUSH1 0x40 MSTORE DUP1 PUSH1 0x1 DUP2 MSTORE PUSH1 0x20 ADD PUSH32 0x3400000000000000000000000000000000000000000000000000000000000000 DUP2 MSTORE POP DUP2 MSTORE PUSH1 0x20 ADD PUSH1 0x40 MLOAD DUP1 PUSH1 0x40 ADD PUSH1 0x40 MSTORE DUP1 PUSH1 0x1 DUP2 MSTORE PUSH1 0x20 ADD PUSH32 0x3500000000000000000000000000000000000000000000000000000000000000 DUP2 MSTORE POP DUP2 MSTORE PUSH1 0x20 ADD PUSH1 0x40 MLOAD DUP1 PUSH1 0x40 ADD PUSH1 0x40 MSTORE DUP1 PUSH1 0x1 DUP2 MSTORE PUSH1 0x20 ADD PUSH32 0x3600000000000000000000000000000000000000000000000000000000000000 DUP2 MSTORE POP DUP2 MSTORE PUSH1 0x20 ADD PUSH1 0x40 MLOAD DUP1 PUSH1 0x40 ADD PUSH1 0x40 MSTORE DUP1 PUSH1 0x1 DUP2 MSTORE PUSH1 0x20 ADD PUSH32 0x3700000000000000000000000000000000000000000000000000000000000000 DUP2 MSTORE POP DUP2 MSTORE PUSH1 0x20 ADD PUSH1 0x40 MLOAD DUP1 PUSH1 0x40 ADD PUSH1 0x40 MSTORE DUP1 PUSH1 0x1 DUP2 MSTORE PUSH1 0x20 ADD PUSH32 0x3800000000000000000000000000000000000000000000000000000000000000 DUP2 MSTORE POP DUP2 MSTORE PUSH1 0x20 ADD PUSH1 0x40 MLOAD DUP1 PUSH1 0x40 ADD PUSH1 0x40 MSTORE DUP1 PUSH1 0x1 DUP2 MSTORE PUSH1 0x20 ADD PUSH32 0x3900000000000000000000000000000000000000000000000000000000000000 DUP2 MSTORE POP DUP2 MSTORE PUSH1 0x20 ADD PUSH1 0x40 MLOAD DUP1 PUSH1 0x40 ADD PUSH1 0x40 MSTORE DUP1 PUSH1 0x2 DUP2 MSTORE PUSH1 0x20 ADD PUSH32 0x3130000000000000000000000000000000000000000000000000000000000000 DUP2 MSTORE POP DUP2 MSTORE PUSH1 0x20 ADD PUSH1 0x40 MLOAD DUP1 PUSH1 0x40 ADD PUSH1 0x40 MSTORE DUP1 PUSH1 0x4 DUP2 MSTORE PUSH1 0x20 ADD PUSH32 0x4A61636B00000000000000000000000000000000000000000000000000000000 DUP2 MSTORE POP DUP2 MSTORE PUSH1 0x20 ADD PUSH1 0x40 MLOAD DUP1 PUSH1 0x40 ADD PUSH1 0x40 MSTORE DUP1 PUSH1 0x5 DUP2 MSTORE PUSH1 0x20 ADD PUSH32 0x517565656E000000000000000000000000000000000000000000000000000000 DUP2 MSTORE POP DUP2 MSTORE PUSH1 0x20 ADD PUSH1 0x40 MLOAD DUP1 PUSH1 0x40 ADD PUSH1 0x40 MSTORE DUP1 PUSH1 0x4 DUP2 MSTORE PUSH1 0x20 ADD PUSH32 0x4B696E6700000000000000000000000000000000000000000000000000000000 DUP2 MSTORE POP DUP2 MSTORE POP SWAP1 POP PUSH1 0x0 PUSH1 0x40 MLOAD DUP1 PUSH1 0x80 ADD PUSH1 0x40 MSTORE DUP1 PUSH1 0x40 MLOAD DUP1 PUSH1 0x40 ADD PUSH1 0x40 MSTORE DUP1 PUSH1 0x5 DUP2 MSTORE PUSH1 0x20 ADD PUSH32 0x436C756273000000000000000000000000000000000000000000000000000000 DUP2 MSTORE POP DUP2 MSTORE PUSH1 0x20 ADD PUSH1 0x40 MLOAD DUP1 PUSH1 0x40 ADD PUSH1 0x40 MSTORE DUP1 PUSH1 0x8 DUP2 MSTORE PUSH1 0x20 ADD PUSH32 0x4469616D6F6E6473000000000000000000000000000000000000000000000000 DUP2 MSTORE POP DUP2 MSTORE PUSH1 0x20 ADD PUSH1 0x40 MLOAD DUP1 PUSH1 0x40 ADD PUSH1 0x40 MSTORE DUP1 PUSH1 0x6 DUP2 MSTORE PUSH1 0x20 ADD PUSH32 0x4865617274730000000000000000000000000000000000000000000000000000 DUP2 MSTORE POP DUP2 MSTORE PUSH1 0x20 ADD PUSH1 0x40 MLOAD DUP1 PUSH1 0x40 ADD PUSH1 0x40 MSTORE DUP1 PUSH1 0x6 DUP2 MSTORE PUSH1 0x20 ADD PUSH32 0x5370616465730000000000000000000000000000000000000000000000000000 DUP2 MSTORE POP DUP2 MSTORE POP SWAP1 POP PUSH1 0x0 PUSH1 0xD PUSH1 0x1 DUP7 PUSH2 0x633 SWAP2 SWAP1 PUSH2 0xAAD JUMP JUMPDEST PUSH2 0x63D SWAP2 SWAP1 PUSH2 0xB11 JUMP JUMPDEST SWAP1 POP PUSH1 0x0 PUSH1 0xD PUSH1 0x1 DUP8 PUSH2 0x650 SWAP2 SWAP1 PUSH2 0xAAD JUMP JUMPDEST PUSH2 0x65A SWAP2 SWAP1 PUSH2 0xB42 JUMP JUMPDEST SWAP1 POP DUP4 DUP3 PUSH1 0xFF AND PUSH1 0xD DUP2 LT PUSH2 0x672 JUMPI PUSH2 0x671 PUSH2 0xA12 JUMP JUMPDEST JUMPDEST PUSH1 0x20 MUL ADD MLOAD DUP4 DUP3 PUSH1 0xFF AND PUSH1 0x4 DUP2 LT PUSH2 0x68D JUMPI PUSH2 0x68C PUSH2 0xA12 JUMP JUMPDEST JUMPDEST PUSH1 0x20 MUL ADD MLOAD PUSH1 0x40 MLOAD PUSH1 0x20 ADD PUSH2 0x6A3 SWAP3 SWAP2 SWAP1 PUSH2 0xBFB JUMP JUMPDEST PUSH1 0x40 MLOAD PUSH1 0x20 DUP2 DUP4 SUB SUB DUP2 MSTORE SWAP1 PUSH1 0x40 MSTORE SWAP5 POP POP POP POP POP SWAP2 SWAP1 POP JUMP JUMPDEST PUSH1 0x0 JUMPDEST PUSH1 0x34 DUP2 PUSH1 0xFF AND LT ISZERO PUSH2 0x7E8 JUMPI PUSH1 0x0 PUSH1 0x34 TIMESTAMP CALLER DUP5 PUSH1 0x40 MLOAD PUSH1 0x20 ADD PUSH2 0x6E5 SWAP4 SWAP3 SWAP2 SWAP1 PUSH2 0xD05 JUMP JUMPDEST PUSH1 0x40 MLOAD PUSH1 0x20 DUP2 DUP4 SUB SUB DUP2 MSTORE SWAP1 PUSH1 0x40 MSTORE DUP1 MLOAD SWAP1 PUSH1 0x20 ADD KECCAK256 PUSH1 0x0 SHR PUSH2 0x708 SWAP2 SWAP1 PUSH2 0xD42 JUMP JUMPDEST SWAP1 POP PUSH1 0x0 DUP2 PUSH1 0xFF AND PUSH1 0x34 DUP2 LT PUSH2 0x721 JUMPI PUSH2 0x720 PUSH2 0xA12 JUMP JUMPDEST JUMPDEST PUSH1 0x20 SWAP2 DUP3 DUP3 DIV ADD SWAP2 SWAP1 MOD SWAP1 SLOAD SWAP1 PUSH2 0x100 EXP SWAP1 DIV PUSH1 0xFF AND PUSH1 0x0 DUP4 PUSH1 0xFF AND PUSH1 0x34 DUP2 LT PUSH2 0x74E JUMPI PUSH2 0x74D PUSH2 0xA12 JUMP JUMPDEST JUMPDEST PUSH1 0x20 SWAP2 DUP3 DUP3 DIV ADD SWAP2 SWAP1 MOD SWAP1 SLOAD SWAP1 PUSH2 0x100 EXP SWAP1 DIV PUSH1 0xFF AND PUSH1 0x0 DUP5 PUSH1 0xFF AND PUSH1 0x34 DUP2 LT PUSH2 0x77B JUMPI PUSH2 0x77A PUSH2 0xA12 JUMP JUMPDEST JUMPDEST PUSH1 0x20 SWAP2 DUP3 DUP3 DIV ADD SWAP2 SWAP1 MOD PUSH1 0x0 DUP6 PUSH1 0xFF AND PUSH1 0x34 DUP2 LT PUSH2 0x79C JUMPI PUSH2 0x79B PUSH2 0xA12 JUMP JUMPDEST JUMPDEST PUSH1 0x20 SWAP2 DUP3 DUP3 DIV ADD SWAP2 SWAP1 MOD DUP5 SWAP2 SWAP1 PUSH2 0x100 EXP DUP2 SLOAD DUP2 PUSH1 0xFF MUL NOT AND SWAP1 DUP4 PUSH1 0xFF AND MUL OR SWAP1 SSTORE POP DUP4 SWAP2 SWAP1 PUSH2 0x100 EXP DUP2 SLOAD DUP2 PUSH1 0xFF MUL NOT AND SWAP1 DUP4 PUSH1 0xFF AND MUL OR SWAP1 SSTORE POP POP POP POP DUP1 DUP1 PUSH1 0x1 ADD SWAP2 POP POP PUSH2 0x6C0 JUMP JUMPDEST POP PUSH1 0x0 PUSH1 0x2 PUSH1 0x0 PUSH2 0x100 EXP DUP2 SLOAD DUP2 PUSH1 0xFF MUL NOT AND SWAP1 DUP4 PUSH1 0xFF AND MUL OR SWAP1 SSTORE POP JUMP JUMPDEST PUSH1 0x0 PUSH1 0xFF DUP3 AND SWAP1 POP SWAP2 SWAP1 POP JUMP JUMPDEST PUSH2 0x81D DUP2 PUSH2 0x807 JUMP JUMPDEST DUP3 MSTORE POP POP JUMP JUMPDEST PUSH1 0x0 PUSH1 0x20 DUP3 ADD SWAP1 POP PUSH2 0x838 PUSH1 0x0 DUP4 ADD DUP5 PUSH2 0x814 JUMP JUMPDEST SWAP3 SWAP2 POP POP JUMP JUMPDEST PUSH1 0x0 DUP1 REVERT JUMPDEST PUSH2 0x84C DUP2 PUSH2 0x807 JUMP JUMPDEST DUP2 EQ PUSH2 0x857 JUMPI PUSH1 0x0 DUP1 REVERT JUMPDEST POP JUMP JUMPDEST PUSH1 0x0 DUP2 CALLDATALOAD SWAP1 POP PUSH2 0x869 DUP2 PUSH2 0x843 JUMP JUMPDEST SWAP3 SWAP2 POP POP JUMP JUMPDEST PUSH1 0x0 PUSH1 0x20 DUP3 DUP5 SUB SLT ISZERO PUSH2 0x885 JUMPI PUSH2 0x884 PUSH2 0x83E JUMP JUMPDEST JUMPDEST PUSH1 0x0 PUSH2 0x893 DUP5 DUP3 DUP6 ADD PUSH2 0x85A JUMP JUMPDEST SWAP2 POP POP SWAP3 SWAP2 POP POP JUMP JUMPDEST PUSH1 0x0 DUP2 MLOAD SWAP1 POP SWAP2 SWAP1 POP JUMP JUMPDEST PUSH1 0x0 DUP3 DUP3 MSTORE PUSH1 0x20 DUP3 ADD SWAP1 POP SWAP3 SWAP2 POP POP JUMP JUMPDEST PUSH1 0x0 JUMPDEST DUP4 DUP2 LT ISZERO PUSH2 0x8D6 JUMPI DUP1 DUP3 ADD MLOAD DUP2 DUP5 ADD MSTORE PUSH1 0x20 DUP2 ADD SWAP1 POP PUSH2 0x8BB JUMP JUMPDEST PUSH1 0x0 DUP5 DUP5 ADD MSTORE POP POP POP POP JUMP JUMPDEST PUSH1 0x0 PUSH1 0x1F NOT PUSH1 0x1F DUP4 ADD AND SWAP1 POP SWAP2 SWAP1 POP JUMP JUMPDEST PUSH1 0x0 PUSH2 0x8FE DUP3 PUSH2 0x89C JUMP JUMPDEST PUSH2 0x908 DUP2 DUP6 PUSH2 0x8A7 JUMP JUMPDEST SWAP4 POP PUSH2 0x918 DUP2 DUP6 PUSH1 0x20 DUP7 ADD PUSH2 0x8B8 JUMP JUMPDEST PUSH2 0x921 DUP2 PUSH2 0x8E2 JUMP JUMPDEST DUP5 ADD SWAP2 POP POP SWAP3 SWAP2 POP POP JUMP JUMPDEST PUSH1 0x0 PUSH1 0x20 DUP3 ADD SWAP1 POP DUP2 DUP2 SUB PUSH1 0x0 DUP4 ADD MSTORE PUSH2 0x946 DUP2 DUP5 PUSH2 0x8F3 JUMP JUMPDEST SWAP1 POP SWAP3 SWAP2 POP POP JUMP JUMPDEST PUSH32 0x4465636B20697320656D70747900000000000000000000000000000000000000 PUSH1 0x0 DUP3 ADD MSTORE POP JUMP JUMPDEST PUSH1 0x0 PUSH2 0x984 PUSH1 0xD DUP4 PUSH2 0x8A7 JUMP JUMPDEST SWAP2 POP PUSH2 0x98F DUP3 PUSH2 0x94E JUMP JUMPDEST PUSH1 0x20 DUP3 ADD SWAP1 POP SWAP2 SWAP1 POP JUMP JUMPDEST PUSH1 0x0 PUSH1 0x20 DUP3 ADD SWAP1 POP DUP2 DUP2 SUB PUSH1 0x0 DUP4 ADD MSTORE PUSH2 0x9B3 DUP2 PUSH2 0x977 JUMP JUMPDEST SWAP1 POP SWAP2 SWAP1 POP JUMP JUMPDEST PUSH32 0x4E487B7100000000000000000000000000000000000000000000000000000000 PUSH1 0x0 MSTORE PUSH1 0x11 PUSH1 0x4 MSTORE PUSH1 0x24 PUSH1 0x0 REVERT JUMPDEST PUSH1 0x0 PUSH2 0x9F4 DUP3 PUSH2 0x807 JUMP JUMPDEST SWAP2 POP PUSH1 0xFF DUP3 SUB PUSH2 0xA07 JUMPI PUSH2 0xA06 PUSH2 0x9BA JUMP JUMPDEST JUMPDEST PUSH1 0x1 DUP3 ADD SWAP1 POP SWAP2 SWAP1 POP JUMP JUMPDEST PUSH32 0x4E487B7100000000000000000000000000000000000000000000000000000000 PUSH1 0x0 MSTORE PUSH1 0x32 PUSH1 0x4 MSTORE PUSH1 0x24 PUSH1 0x0 REVERT JUMPDEST PUSH32 0x496E76616C6964206361726420696E6465780000000000000000000000000000 PUSH1 0x0 DUP3 ADD MSTORE POP JUMP JUMPDEST PUSH1 0x0 PUSH2 0xA77 PUSH1 0x12 DUP4 PUSH2 0x8A7 JUMP JUMPDEST SWAP2 POP PUSH2 0xA82 DUP3 PUSH2 0xA41 JUMP JUMPDEST PUSH1 0x20 DUP3 ADD SWAP1 POP SWAP2 SWAP1 POP JUMP JUMPDEST PUSH1 0x0 PUSH1 0x20 DUP3 ADD SWAP1 POP DUP2 DUP2 SUB PUSH1 0x0 DUP4 ADD MSTORE PUSH2 0xAA6 DUP2 PUSH2 0xA6A JUMP JUMPDEST SWAP1 POP SWAP2 SWAP1 POP JUMP JUMPDEST PUSH1 0x0 PUSH2 0xAB8 DUP3 PUSH2 0x807 JUMP JUMPDEST SWAP2 POP PUSH2 0xAC3 DUP4 PUSH2 0x807 JUMP JUMPDEST SWAP3 POP DUP3 DUP3 SUB SWAP1 POP PUSH1 0xFF DUP2 GT ISZERO PUSH2 0xADC JUMPI PUSH2 0xADB PUSH2 0x9BA JUMP JUMPDEST JUMPDEST SWAP3 SWAP2 POP POP JUMP JUMPDEST PUSH32 0x4E487B7100000000000000000000000000000000000000000000000000000000 PUSH1 0x0 MSTORE PUSH1 0x12 PUSH1 0x4 MSTORE PUSH1 0x24 PUSH1 0x0 REVERT JUMPDEST PUSH1 0x0 PUSH2 0xB1C DUP3 PUSH2 0x807 JUMP JUMPDEST SWAP2 POP PUSH2 0xB27 DUP4 PUSH2 0x807 JUMP JUMPDEST SWAP3 POP DUP3 PUSH2 0xB37 JUMPI PUSH2 0xB36 PUSH2 0xAE2 JUMP JUMPDEST JUMPDEST DUP3 DUP3 MOD SWAP1 POP SWAP3 SWAP2 POP POP JUMP JUMPDEST PUSH1 0x0 PUSH2 0xB4D DUP3 PUSH2 0x807 JUMP JUMPDEST SWAP2 POP PUSH2 0xB58 DUP4 PUSH2 0x807 JUMP JUMPDEST SWAP3 POP DUP3 PUSH2 0xB68 JUMPI PUSH2 0xB67 PUSH2 0xAE2 JUMP JUMPDEST JUMPDEST DUP3 DUP3 DIV SWAP1 POP SWAP3 SWAP2 POP POP JUMP JUMPDEST PUSH1 0x0 DUP2 SWAP1 POP SWAP3 SWAP2 POP POP JUMP JUMPDEST PUSH1 0x0 PUSH2 0xB89 DUP3 PUSH2 0x89C JUMP JUMPDEST PUSH2 0xB93 DUP2 DUP6 PUSH2 0xB73 JUMP JUMPDEST SWAP4 POP PUSH2 0xBA3 DUP2 DUP6 PUSH1 0x20 DUP7 ADD PUSH2 0x8B8 JUMP JUMPDEST DUP1 DUP5 ADD SWAP2 POP POP SWAP3 SWAP2 POP POP JUMP JUMPDEST PUSH32 0x206F662000000000000000000000000000000000000000000000000000000000 PUSH1 0x0 DUP3 ADD MSTORE POP JUMP JUMPDEST PUSH1 0x0 PUSH2 0xBE5 PUSH1 0x4 DUP4 PUSH2 0xB73 JUMP JUMPDEST SWAP2 POP PUSH2 0xBF0 DUP3 PUSH2 0xBAF JUMP JUMPDEST PUSH1 0x4 DUP3 ADD SWAP1 POP SWAP2 SWAP1 POP JUMP JUMPDEST PUSH1 0x0 PUSH2 0xC07 DUP3 DUP6 PUSH2 0xB7E JUMP JUMPDEST SWAP2 POP PUSH2 0xC12 DUP3 PUSH2 0xBD8 JUMP JUMPDEST SWAP2 POP PUSH2 0xC1E DUP3 DUP5 PUSH2 0xB7E JUMP JUMPDEST SWAP2 POP DUP2 SWAP1 POP SWAP4 SWAP3 POP POP POP JUMP JUMPDEST PUSH1 0x0 DUP2 SWAP1 POP SWAP2 SWAP1 POP JUMP JUMPDEST PUSH1 0x0 DUP2 SWAP1 POP SWAP2 SWAP1 POP JUMP JUMPDEST PUSH2 0xC4F PUSH2 0xC4A DUP3 PUSH2 0xC2A JUMP JUMPDEST PUSH2 0xC34 JUMP JUMPDEST DUP3 MSTORE POP POP JUMP JUMPDEST PUSH1 0x0 PUSH20 0xFFFFFFFFFFFFFFFFFFFFFFFFFFFFFFFFFFFFFFFF DUP3 AND SWAP1 POP SWAP2 SWAP1 POP JUMP JUMPDEST PUSH1 0x0 PUSH2 0xC80 DUP3 PUSH2 0xC55 JUMP JUMPDEST SWAP1 POP SWAP2 SWAP1 POP JUMP JUMPDEST PUSH1 0x0 DUP2 PUSH1 0x60 SHL SWAP1 POP SWAP2 SWAP1 POP JUMP JUMPDEST PUSH1 0x0 PUSH2 0xC9F DUP3 PUSH2 0xC87 JUMP JUMPDEST SWAP1 POP SWAP2 SWAP1 POP JUMP JUMPDEST PUSH1 0x0 PUSH2 0xCB1 DUP3 PUSH2 0xC94 JUMP JUMPDEST SWAP1 POP SWAP2 SWAP1 POP JUMP JUMPDEST PUSH2 0xCC9 PUSH2 0xCC4 DUP3 PUSH2 0xC75 JUMP JUMPDEST PUSH2 0xCA6 JUMP JUMPDEST DUP3 MSTORE POP POP JUMP JUMPDEST PUSH1 0x0 DUP2 PUSH1 0xF8 SHL SWAP1 POP SWAP2 SWAP1 POP JUMP JUMPDEST PUSH1 0x0 PUSH2 0xCE7 DUP3 PUSH2 0xCCF JUMP JUMPDEST SWAP1 POP SWAP2 SWAP1 POP JUMP JUMPDEST PUSH2 0xCFF PUSH2 0xCFA DUP3 PUSH2 0x807 JUMP JUMPDEST PUSH2 0xCDC JUMP JUMPDEST DUP3 MSTORE POP POP JUMP JUMPDEST PUSH1 0x0 PUSH2 0xD11 DUP3 DUP7 PUSH2 0xC3E JUMP JUMPDEST PUSH1 0x20 DUP3 ADD SWAP2 POP PUSH2 0xD21 DUP3 DUP6 PUSH2 0xCB8 JUMP JUMPDEST PUSH1 0x14 DUP3 ADD SWAP2 POP PUSH2 0xD31 DUP3 DUP5 PUSH2 0xCEE JUMP JUMPDEST PUSH1 0x1 DUP3 ADD SWAP2 POP DUP2 SWAP1 POP SWAP5 SWAP4 POP POP POP POP JUMP JUMPDEST PUSH1 0x0 PUSH2 0xD4D DUP3 PUSH2 0xC2A JUMP JUMPDEST SWAP2 POP PUSH2 0xD58 DUP4 PUSH2 0xC2A JUMP JUMPDEST SWAP3 POP DUP3 PUSH2 0xD68 JUMPI PUSH2 0xD67 PUSH2 0xAE2 JUMP JUMPDEST JUMPDEST DUP3 DUP3 MOD SWAP1 POP SWAP3 SWAP2 POP POP JUMP INVALID LOG2 PUSH5 0x6970667358 0x22 SLT KECCAK256 EXTCODECOPY CALLVALUE CALLDATASIZE 0x4C SHR 0xD2 SGT PUSH28 0x5BAE0A8374C4BF2EEDF08B03013ED9335F5A7ED11951BD7064736F6C PUSH4 0x43000818 STOP CALLER "},"methodIdentifiers":{"drawCard()":"2f5be23e","getCardString(uint8)":"948f5f45","lastDrawnCard()":"3371ce4a","shuffleDeck()":"b0a3beaf"}}}}}