{
  "_format": "hh-sol-artifact-1",
  "contractName": "TexasHoldem",
  "sourceName": "contracts/table.sol",
  "abi": [
    {
      "inputs": [
        {
          "internalType": "address",
          "name": "_deckContract",
          "type": "address"
        }
      ],
      "stateMutability": "nonpayable",
      "type": "constructor"
    },
    {
      "anonymous": false,
      "inputs": [
        {
          "indexed": true,
          "internalType": "address",
          "name": "player",
          "type": "address"
        },
        {
          "indexed": false,
          "internalType": "uint256",
          "name": "amount",
          "type": "uint256"
        }
      ],
      "name": "BetPlaced",
      "type": "event"
    },
    {
      "anonymous": false,
      "inputs": [],
      "name": "CardsDealt",
      "type": "event"
    },
    {
      "anonymous": false,
      "inputs": [
        {
          "indexed": true,
          "internalType": "address",
          "name": "ai",
          "type": "address"
        },
        {
          "indexed": false,
          "internalType": "uint256",
          "name": "handRank",
          "type": "uint256"
        }
      ],
      "name": "DebugAIWinnerSelection",
      "type": "event"
    },
    {
      "anonymous": false,
      "inputs": [
        {
          "indexed": false,
          "internalType": "address",
          "name": "winningAI",
          "type": "address"
        },
        {
          "indexed": false,
          "internalType": "address",
          "name": "winningSpectator",
          "type": "address"
        },
        {
          "indexed": false,
          "internalType": "uint256",
          "name": "spectatorWinnings",
          "type": "uint256"
        }
      ],
      "name": "DebugFinalWinner",
      "type": "event"
    },
    {
      "anonymous": false,
      "inputs": [
        {
          "indexed": false,
          "internalType": "address",
          "name": "spectator",
          "type": "address"
        },
        {
          "indexed": false,
          "internalType": "address",
          "name": "betOnAI",
          "type": "address"
        },
        {
          "indexed": false,
          "internalType": "bool",
          "name": "isWinner",
          "type": "bool"
        },
        {
          "indexed": false,
          "internalType": "uint256",
          "name": "payout",
          "type": "uint256"
        }
      ],
      "name": "DebugSpectator",
      "type": "event"
    },
    {
      "anonymous": false,
      "inputs": [
        {
          "indexed": false,
          "internalType": "address",
          "name": "spectator",
          "type": "address"
        },
        {
          "indexed": false,
          "internalType": "address",
          "name": "betOnAI",
          "type": "address"
        },
        {
          "indexed": false,
          "internalType": "bool",
          "name": "isMatch",
          "type": "bool"
        }
      ],
      "name": "DebugSpectatorCheck",
      "type": "event"
    },
    {
      "anonymous": false,
      "inputs": [
        {
          "indexed": false,
          "internalType": "uint256",
          "name": "potAmount",
          "type": "uint256"
        }
      ],
      "name": "DebugSpectatorPot",
      "type": "event"
    },
    {
      "anonymous": false,
      "inputs": [
        {
          "indexed": false,
          "internalType": "address",
          "name": "winningAI",
          "type": "address"
        },
        {
          "indexed": false,
          "internalType": "uint256",
          "name": "aiPot",
          "type": "uint256"
        },
        {
          "indexed": false,
          "internalType": "uint256",
          "name": "spectatorPot",
          "type": "uint256"
        }
      ],
      "name": "DebugWinner",
      "type": "event"
    },
    {
      "anonymous": false,
      "inputs": [
        {
          "indexed": false,
          "internalType": "address",
          "name": "winningAI",
          "type": "address"
        }
      ],
      "name": "DebugWinningAI",
      "type": "event"
    },
    {
      "anonymous": false,
      "inputs": [],
      "name": "GameReset",
      "type": "event"
    },
    {
      "anonymous": false,
      "inputs": [],
      "name": "GameStarted",
      "type": "event"
    },
    {
      "anonymous": false,
      "inputs": [
        {
          "indexed": true,
          "internalType": "address",
          "name": "player",
          "type": "address"
        },
        {
          "indexed": false,
          "internalType": "uint256",
          "name": "betAmount",
          "type": "uint256"
        }
      ],
      "name": "JoinedGame",
      "type": "event"
    },
    {
      "anonymous": false,
      "inputs": [
        {
          "indexed": true,
          "internalType": "address",
          "name": "player",
          "type": "address"
        }
      ],
      "name": "PlayerFolded",
      "type": "event"
    },
    {
      "anonymous": false,
      "inputs": [
        {
          "indexed": false,
          "internalType": "uint256",
          "name": "aiPot",
          "type": "uint256"
        },
        {
          "indexed": false,
          "internalType": "uint256",
          "name": "spectatorPot",
          "type": "uint256"
        },
        {
          "indexed": false,
          "internalType": "address",
          "name": "winner",
          "type": "address"
        }
      ],
      "name": "PotSizeDebug",
      "type": "event"
    },
    {
      "anonymous": false,
      "inputs": [
        {
          "indexed": true,
          "internalType": "address",
          "name": "spectator",
          "type": "address"
        },
        {
          "indexed": true,
          "internalType": "address",
          "name": "betOnAI",
          "type": "address"
        },
        {
          "indexed": false,
          "internalType": "uint256",
          "name": "betAmount",
          "type": "uint256"
        }
      ],
      "name": "SpectatorJoined",
      "type": "event"
    },
    {
      "anonymous": false,
      "inputs": [
        {
          "indexed": true,
          "internalType": "address",
          "name": "spectator",
          "type": "address"
        },
        {
          "indexed": false,
          "internalType": "uint256",
          "name": "amount",
          "type": "uint256"
        }
      ],
      "name": "SpectatorWinningsPaid",
      "type": "event"
    },
    {
      "anonymous": false,
      "inputs": [
        {
          "indexed": true,
          "internalType": "address",
          "name": "winner",
          "type": "address"
        },
        {
          "indexed": false,
          "internalType": "uint256",
          "name": "winnings",
          "type": "uint256"
        }
      ],
      "name": "WinnerDeclared",
      "type": "event"
    },
    {
      "inputs": [],
      "name": "aiPot",
      "outputs": [
        {
          "internalType": "uint256",
          "name": "",
          "type": "uint256"
        }
      ],
      "stateMutability": "view",
      "type": "function"
    },
    {
      "inputs": [],
      "name": "callBet",
      "outputs": [],
      "stateMutability": "nonpayable",
      "type": "function"
    },
    {
      "inputs": [
        {
          "internalType": "uint256",
          "name": "",
          "type": "uint256"
        }
      ],
      "name": "communityCards",
      "outputs": [
        {
          "internalType": "uint8",
          "name": "",
          "type": "uint8"
        }
      ],
      "stateMutability": "view",
      "type": "function"
    },
    {
      "inputs": [],
      "name": "currentBet",
      "outputs": [
        {
          "internalType": "uint256",
          "name": "",
          "type": "uint256"
        }
      ],
      "stateMutability": "view",
      "type": "function"
    },
    {
      "inputs": [],
      "name": "declareWinner",
      "outputs": [],
      "stateMutability": "nonpayable",
      "type": "function"
    },
    {
      "inputs": [],
      "name": "fold",
      "outputs": [],
      "stateMutability": "nonpayable",
      "type": "function"
    },
    {
      "inputs": [],
      "name": "gameStarted",
      "outputs": [
        {
          "internalType": "bool",
          "name": "",
          "type": "bool"
        }
      ],
      "stateMutability": "view",
      "type": "function"
    },
    {
      "inputs": [],
      "name": "getAIBalances",
      "outputs": [
        {
          "internalType": "uint256[]",
          "name": "",
          "type": "uint256[]"
        }
      ],
      "stateMutability": "view",
      "type": "function"
    },
    {
      "inputs": [],
      "name": "getAllAIPlayerAddresses",
      "outputs": [
        {
          "internalType": "address[]",
          "name": "",
          "type": "address[]"
        }
      ],
      "stateMutability": "view",
      "type": "function"
    },
    {
      "inputs": [],
      "name": "getAllSpectatorAddresses",
      "outputs": [
        {
          "internalType": "address[]",
          "name": "",
          "type": "address[]"
        }
      ],
      "stateMutability": "view",
      "type": "function"
    },
    {
      "inputs": [],
      "name": "getCommunityCards",
      "outputs": [
        {
          "internalType": "uint8[5]",
          "name": "",
          "type": "uint8[5]"
        }
      ],
      "stateMutability": "view",
      "type": "function"
    },
    {
      "inputs": [],
      "name": "getHighestBet",
      "outputs": [
        {
          "internalType": "uint256",
          "name": "",
          "type": "uint256"
        }
      ],
      "stateMutability": "view",
      "type": "function"
    },
    {
      "inputs": [],
      "name": "getHoleCards",
      "outputs": [
        {
          "internalType": "uint8",
          "name": "",
          "type": "uint8"
        },
        {
          "internalType": "uint8",
          "name": "",
          "type": "uint8"
        }
      ],
      "stateMutability": "view",
      "type": "function"
    },
    {
      "inputs": [
        {
          "internalType": "address",
          "name": "player",
          "type": "address"
        }
      ],
      "name": "getPlayerBet",
      "outputs": [
        {
          "internalType": "uint256",
          "name": "",
          "type": "uint256"
        }
      ],
      "stateMutability": "view",
      "type": "function"
    },
    {
      "inputs": [],
      "name": "getSpectatorCount",
      "outputs": [
        {
          "internalType": "uint256",
          "name": "",
          "type": "uint256"
        }
      ],
      "stateMutability": "view",
      "type": "function"
    },
    {
      "inputs": [],
      "name": "hardReset",
      "outputs": [],
      "stateMutability": "nonpayable",
      "type": "function"
    },
    {
      "inputs": [
        {
          "internalType": "address",
          "name": "betOnAI",
          "type": "address"
        }
      ],
      "name": "joinAsSpectator",
      "outputs": [],
      "stateMutability": "payable",
      "type": "function"
    },
    {
      "inputs": [
        {
          "internalType": "uint256",
          "name": "",
          "type": "uint256"
        }
      ],
      "name": "playerAddresses",
      "outputs": [
        {
          "internalType": "address",
          "name": "",
          "type": "address"
        }
      ],
      "stateMutability": "view",
      "type": "function"
    },
    {
      "inputs": [
        {
          "internalType": "address",
          "name": "",
          "type": "address"
        }
      ],
      "name": "players",
      "outputs": [
        {
          "internalType": "address",
          "name": "addr",
          "type": "address"
        },
        {
          "internalType": "uint256",
          "name": "balance",
          "type": "uint256"
        },
        {
          "internalType": "uint256",
          "name": "betAmount",
          "type": "uint256"
        },
        {
          "internalType": "bool",
          "name": "isActive",
          "type": "bool"
        },
        {
          "internalType": "bool",
          "name": "hasFolded",
          "type": "bool"
        }
      ],
      "stateMutability": "view",
      "type": "function"
    },
    {
      "inputs": [
        {
          "internalType": "uint256",
          "name": "amount",
          "type": "uint256"
        }
      ],
      "name": "raiseBet",
      "outputs": [],
      "stateMutability": "nonpayable",
      "type": "function"
    },
    {
      "inputs": [],
      "name": "registerAI",
      "outputs": [],
      "stateMutability": "payable",
      "type": "function"
    },
    {
      "inputs": [
        {
          "internalType": "uint256",
          "name": "",
          "type": "uint256"
        }
      ],
      "name": "spectatorAddresses",
      "outputs": [
        {
          "internalType": "address",
          "name": "",
          "type": "address"
        }
      ],
      "stateMutability": "view",
      "type": "function"
    },
    {
      "inputs": [
        {
          "internalType": "address",
          "name": "",
          "type": "address"
        }
      ],
      "name": "spectatorBets",
      "outputs": [
        {
          "internalType": "address",
          "name": "",
          "type": "address"
        }
      ],
      "stateMutability": "view",
      "type": "function"
    },
    {
      "inputs": [],
      "name": "spectatorPot",
      "outputs": [
        {
          "internalType": "uint256",
          "name": "",
          "type": "uint256"
        }
      ],
      "stateMutability": "view",
      "type": "function"
    },
    {
      "inputs": [
        {
          "internalType": "address",
          "name": "",
          "type": "address"
        }
      ],
      "name": "spectators",
      "outputs": [
        {
          "internalType": "address",
          "name": "addr",
          "type": "address"
        },
        {
          "internalType": "address",
          "name": "betOnAI",
          "type": "address"
        },
        {
          "internalType": "uint256",
          "name": "betAmount",
          "type": "uint256"
        }
      ],
      "stateMutability": "view",
      "type": "function"
    },
    {
      "inputs": [],
      "name": "startGame",
      "outputs": [],
      "stateMutability": "nonpayable",
      "type": "function"
    }
  ],
  "bytecode": "0x60806040523480156200001157600080fd5b50604051620040c7380380620040c78339818101604052810190620000379190620000e8565b806000806101000a81548173ffffffffffffffffffffffffffffffffffffffff021916908373ffffffffffffffffffffffffffffffffffffffff160217905550506200011a565b600080fd5b600073ffffffffffffffffffffffffffffffffffffffff82169050919050565b6000620000b08262000083565b9050919050565b620000c281620000a3565b8114620000ce57600080fd5b50565b600081519050620000e281620000b7565b92915050565b6000602082840312156200010157620001006200007e565b5b60006200011184828501620000d1565b91505092915050565b613f9d806200012a6000396000f3fe6080604052600436106101815760003560e01c80637694c1a9116100d1578063d504cb651161008a578063e684f46a11610064578063e684f46a1461054a578063ef782ee814610561578063eff02a071461058c578063f87fc871146105c957610181565b8063d504cb65146104c7578063d65ab5f2146104f2578063e2eb41ff1461050957610181565b80637694c1a91461039157806385864a70146103bc578063a721e7f1146103e5578063bf25ac5a14610422578063c137d6431461044d578063c2e01b8a1461048a57610181565b80635b4329971161013e57806364239d121161011857806364239d12146102e457806371b094731461030f57806373630c471461033a57806374844e191461036657610181565b80635b432997146102635780635e123ce41461027a5780635f1946b8146102a557610181565b80630a9e0f421461018657806312a2e07b146101a257806314034bd2146101b957806315c6aee2146101d05780633185e5621461020d5780633a864b9814610238575b600080fd5b6101a0600480360381019061019b9190612e91565b6105d3565b005b3480156101ae57600080fd5b506101b76109bf565b005b3480156101c557600080fd5b506101ce610bc4565b005b3480156101dc57600080fd5b506101f760048036038101906101f29190612ef4565b611514565b6040516102049190612f30565b60405180910390f35b34801561021957600080fd5b50610222611553565b60405161022f9190613009565b60405180910390f35b34801561024457600080fd5b5061024d6115e1565b60405161025a919061303a565b60405180910390f35b34801561026f57600080fd5b506102786115ee565b005b34801561028657600080fd5b5061028f6117af565b60405161029c9190613070565b60405180910390f35b3480156102b157600080fd5b506102cc60048036038101906102c79190612e91565b6117c2565b6040516102db9392919061308b565b60405180910390f35b3480156102f057600080fd5b506102f961182c565b6040516103069190613009565b60405180910390f35b34801561031b57600080fd5b506103246118ba565b604051610331919061303a565b60405180910390f35b34801561034657600080fd5b5061034f6118c0565b60405161035d9291906130de565b60405180910390f35b34801561037257600080fd5b5061037b611a30565b60405161038891906131b2565b60405180910390f35b34801561039d57600080fd5b506103a6611aa1565b6040516103b3919061303a565b60405180910390f35b3480156103c857600080fd5b506103e360048036038101906103de9190612ef4565b611be8565b005b3480156103f157600080fd5b5061040c60048036038101906104079190612e91565b611e2f565b6040516104199190612f30565b60405180910390f35b34801561042e57600080fd5b50610437611e62565b604051610444919061328b565b60405180910390f35b34801561045957600080fd5b50610474600480360381019061046f9190612e91565b611f8a565b604051610481919061303a565b60405180910390f35b34801561049657600080fd5b506104b160048036038101906104ac9190612ef4565b611fd6565b6040516104be9190612f30565b60405180910390f35b3480156104d357600080fd5b506104dc612015565b6040516104e9919061303a565b60405180910390f35b3480156104fe57600080fd5b5061050761201b565b005b34801561051557600080fd5b50610530600480360381019061052b9190612e91565b612134565b6040516105419594939291906132ad565b60405180910390f35b34801561055657600080fd5b5061055f6121a4565b005b34801561056d57600080fd5b50610576612315565b604051610583919061303a565b60405180910390f35b34801561059857600080fd5b506105b360048036038101906105ae9190612ef4565b61231b565b6040516105c09190613300565b60405180910390f35b6105d1612345565b005b600a60009054906101000a900460ff1615610623576040517f08c379a000000000000000000000000000000000000000000000000000000000815260040161061a90613378565b60405180910390fd5b65b5e620f48000341461066b576040517f08c379a0000000000000000000000000000000000000000000000000000000008152600401610662906133e4565b60405180910390fd5b600073ffffffffffffffffffffffffffffffffffffffff16600360003373ffffffffffffffffffffffffffffffffffffffff1673ffffffffffffffffffffffffffffffffffffffff16815260200190815260200160002060000160009054906101000a900473ffffffffffffffffffffffffffffffffffffffff1673ffffffffffffffffffffffffffffffffffffffff161461073c576040517f08c379a000000000000000000000000000000000000000000000000000000000815260040161073390613450565b60405180910390fd5b60405180606001604052803373ffffffffffffffffffffffffffffffffffffffff1681526020018273ffffffffffffffffffffffffffffffffffffffff16815260200134815250600360003373ffffffffffffffffffffffffffffffffffffffff1673ffffffffffffffffffffffffffffffffffffffff16815260200190815260200160002060008201518160000160006101000a81548173ffffffffffffffffffffffffffffffffffffffff021916908373ffffffffffffffffffffffffffffffffffffffff16021790555060208201518160010160006101000a81548173ffffffffffffffffffffffffffffffffffffffff021916908373ffffffffffffffffffffffffffffffffffffffff1602179055506040820151816002015590505080600560003373ffffffffffffffffffffffffffffffffffffffff1673ffffffffffffffffffffffffffffffffffffffff16815260200190815260200160002060006101000a81548173ffffffffffffffffffffffffffffffffffffffff021916908373ffffffffffffffffffffffffffffffffffffffff1602179055506004339080600181540180825580915050600190039060005260206000200160009091909190916101000a81548173ffffffffffffffffffffffffffffffffffffffff021916908373ffffffffffffffffffffffffffffffffffffffff1602179055503460086000828254610950919061349f565b925050819055508073ffffffffffffffffffffffffffffffffffffffff163373ffffffffffffffffffffffffffffffffffffffff167fd6e43fa161ce6b5d1c4ac3430d2f9b75ef836681345f189bcb72490bb5389095346040516109b4919061303a565b60405180910390a350565b600073ffffffffffffffffffffffffffffffffffffffff16600260003373ffffffffffffffffffffffffffffffffffffffff1673ffffffffffffffffffffffffffffffffffffffff16815260200190815260200160002060000160009054906101000a900473ffffffffffffffffffffffffffffffffffffffff1673ffffffffffffffffffffffffffffffffffffffff1603610a90576040517f08c379a0000000000000000000000000000000000000000000000000000000008152600401610a879061351f565b60405180910390fd5b6000600260003373ffffffffffffffffffffffffffffffffffffffff1673ffffffffffffffffffffffffffffffffffffffff168152602001908152602001600020905060095481600101541015610b1c576040517f08c379a0000000000000000000000000000000000000000000000000000000008152600401610b139061358b565b60405180910390fd5b600954816001016000828254610b3291906135ab565b92505081905550600954816002016000828254610b4f919061349f565b9250508190555060095460076000828254610b6a919061349f565b925050819055503373ffffffffffffffffffffffffffffffffffffffff167f43e08d78302cdf9c94e1ffd293c2a3696139ee41cf3199b6f5eed9c7f6cc6090600954604051610bb9919061303a565b60405180910390a250565b600a60009054906101000a900460ff16610c13576040517f08c379a0000000000000000000000000000000000000000000000000000000008152600401610c0a9061362b565b60405180910390fd5b6000806000905060005b6006805490508160ff1610156110d757600060068260ff1681548110610c4657610c4561364b565b5b9060005260206000200160009054906101000a900473ffffffffffffffffffffffffffffffffffffffff1690506000600260008373ffffffffffffffffffffffffffffffffffffffff1673ffffffffffffffffffffffffffffffffffffffff1681526020019081526020016000206040518060c00160405290816000820160009054906101000a900473ffffffffffffffffffffffffffffffffffffffff1673ffffffffffffffffffffffffffffffffffffffff1673ffffffffffffffffffffffffffffffffffffffff168152602001600182015481526020016002820154815260200160038201600280602002604051908101604052809291908260028015610d8b576020028201916000905b82829054906101000a900460ff1660ff1681526020019060010190602082600001049283019260010382029150808411610d545790505b505050505081526020016004820160009054906101000a900460ff161515151581526020016004820160019054906101000a900460ff16151515158152505090508060a0015115610ddd5750506110c4565b60006040518060e001604052808360600151600060028110610e0257610e0161364b565b5b602002015160ff1660ff1681526020018360600151600160028110610e2a57610e2961364b565b5b602002015160ff1660ff1681526020016001600060058110610e4f57610e4e61364b565b5b602091828204019190069054906101000a900460ff1660ff1660ff16815260200160018060058110610e8457610e8361364b565b5b602091828204019190069054906101000a900460ff1660ff1660ff1681526020016001600260058110610eba57610eb961364b565b5b602091828204019190069054906101000a900460ff1660ff1660ff1681526020016001600360058110610ef057610eef61364b565b5b602091828204019190069054906101000a900460ff1660ff1660ff1681526020016001600460058110610f2657610f2561364b565b5b602091828204019190069054906101000a900460ff1660ff1660ff168152509050610f4f612d23565b73__$b42c371c512f8fb5c29878ce85a0dd5d0c$__630a685033836040518263ffffffff1660e01b8152600401610f869190613725565b60c060405180830381865af4158015610fa3573d6000803e3d6000fd5b505050506040513d601f19601f82011682018060405250810190610fc791906138b3565b5080915050600073__$b42c371c512f8fb5c29878ce85a0dd5d0c$__6382e58f9e836040518263ffffffff1660e01b81526004016110059190613955565b6040805180830381865af4158015611021573d6000803e3d6000fd5b505050506040513d601f19601f8201168201806040525081019061104591906139ea565b60000151600981111561105b5761105a613a17565b5b90508473ffffffffffffffffffffffffffffffffffffffff167fcce5912fd55ac8855a1d6a2ef24b41d5aee9db336fd03187e2e5d6d1193540b9826040516110a3919061303a565b60405180910390a2868111156110be57809650836000015197505b50505050505b80806110cf90613a46565b915050610c1d565b507fdb9bc7fcaa98c4c53608315f407c5f185a020d109947b9a30878b189b5047cfc8260008060405161110c93929190613ab4565b60405180910390a1600754600260008473ffffffffffffffffffffffffffffffffffffffff1673ffffffffffffffffffffffffffffffffffffffff1681526020019081526020016000206001016000828254611168919061349f565b9250508190555060006007819055508173ffffffffffffffffffffffffffffffffffffffff167f3cf1af53e79884a92609ce59db1ec9f584d88e2d14c8eaba43a21db81318301e600260008573ffffffffffffffffffffffffffffffffffffffff1673ffffffffffffffffffffffffffffffffffffffff168152602001908152602001600020600101546040516111ff919061303a565b60405180910390a26000806000905060005b6004805490508160ff1610156113bd57600060048260ff168154811061123a5761123961364b565b5b9060005260206000200160009054906101000a900473ffffffffffffffffffffffffffffffffffffffff16905060008673ffffffffffffffffffffffffffffffffffffffff16600560008473ffffffffffffffffffffffffffffffffffffffff1673ffffffffffffffffffffffffffffffffffffffff16815260200190815260200160002060009054906101000a900473ffffffffffffffffffffffffffffffffffffffff1673ffffffffffffffffffffffffffffffffffffffff161490507f9749014e173fce1d12dc9a98b5e4663b7d51efea6e8dca7b07496c7db2ca701082600560008573ffffffffffffffffffffffffffffffffffffffff1673ffffffffffffffffffffffffffffffffffffffff16815260200190815260200160002060009054906101000a900473ffffffffffffffffffffffffffffffffffffffff168360405161138b93929190613aeb565b60405180910390a180156113a857819450600854935050506113bd565b505080806113b590613a46565b915050611211565b507fdb9bc7fcaa98c4c53608315f407c5f185a020d109947b9a30878b189b5047cfc8483836040516113f19392919061308b565b60405180910390a160008111156114fe5760008273ffffffffffffffffffffffffffffffffffffffff168260405161142890613b53565b60006040518083038185875af1925050503d8060008114611465576040519150601f19603f3d011682016040523d82523d6000602084013e61146a565b606091505b50509050806114ae576040517f08c379a00000000000000000000000000000000000000000000000000000000081526004016114a590613bda565b60405180910390fd5b8273ffffffffffffffffffffffffffffffffffffffff167fc62b07ede50af94c4e3436d5e1bfe7d8842a4775e4cff45db4bb65e923c63445836040516114f4919061303a565b60405180910390a2505b600060088190555061150e612675565b50505050565b6006818154811061152457600080fd5b906000526020600020016000915054906101000a900473ffffffffffffffffffffffffffffffffffffffff1681565b606060068054806020026020016040519081016040528092919081815260200182805480156115d757602002820191906000526020600020905b8160009054906101000a900473ffffffffffffffffffffffffffffffffffffffff1673ffffffffffffffffffffffffffffffffffffffff168152602001906001019080831161158d575b5050505050905090565b6000600480549050905090565b60005b600480549050811015611796576000600482815481106116145761161361364b565b5b9060005260206000200160009054906101000a900473ffffffffffffffffffffffffffffffffffffffff1690506000600360008373ffffffffffffffffffffffffffffffffffffffff1673ffffffffffffffffffffffffffffffffffffffff16815260200190815260200160002060020154905060008111156117875760008273ffffffffffffffffffffffffffffffffffffffff16826040516116b790613b53565b60006040518083038185875af1925050503d80600081146116f4576040519150601f19603f3d011682016040523d82523d6000602084013e6116f9565b606091505b505090508061173d576040517f08c379a000000000000000000000000000000000000000000000000000000000815260040161173490613c46565b60405180910390fd5b6000600360008573ffffffffffffffffffffffffffffffffffffffff1673ffffffffffffffffffffffffffffffffffffffff16815260200190815260200160002060020181905550505b505080806001019150506115f1565b50600460006117a59190612d45565b6117ad612675565b565b600a60009054906101000a900460ff1681565b60036020528060005260406000206000915090508060000160009054906101000a900473ffffffffffffffffffffffffffffffffffffffff16908060010160009054906101000a900473ffffffffffffffffffffffffffffffffffffffff16908060020154905083565b606060048054806020026020016040519081016040528092919081815260200182805480156118b057602002820191906000526020600020905b8160009054906101000a900473ffffffffffffffffffffffffffffffffffffffff1673ffffffffffffffffffffffffffffffffffffffff1681526020019060010190808311611866575b5050505050905090565b60085481565b600080600260003373ffffffffffffffffffffffffffffffffffffffff1673ffffffffffffffffffffffffffffffffffffffff16815260200190815260200160002060040160009054906101000a900460ff16611952576040517f08c379a000000000000000000000000000000000000000000000000000000000815260040161194990613cb2565b60405180910390fd5b600260003373ffffffffffffffffffffffffffffffffffffffff1673ffffffffffffffffffffffffffffffffffffffff1681526020019081526020016000206003016000600281106119a7576119a661364b565b5b602091828204019190069054906101000a900460ff16600260003373ffffffffffffffffffffffffffffffffffffffff1673ffffffffffffffffffffffffffffffffffffffff168152602001908152602001600020600301600160028110611a1257611a1161364b565b5b602091828204019190069054906101000a900460ff16915091509091565b611a38612d23565b6001600580602002604051908101604052809291908260058015611a97576020028201916000905b82829054906101000a900460ff1660ff1681526020019060010190602082600001049283019260010382029150808411611a605790505b5050505050905090565b6000806000905060005b6006805490508160ff161015611be057816002600060068460ff1681548110611ad757611ad661364b565b5b9060005260206000200160009054906101000a900473ffffffffffffffffffffffffffffffffffffffff1673ffffffffffffffffffffffffffffffffffffffff1673ffffffffffffffffffffffffffffffffffffffff168152602001908152602001600020600201541115611bcd576002600060068360ff1681548110611b6157611b6061364b565b5b9060005260206000200160009054906101000a900473ffffffffffffffffffffffffffffffffffffffff1673ffffffffffffffffffffffffffffffffffffffff1673ffffffffffffffffffffffffffffffffffffffff1681526020019081526020016000206002015491505b8080611bd890613a46565b915050611aab565b508091505090565b600073ffffffffffffffffffffffffffffffffffffffff16600260003373ffffffffffffffffffffffffffffffffffffffff1673ffffffffffffffffffffffffffffffffffffffff16815260200190815260200160002060000160009054906101000a900473ffffffffffffffffffffffffffffffffffffffff1673ffffffffffffffffffffffffffffffffffffffff1603611cb9576040517f08c379a0000000000000000000000000000000000000000000000000000000008152600401611cb09061351f565b60405180910390fd5b6000600260003373ffffffffffffffffffffffffffffffffffffffff1673ffffffffffffffffffffffffffffffffffffffff16815260200190815260200160002090506009548211611d40576040517f08c379a0000000000000000000000000000000000000000000000000000000008152600401611d3790613d44565b60405180910390fd5b8181600101541015611d87576040517f08c379a0000000000000000000000000000000000000000000000000000000008152600401611d7e90613db0565b60405180910390fd5b81816001016000828254611d9b91906135ab565b9250508190555081816002016000828254611db6919061349f565b925050819055508160076000828254611dcf919061349f565b92505081905550816009819055503373ffffffffffffffffffffffffffffffffffffffff167f43e08d78302cdf9c94e1ffd293c2a3696139ee41cf3199b6f5eed9c7f6cc609083604051611e23919061303a565b60405180910390a25050565b60056020528060005260406000206000915054906101000a900473ffffffffffffffffffffffffffffffffffffffff1681565b6060600060068054905067ffffffffffffffff811115611e8557611e84613756565b5b604051908082528060200260200182016040528015611eb35781602001602082028036833780820191505090505b50905060005b6006805490508160ff161015611f82576002600060068360ff1681548110611ee457611ee361364b565b5b9060005260206000200160009054906101000a900473ffffffffffffffffffffffffffffffffffffffff1673ffffffffffffffffffffffffffffffffffffffff1673ffffffffffffffffffffffffffffffffffffffff16815260200190815260200160002060010154828260ff1681518110611f6357611f6261364b565b5b6020026020010181815250508080611f7a90613a46565b915050611eb9565b508091505090565b6000600260008373ffffffffffffffffffffffffffffffffffffffff1673ffffffffffffffffffffffffffffffffffffffff168152602001908152602001600020600201549050919050565b60048181548110611fe657600080fd5b906000526020600020016000915054906101000a900473ffffffffffffffffffffffffffffffffffffffff1681565b60095481565b600260068054905014612063576040517f08c379a000000000000000000000000000000000000000000000000000000000815260040161205a90613e42565b60405180910390fd5b6001600a60006101000a81548160ff02191690831515021790555060008054906101000a900473ffffffffffffffffffffffffffffffffffffffff1673ffffffffffffffffffffffffffffffffffffffff1663b0a3beaf6040518163ffffffff1660e01b8152600401600060405180830381600087803b1580156120e657600080fd5b505af11580156120fa573d6000803e3d6000fd5b505050506121066129c7565b7f762f260439bb4be3ef6e4dc2786e2e7bd187d3d80b79057d7a424fe98563e33560405160405180910390a1565b60026020528060005260406000206000915090508060000160009054906101000a900473ffffffffffffffffffffffffffffffffffffffff16908060010154908060020154908060040160009054906101000a900460ff16908060040160019054906101000a900460ff16905085565b600073ffffffffffffffffffffffffffffffffffffffff16600260003373ffffffffffffffffffffffffffffffffffffffff1673ffffffffffffffffffffffffffffffffffffffff16815260200190815260200160002060000160009054906101000a900473ffffffffffffffffffffffffffffffffffffffff1673ffffffffffffffffffffffffffffffffffffffff1603612275576040517f08c379a000000000000000000000000000000000000000000000000000000000815260040161226c9061351f565b60405180910390fd5b6001600260003373ffffffffffffffffffffffffffffffffffffffff1673ffffffffffffffffffffffffffffffffffffffff16815260200190815260200160002060040160016101000a81548160ff0219169083151502179055503373ffffffffffffffffffffffffffffffffffffffff167fffd9118163057444bb5e3809d9d4297382740f1b9dcc7b984deb91c9dc39aea160405160405180910390a2565b60075481565b6001816005811061232b57600080fd5b60209182820401919006915054906101000a900460ff1681565b600a60009054906101000a900460ff1615612395576040517f08c379a000000000000000000000000000000000000000000000000000000000815260040161238c90613378565b60405180910390fd5b600073ffffffffffffffffffffffffffffffffffffffff16600260003373ffffffffffffffffffffffffffffffffffffffff1673ffffffffffffffffffffffffffffffffffffffff16815260200190815260200160002060000160009054906101000a900473ffffffffffffffffffffffffffffffffffffffff1673ffffffffffffffffffffffffffffffffffffffff1614612466576040517f08c379a000000000000000000000000000000000000000000000000000000000815260040161245d90613eae565b60405180910390fd5b6040518060c001604052803373ffffffffffffffffffffffffffffffffffffffff16815260200160648152602001600081526020016040518060400160405280600060ff1660ff168152602001600060ff1660ff16815250815260200160011515815260200160001515815250600260003373ffffffffffffffffffffffffffffffffffffffff1673ffffffffffffffffffffffffffffffffffffffff16815260200190815260200160002060008201518160000160006101000a81548173ffffffffffffffffffffffffffffffffffffffff021916908373ffffffffffffffffffffffffffffffffffffffff1602179055506020820151816001015560408201518160020155606082015181600301906002612584929190612d66565b5060808201518160040160006101000a81548160ff02191690831515021790555060a08201518160040160016101000a81548160ff0219169083151502179055509050506006339080600181540180825580915050600190039060005260206000200160009091909190916101000a81548173ffffffffffffffffffffffffffffffffffffffff021916908373ffffffffffffffffffffffffffffffffffffffff160217905550600060068054905011612673576040517f08c379a000000000000000000000000000000000000000000000000000000000815260040161266a90613f1a565b60405180910390fd5b565b6000600a60006101000a81548160ff0219169083151502179055506000600781905550600060088190555060005b60058160ff1610156126f557600060018260ff16600581106126c8576126c761364b565b5b602091828204019190066101000a81548160ff021916908360ff16021790555080806001019150506126a3565b5060005b6006805490508160ff16101561281457600060068260ff16815481106127225761272161364b565b5b9060005260206000200160009054906101000a900473ffffffffffffffffffffffffffffffffffffffff169050600260008273ffffffffffffffffffffffffffffffffffffffff1673ffffffffffffffffffffffffffffffffffffffff168152602001908152602001600020600080820160006101000a81549073ffffffffffffffffffffffffffffffffffffffff0219169055600182016000905560028201600090556003820160006127d69190612e00565b6004820160006101000a81549060ff02191690556004820160016101000a81549060ff0219169055505050808061280c90613a46565b9150506126f9565b50600660006128239190612d45565b60005b6004805490508160ff16101561298a57600060048260ff168154811061284f5761284e61364b565b5b9060005260206000200160009054906101000a900473ffffffffffffffffffffffffffffffffffffffff169050600360008273ffffffffffffffffffffffffffffffffffffffff1673ffffffffffffffffffffffffffffffffffffffff168152602001908152602001600020600080820160006101000a81549073ffffffffffffffffffffffffffffffffffffffff02191690556001820160006101000a81549073ffffffffffffffffffffffffffffffffffffffff021916905560028201600090555050600560008273ffffffffffffffffffffffffffffffffffffffff1673ffffffffffffffffffffffffffffffffffffffff16815260200190815260200160002060006101000a81549073ffffffffffffffffffffffffffffffffffffffff021916905550808061298290613a46565b915050612826565b50600460006129999190612d45565b7fc6976b6410888b44c765590c8368eb4a60e0431d4ad683c8a53ea85a8479f22e60405160405180910390a1565b600a60009054906101000a900460ff16612a16576040517f08c379a0000000000000000000000000000000000000000000000000000000008152600401612a0d9061362b565b60405180910390fd5b60005b6006805490508160ff161015612c0f57604051806040016040528060008054906101000a900473ffffffffffffffffffffffffffffffffffffffff1673ffffffffffffffffffffffffffffffffffffffff16632f5be23e6040518163ffffffff1660e01b81526004016020604051808303816000875af1158015612aa1573d6000803e3d6000fd5b505050506040513d601f19601f82011682018060405250810190612ac59190613f3a565b60ff1660ff16815260200160008054906101000a900473ffffffffffffffffffffffffffffffffffffffff1673ffffffffffffffffffffffffffffffffffffffff16632f5be23e6040518163ffffffff1660e01b81526004016020604051808303816000875af1158015612b3d573d6000803e3d6000fd5b505050506040513d601f19601f82011682018060405250810190612b619190613f3a565b60ff1660ff168152506002600060068460ff1681548110612b8557612b8461364b565b5b9060005260206000200160009054906101000a900473ffffffffffffffffffffffffffffffffffffffff1673ffffffffffffffffffffffffffffffffffffffff1673ffffffffffffffffffffffffffffffffffffffff168152602001908152602001600020600301906002612bfb929190612d66565b508080612c0790613a46565b915050612a19565b5060005b60058160ff161015612cf45760008054906101000a900473ffffffffffffffffffffffffffffffffffffffff1673ffffffffffffffffffffffffffffffffffffffff16632f5be23e6040518163ffffffff1660e01b81526004016020604051808303816000875af1158015612c8c573d6000803e3d6000fd5b505050506040513d601f19601f82011682018060405250810190612cb09190613f3a565b60018260ff1660058110612cc757612cc661364b565b5b602091828204019190066101000a81548160ff021916908360ff1602179055508080600101915050612c13565b507f7d5adb4711817e37a920b61d48dbfbb4a780bfa95b55236fc09c18f1171d5d9360405160405180910390a1565b6040518060a00160405280600590602082028036833780820191505090505090565b5080546000825590600052602060002090810190612d639190612e07565b50565b826002601f01602090048101928215612def5791602002820160005b83821115612dc057835183826101000a81548160ff021916908360ff1602179055509260200192600101602081600001049283019260010302612d82565b8015612ded5782816101000a81549060ff0219169055600101602081600001049283019260010302612dc0565b505b509050612dfc9190612e07565b5090565b5060009055565b5b80821115612e20576000816000905550600101612e08565b5090565b6000604051905090565b600080fd5b600073ffffffffffffffffffffffffffffffffffffffff82169050919050565b6000612e5e82612e33565b9050919050565b612e6e81612e53565b8114612e7957600080fd5b50565b600081359050612e8b81612e65565b92915050565b600060208284031215612ea757612ea6612e2e565b5b6000612eb584828501612e7c565b91505092915050565b6000819050919050565b612ed181612ebe565b8114612edc57600080fd5b50565b600081359050612eee81612ec8565b92915050565b600060208284031215612f0a57612f09612e2e565b5b6000612f1884828501612edf565b91505092915050565b612f2a81612e53565b82525050565b6000602082019050612f456000830184612f21565b92915050565b600081519050919050565b600082825260208201905092915050565b6000819050602082019050919050565b612f8081612e53565b82525050565b6000612f928383612f77565b60208301905092915050565b6000602082019050919050565b6000612fb682612f4b565b612fc08185612f56565b9350612fcb83612f67565b8060005b83811015612ffc578151612fe38882612f86565b9750612fee83612f9e565b925050600181019050612fcf565b5085935050505092915050565b600060208201905081810360008301526130238184612fab565b905092915050565b61303481612ebe565b82525050565b600060208201905061304f600083018461302b565b92915050565b60008115159050919050565b61306a81613055565b82525050565b60006020820190506130856000830184613061565b92915050565b60006060820190506130a06000830186612f21565b6130ad6020830185612f21565b6130ba604083018461302b565b949350505050565b600060ff82169050919050565b6130d8816130c2565b82525050565b60006040820190506130f360008301856130cf565b61310060208301846130cf565b9392505050565b600060059050919050565b600081905092915050565b6000819050919050565b613130816130c2565b82525050565b60006131428383613127565b60208301905092915050565b6000602082019050919050565b61316481613107565b61316e8184613112565b92506131798261311d565b8060005b838110156131aa5781516131918782613136565b965061319c8361314e565b92505060018101905061317d565b505050505050565b600060a0820190506131c7600083018461315b565b92915050565b600081519050919050565b600082825260208201905092915050565b6000819050602082019050919050565b61320281612ebe565b82525050565b600061321483836131f9565b60208301905092915050565b6000602082019050919050565b6000613238826131cd565b61324281856131d8565b935061324d836131e9565b8060005b8381101561327e5781516132658882613208565b975061327083613220565b925050600181019050613251565b5085935050505092915050565b600060208201905081810360008301526132a5818461322d565b905092915050565b600060a0820190506132c26000830188612f21565b6132cf602083018761302b565b6132dc604083018661302b565b6132e96060830185613061565b6132f66080830184613061565b9695505050505050565b600060208201905061331560008301846130cf565b92915050565b600082825260208201905092915050565b7f47616d6520616c72656164792073746172746564000000000000000000000000600082015250565b600061336260148361331b565b915061336d8261332c565b602082019050919050565b6000602082019050818103600083015261339181613355565b9050919050565b7f426574206d7573742062652065786163746c7920302e30303032204554480000600082015250565b60006133ce601e8361331b565b91506133d982613398565b602082019050919050565b600060208201905081810360008301526133fd816133c1565b9050919050565b7f416c7265616479206a6f696e656420617320737065637461746f720000000000600082015250565b600061343a601b8361331b565b915061344582613404565b602082019050919050565b600060208201905081810360008301526134698161342d565b9050919050565b7f4e487b7100000000000000000000000000000000000000000000000000000000600052601160045260246000fd5b60006134aa82612ebe565b91506134b583612ebe565b92508282019050808211156134cd576134cc613470565b5b92915050565b7f4e6f742061207265676973746572656420706c61796572000000000000000000600082015250565b600061350960178361331b565b9150613514826134d3565b602082019050919050565b60006020820190508181036000830152613538816134fc565b9050919050565b7f496e73756666696369656e742062616c616e636520746f2063616c6c00000000600082015250565b6000613575601c8361331b565b91506135808261353f565b602082019050919050565b600060208201905081810360008301526135a481613568565b9050919050565b60006135b682612ebe565b91506135c183612ebe565b92508282039050818111156135d9576135d8613470565b5b92915050565b7f47616d6520686173206e6f742073746172746564000000000000000000000000600082015250565b600061361560148361331b565b9150613620826135df565b602082019050919050565b6000602082019050818103600083015261364481613608565b9050919050565b7f4e487b7100000000000000000000000000000000000000000000000000000000600052603260045260246000fd5b600060079050919050565b600081905092915050565b6000819050919050565b6136a3816130c2565b82525050565b60006136b5838361369a565b60208301905092915050565b6000602082019050919050565b6136d78161367a565b6136e18184613685565b92506136ec82613690565b8060005b8381101561371d57815161370487826136a9565b965061370f836136c1565b9250506001810190506136f0565b505050505050565b600060e08201905061373a60008301846136ce565b92915050565b600080fd5b6000601f19601f8301169050919050565b7f4e487b7100000000000000000000000000000000000000000000000000000000600052604160045260246000fd5b61378e82613745565b810181811067ffffffffffffffff821117156137ad576137ac613756565b5b80604052505050565b60006137c0612e24565b90506137cc8282613785565b919050565b600067ffffffffffffffff8211156137ec576137eb613756565b5b602082029050919050565b600080fd5b613805816130c2565b811461381057600080fd5b50565b600081519050613822816137fc565b92915050565b600061383b613836846137d1565b6137b6565b90508060208402830185811115613855576138546137f7565b5b835b8181101561387e578061386a8882613813565b845260208401935050602081019050613857565b5050509392505050565b600082601f83011261389d5761389c613740565b5b60056138aa848285613828565b91505092915050565b60008060c083850312156138ca576138c9612e2e565b5b60006138d885828601613888565b92505060a06138e985828601613813565b9150509250929050565b600081905092915050565b61390781613107565b61391181846138f3565b925061391c8261311d565b8060005b8381101561394d57815161393487826136a9565b965061393f8361314e565b925050600181019050613920565b505050505050565b600060a08201905061396a60008301846138fe565b92915050565b600080fd5b600a811061398257600080fd5b50565b60008151905061399481613975565b92915050565b6000604082840312156139b0576139af613970565b5b6139ba60406137b6565b905060006139ca84828501613985565b60008301525060206139de84828501613813565b60208301525092915050565b600060408284031215613a00576139ff612e2e565b5b6000613a0e8482850161399a565b91505092915050565b7f4e487b7100000000000000000000000000000000000000000000000000000000600052602160045260246000fd5b6000613a51826130c2565b915060ff8203613a6457613a63613470565b5b600182019050919050565b6000819050919050565b6000819050919050565b6000613a9e613a99613a9484613a6f565b613a79565b612ebe565b9050919050565b613aae81613a83565b82525050565b6000606082019050613ac96000830186612f21565b613ad66020830185612f21565b613ae36040830184613aa5565b949350505050565b6000606082019050613b006000830186612f21565b613b0d6020830185612f21565b613b1a6040830184613061565b949350505050565b600081905092915050565b50565b6000613b3d600083613b22565b9150613b4882613b2d565b600082019050919050565b6000613b5e82613b30565b9150819050919050565b7f4661696c656420746f207472616e736665722077696e6e696e677320746f207360008201527f7065637461746f72000000000000000000000000000000000000000000000000602082015250565b6000613bc460288361331b565b9150613bcf82613b68565b604082019050919050565b60006020820190508181036000830152613bf381613bb7565b9050919050565b7f526566756e64206661696c656420666f7220737065637461746f720000000000600082015250565b6000613c30601b8361331b565b9150613c3b82613bfa565b602082019050919050565b60006020820190508181036000830152613c5f81613c23565b9050919050565b7f414920706c61796572206e6f7420666f756e6400000000000000000000000000600082015250565b6000613c9c60138361331b565b9150613ca782613c66565b602082019050919050565b60006020820190508181036000830152613ccb81613c8f565b9050919050565b7f5261697365206d75737420626520686967686572207468616e2063757272656e60008201527f7420626574000000000000000000000000000000000000000000000000000000602082015250565b6000613d2e60258361331b565b9150613d3982613cd2565b604082019050919050565b60006020820190508181036000830152613d5d81613d21565b9050919050565b7f496e73756666696369656e742062616c616e636520746f207261697365000000600082015250565b6000613d9a601d8361331b565b9150613da582613d64565b602082019050919050565b60006020820190508181036000830152613dc981613d8d565b9050919050565b7f4e6f7420656e6f75676820706c617965727320746f207374617274207468652060008201527f67616d6500000000000000000000000000000000000000000000000000000000602082015250565b6000613e2c60248361331b565b9150613e3782613dd0565b604082019050919050565b60006020820190508181036000830152613e5b81613e1f565b9050919050565b7f416c726561647920726567697374657265642061732041490000000000000000600082015250565b6000613e9860188361331b565b9150613ea382613e62565b602082019050919050565b60006020820190508181036000830152613ec781613e8b565b9050919050565b7f706c61796572416464726573736573206e6f74207570646174696e6700000000600082015250565b6000613f04601c8361331b565b9150613f0f82613ece565b602082019050919050565b60006020820190508181036000830152613f3381613ef7565b9050919050565b600060208284031215613f5057613f4f612e2e565b5b6000613f5e84828501613813565b9150509291505056fea2646970667358221220410ebde5158c404c0015bfcc228b2f9ef885934aa94798c5e59fee81d30682ec64736f6c63430008180033",
  "linkReferences": {
    "contracts/PokerHandEvaluator.sol": {
      "PokerHandEvaluator": [
        {
          "length": 20,
          "start": 4219
        },
        {
          "length": 20,
          "start": 4346
        }
      ]
    }
  },
  "deployedLinkReferences": {
    "contracts/PokerHandEvaluator.sol": {
      "PokerHandEvaluator": [
        {
          "length": 20,
          "start": 3921
        },
        {
          "length": 20,
          "start": 4048
        }
      ]
    }
  }
}