{
  "_format": "hh-sol-artifact-1",
  "contractName": "TexasHoldem",
  "sourceName": "contracts/table.sol",
  "abi": [
    {
      "inputs": [
        {
          "internalType": "address",
          "name": "_deckContract",
          "type": "address"
        }
      ],
      "stateMutability": "nonpayable",
      "type": "constructor"
    },
    {
      "anonymous": false,
      "inputs": [
        {
          "indexed": true,
          "internalType": "address",
          "name": "player",
          "type": "address"
        },
        {
          "indexed": false,
          "internalType": "uint256",
          "name": "amount",
          "type": "uint256"
        }
      ],
      "name": "BetPlaced",
      "type": "event"
    },
    {
      "anonymous": false,
      "inputs": [],
      "name": "CardsDealt",
      "type": "event"
    },
    {
      "anonymous": false,
      "inputs": [
        {
          "indexed": true,
          "internalType": "address",
          "name": "ai",
          "type": "address"
        },
        {
          "indexed": false,
          "internalType": "uint256",
          "name": "handRank",
          "type": "uint256"
        }
      ],
      "name": "DebugAIWinnerSelection",
      "type": "event"
    },
    {
      "anonymous": false,
      "inputs": [
        {
          "indexed": false,
          "internalType": "address",
          "name": "winningAI",
          "type": "address"
        },
        {
          "indexed": false,
          "internalType": "address",
          "name": "winningSpectator",
          "type": "address"
        },
        {
          "indexed": false,
          "internalType": "uint256",
          "name": "spectatorWinnings",
          "type": "uint256"
        }
      ],
      "name": "DebugFinalWinner",
      "type": "event"
    },
    {
      "anonymous": false,
      "inputs": [
        {
          "indexed": false,
          "internalType": "address",
          "name": "spectator",
          "type": "address"
        },
        {
          "indexed": false,
          "internalType": "address",
          "name": "betOnAI",
          "type": "address"
        },
        {
          "indexed": false,
          "internalType": "bool",
          "name": "isWinner",
          "type": "bool"
        },
        {
          "indexed": false,
          "internalType": "uint256",
          "name": "payout",
          "type": "uint256"
        }
      ],
      "name": "DebugSpectator",
      "type": "event"
    },
    {
      "anonymous": false,
      "inputs": [
        {
          "indexed": false,
          "internalType": "address",
          "name": "spectator",
          "type": "address"
        },
        {
          "indexed": false,
          "internalType": "address",
          "name": "betOnAI",
          "type": "address"
        },
        {
          "indexed": false,
          "internalType": "bool",
          "name": "isMatch",
          "type": "bool"
        }
      ],
      "name": "DebugSpectatorCheck",
      "type": "event"
    },
    {
      "anonymous": false,
      "inputs": [
        {
          "indexed": false,
          "internalType": "uint256",
          "name": "potAmount",
          "type": "uint256"
        }
      ],
      "name": "DebugSpectatorPot",
      "type": "event"
    },
    {
      "anonymous": false,
      "inputs": [
        {
          "indexed": false,
          "internalType": "address",
          "name": "winningAI",
          "type": "address"
        },
        {
          "indexed": false,
          "internalType": "uint256",
          "name": "aiPot",
          "type": "uint256"
        },
        {
          "indexed": false,
          "internalType": "uint256",
          "name": "spectatorPot",
          "type": "uint256"
        }
      ],
      "name": "DebugWinner",
      "type": "event"
    },
    {
      "anonymous": false,
      "inputs": [
        {
          "indexed": false,
          "internalType": "address",
          "name": "winningAI",
          "type": "address"
        }
      ],
      "name": "DebugWinningAI",
      "type": "event"
    },
    {
      "anonymous": false,
      "inputs": [],
      "name": "GameReset",
      "type": "event"
    },
    {
      "anonymous": false,
      "inputs": [],
      "name": "GameStarted",
      "type": "event"
    },
    {
      "anonymous": false,
      "inputs": [
        {
          "indexed": true,
          "internalType": "address",
          "name": "player",
          "type": "address"
        },
        {
          "indexed": false,
          "internalType": "uint256",
          "name": "betAmount",
          "type": "uint256"
        }
      ],
      "name": "JoinedGame",
      "type": "event"
    },
    {
      "anonymous": false,
      "inputs": [
        {
          "indexed": true,
          "internalType": "address",
          "name": "player",
          "type": "address"
        }
      ],
      "name": "PlayerFolded",
      "type": "event"
    },
    {
      "anonymous": false,
      "inputs": [
        {
          "indexed": false,
          "internalType": "uint256",
          "name": "aiPot",
          "type": "uint256"
        },
        {
          "indexed": false,
          "internalType": "uint256",
          "name": "spectatorPot",
          "type": "uint256"
        },
        {
          "indexed": false,
          "internalType": "address",
          "name": "winner",
          "type": "address"
        }
      ],
      "name": "PotSizeDebug",
      "type": "event"
    },
    {
      "anonymous": false,
      "inputs": [
        {
          "indexed": true,
          "internalType": "address",
          "name": "spectator",
          "type": "address"
        },
        {
          "indexed": true,
          "internalType": "address",
          "name": "betOnAI",
          "type": "address"
        },
        {
          "indexed": false,
          "internalType": "uint256",
          "name": "betAmount",
          "type": "uint256"
        }
      ],
      "name": "SpectatorJoined",
      "type": "event"
    },
    {
      "anonymous": false,
      "inputs": [
        {
          "indexed": true,
          "internalType": "address",
          "name": "spectator",
          "type": "address"
        },
        {
          "indexed": false,
          "internalType": "uint256",
          "name": "amount",
          "type": "uint256"
        }
      ],
      "name": "SpectatorWinningsPaid",
      "type": "event"
    },
    {
      "anonymous": false,
      "inputs": [
        {
          "indexed": true,
          "internalType": "address",
          "name": "winner",
          "type": "address"
        },
        {
          "indexed": false,
          "internalType": "uint256",
          "name": "winnings",
          "type": "uint256"
        }
      ],
      "name": "WinnerDeclared",
      "type": "event"
    },
    {
      "inputs": [],
      "name": "aiPot",
      "outputs": [
        {
          "internalType": "uint256",
          "name": "",
          "type": "uint256"
        }
      ],
      "stateMutability": "view",
      "type": "function"
    },
    {
      "inputs": [],
      "name": "callBet",
      "outputs": [],
      "stateMutability": "nonpayable",
      "type": "function"
    },
    {
      "inputs": [
        {
          "internalType": "uint256",
          "name": "",
          "type": "uint256"
        }
      ],
      "name": "communityCards",
      "outputs": [
        {
          "internalType": "uint8",
          "name": "",
          "type": "uint8"
        }
      ],
      "stateMutability": "view",
      "type": "function"
    },
    {
      "inputs": [],
      "name": "currentBet",
      "outputs": [
        {
          "internalType": "uint256",
          "name": "",
          "type": "uint256"
        }
      ],
      "stateMutability": "view",
      "type": "function"
    },
    {
      "inputs": [],
      "name": "declareWinner",
      "outputs": [],
      "stateMutability": "nonpayable",
      "type": "function"
    },
    {
      "inputs": [],
      "name": "fold",
      "outputs": [],
      "stateMutability": "nonpayable",
      "type": "function"
    },
    {
      "inputs": [],
      "name": "gameStarted",
      "outputs": [
        {
          "internalType": "bool",
          "name": "",
          "type": "bool"
        }
      ],
      "stateMutability": "view",
      "type": "function"
    },
    {
      "inputs": [],
      "name": "getAIBalances",
      "outputs": [
        {
          "internalType": "uint256[]",
          "name": "",
          "type": "uint256[]"
        }
      ],
      "stateMutability": "view",
      "type": "function"
    },
    {
      "inputs": [],
      "name": "getAllAIPlayerAddresses",
      "outputs": [
        {
          "internalType": "address[]",
          "name": "",
          "type": "address[]"
        }
      ],
      "stateMutability": "view",
      "type": "function"
    },
    {
      "inputs": [],
      "name": "getAllSpectatorAddresses",
      "outputs": [
        {
          "internalType": "address[]",
          "name": "",
          "type": "address[]"
        }
      ],
      "stateMutability": "view",
      "type": "function"
    },
    {
      "inputs": [],
      "name": "getCommunityCards",
      "outputs": [
        {
          "internalType": "uint8[5]",
          "name": "",
          "type": "uint8[5]"
        }
      ],
      "stateMutability": "view",
      "type": "function"
    },
    {
      "inputs": [],
      "name": "getHighestBet",
      "outputs": [
        {
          "internalType": "uint256",
          "name": "",
          "type": "uint256"
        }
      ],
      "stateMutability": "view",
      "type": "function"
    },
    {
      "inputs": [],
      "name": "getHoleCards",
      "outputs": [
        {
          "internalType": "uint8[2]",
          "name": "",
          "type": "uint8[2]"
        }
      ],
      "stateMutability": "view",
      "type": "function"
    },
    {
      "inputs": [
        {
          "internalType": "address",
          "name": "player",
          "type": "address"
        }
      ],
      "name": "getPlayerBet",
      "outputs": [
        {
          "internalType": "uint256",
          "name": "",
          "type": "uint256"
        }
      ],
      "stateMutability": "view",
      "type": "function"
    },
    {
      "inputs": [],
      "name": "getSpectatorCount",
      "outputs": [
        {
          "internalType": "uint256",
          "name": "",
          "type": "uint256"
        }
      ],
      "stateMutability": "view",
      "type": "function"
    },
    {
      "inputs": [],
      "name": "hardReset",
      "outputs": [],
      "stateMutability": "nonpayable",
      "type": "function"
    },
    {
      "inputs": [
        {
          "internalType": "address",
          "name": "betOnAI",
          "type": "address"
        }
      ],
      "name": "joinAsSpectator",
      "outputs": [],
      "stateMutability": "payable",
      "type": "function"
    },
    {
      "inputs": [
        {
          "internalType": "uint256",
          "name": "",
          "type": "uint256"
        }
      ],
      "name": "playerAddresses",
      "outputs": [
        {
          "internalType": "address",
          "name": "",
          "type": "address"
        }
      ],
      "stateMutability": "view",
      "type": "function"
    },
    {
      "inputs": [
        {
          "internalType": "address",
          "name": "",
          "type": "address"
        }
      ],
      "name": "players",
      "outputs": [
        {
          "internalType": "address",
          "name": "addr",
          "type": "address"
        },
        {
          "internalType": "uint256",
          "name": "balance",
          "type": "uint256"
        },
        {
          "internalType": "uint256",
          "name": "betAmount",
          "type": "uint256"
        },
        {
          "internalType": "bool",
          "name": "isActive",
          "type": "bool"
        },
        {
          "internalType": "bool",
          "name": "hasFolded",
          "type": "bool"
        }
      ],
      "stateMutability": "view",
      "type": "function"
    },
    {
      "inputs": [
        {
          "internalType": "uint256",
          "name": "amount",
          "type": "uint256"
        }
      ],
      "name": "raiseBet",
      "outputs": [],
      "stateMutability": "nonpayable",
      "type": "function"
    },
    {
      "inputs": [],
      "name": "registerAI",
      "outputs": [],
      "stateMutability": "payable",
      "type": "function"
    },
    {
      "inputs": [
        {
          "internalType": "uint256",
          "name": "",
          "type": "uint256"
        }
      ],
      "name": "spectatorAddresses",
      "outputs": [
        {
          "internalType": "address",
          "name": "",
          "type": "address"
        }
      ],
      "stateMutability": "view",
      "type": "function"
    },
    {
      "inputs": [
        {
          "internalType": "address",
          "name": "",
          "type": "address"
        }
      ],
      "name": "spectatorBets",
      "outputs": [
        {
          "internalType": "address",
          "name": "",
          "type": "address"
        }
      ],
      "stateMutability": "view",
      "type": "function"
    },
    {
      "inputs": [],
      "name": "spectatorPot",
      "outputs": [
        {
          "internalType": "uint256",
          "name": "",
          "type": "uint256"
        }
      ],
      "stateMutability": "view",
      "type": "function"
    },
    {
      "inputs": [
        {
          "internalType": "address",
          "name": "",
          "type": "address"
        }
      ],
      "name": "spectators",
      "outputs": [
        {
          "internalType": "address",
          "name": "addr",
          "type": "address"
        },
        {
          "internalType": "address",
          "name": "betOnAI",
          "type": "address"
        },
        {
          "internalType": "uint256",
          "name": "betAmount",
          "type": "uint256"
        }
      ],
      "stateMutability": "view",
      "type": "function"
    },
    {
      "inputs": [],
      "name": "startGame",
      "outputs": [],
      "stateMutability": "nonpayable",
      "type": "function"
    }
  ],
  "bytecode": "0x60806040523480156200001157600080fd5b506040516200411a3803806200411a8339818101604052810190620000379190620000e8565b806000806101000a81548173ffffffffffffffffffffffffffffffffffffffff021916908373ffffffffffffffffffffffffffffffffffffffff160217905550506200011a565b600080fd5b600073ffffffffffffffffffffffffffffffffffffffff82169050919050565b6000620000b08262000083565b9050919050565b620000c281620000a3565b8114620000ce57600080fd5b50565b600081519050620000e281620000b7565b92915050565b6000602082840312156200010157620001006200007e565b5b60006200011184828501620000d1565b91505092915050565b613ff0806200012a6000396000f3fe6080604052600436106101815760003560e01c80637694c1a9116100d1578063d504cb651161008a578063e684f46a11610064578063e684f46a14610549578063ef782ee814610560578063eff02a071461058b578063f87fc871146105c857610181565b8063d504cb65146104c6578063d65ab5f2146104f1578063e2eb41ff1461050857610181565b80637694c1a91461039057806385864a70146103bb578063a721e7f1146103e4578063bf25ac5a14610421578063c137d6431461044c578063c2e01b8a1461048957610181565b80635b4329971161013e57806364239d121161011857806364239d12146102e457806371b094731461030f57806373630c471461033a57806374844e191461036557610181565b80635b432997146102635780635e123ce41461027a5780635f1946b8146102a557610181565b80630a9e0f421461018657806312a2e07b146101a257806314034bd2146101b957806315c6aee2146101d05780633185e5621461020d5780633a864b9814610238575b600080fd5b6101a0600480360381019061019b9190612e84565b6105d2565b005b3480156101ae57600080fd5b506101b76109be565b005b3480156101c557600080fd5b506101ce610bc3565b005b3480156101dc57600080fd5b506101f760048036038101906101f29190612ee7565b611513565b6040516102049190612f23565b60405180910390f35b34801561021957600080fd5b50610222611552565b60405161022f9190612ffc565b60405180910390f35b34801561024457600080fd5b5061024d6115e0565b60405161025a919061302d565b60405180910390f35b34801561026f57600080fd5b506102786115ed565b005b34801561028657600080fd5b5061028f6117ae565b60405161029c9190613063565b60405180910390f35b3480156102b157600080fd5b506102cc60048036038101906102c79190612e84565b6117c1565b6040516102db9392919061307e565b60405180910390f35b3480156102f057600080fd5b506102f961182b565b6040516103069190612ffc565b60405180910390f35b34801561031b57600080fd5b506103246118b9565b604051610331919061302d565b60405180910390f35b34801561034657600080fd5b5061034f6118bf565b60405161035c919061316d565b60405180910390f35b34801561037157600080fd5b5061037a611a41565b604051610387919061320c565b60405180910390f35b34801561039c57600080fd5b506103a5611ab2565b6040516103b2919061302d565b60405180910390f35b3480156103c757600080fd5b506103e260048036038101906103dd9190612ee7565b611bf9565b005b3480156103f057600080fd5b5061040b60048036038101906104069190612e84565b611e40565b6040516104189190612f23565b60405180910390f35b34801561042d57600080fd5b50610436611e73565b60405161044391906132e5565b60405180910390f35b34801561045857600080fd5b50610473600480360381019061046e9190612e84565b611f9b565b604051610480919061302d565b60405180910390f35b34801561049557600080fd5b506104b060048036038101906104ab9190612ee7565b611fe7565b6040516104bd9190612f23565b60405180910390f35b3480156104d257600080fd5b506104db612026565b6040516104e8919061302d565b60405180910390f35b3480156104fd57600080fd5b5061050661202c565b005b34801561051457600080fd5b5061052f600480360381019061052a9190612e84565b612145565b604051610540959493929190613307565b60405180910390f35b34801561055557600080fd5b5061055e6121b5565b005b34801561056c57600080fd5b50610575612326565b604051610582919061302d565b60405180910390f35b34801561059757600080fd5b506105b260048036038101906105ad9190612ee7565b61232c565b6040516105bf9190613369565b60405180910390f35b6105d0612356565b005b600a60009054906101000a900460ff1615610622576040517f08c379a0000000000000000000000000000000000000000000000000000000008152600401610619906133e1565b60405180910390fd5b65b5e620f48000341461066a576040517f08c379a00000000000000000000000000000000000000000000000000000000081526004016106619061344d565b60405180910390fd5b600073ffffffffffffffffffffffffffffffffffffffff16600360003373ffffffffffffffffffffffffffffffffffffffff1673ffffffffffffffffffffffffffffffffffffffff16815260200190815260200160002060000160009054906101000a900473ffffffffffffffffffffffffffffffffffffffff1673ffffffffffffffffffffffffffffffffffffffff161461073b576040517f08c379a0000000000000000000000000000000000000000000000000000000008152600401610732906134b9565b60405180910390fd5b60405180606001604052803373ffffffffffffffffffffffffffffffffffffffff1681526020018273ffffffffffffffffffffffffffffffffffffffff16815260200134815250600360003373ffffffffffffffffffffffffffffffffffffffff1673ffffffffffffffffffffffffffffffffffffffff16815260200190815260200160002060008201518160000160006101000a81548173ffffffffffffffffffffffffffffffffffffffff021916908373ffffffffffffffffffffffffffffffffffffffff16021790555060208201518160010160006101000a81548173ffffffffffffffffffffffffffffffffffffffff021916908373ffffffffffffffffffffffffffffffffffffffff1602179055506040820151816002015590505080600560003373ffffffffffffffffffffffffffffffffffffffff1673ffffffffffffffffffffffffffffffffffffffff16815260200190815260200160002060006101000a81548173ffffffffffffffffffffffffffffffffffffffff021916908373ffffffffffffffffffffffffffffffffffffffff1602179055506004339080600181540180825580915050600190039060005260206000200160009091909190916101000a81548173ffffffffffffffffffffffffffffffffffffffff021916908373ffffffffffffffffffffffffffffffffffffffff160217905550346008600082825461094f9190613508565b925050819055508073ffffffffffffffffffffffffffffffffffffffff163373ffffffffffffffffffffffffffffffffffffffff167fd6e43fa161ce6b5d1c4ac3430d2f9b75ef836681345f189bcb72490bb5389095346040516109b3919061302d565b60405180910390a350565b600073ffffffffffffffffffffffffffffffffffffffff16600260003373ffffffffffffffffffffffffffffffffffffffff1673ffffffffffffffffffffffffffffffffffffffff16815260200190815260200160002060000160009054906101000a900473ffffffffffffffffffffffffffffffffffffffff1673ffffffffffffffffffffffffffffffffffffffff1603610a8f576040517f08c379a0000000000000000000000000000000000000000000000000000000008152600401610a8690613588565b60405180910390fd5b6000600260003373ffffffffffffffffffffffffffffffffffffffff1673ffffffffffffffffffffffffffffffffffffffff168152602001908152602001600020905060095481600101541015610b1b576040517f08c379a0000000000000000000000000000000000000000000000000000000008152600401610b12906135f4565b60405180910390fd5b600954816001016000828254610b319190613614565b92505081905550600954816002016000828254610b4e9190613508565b9250508190555060095460076000828254610b699190613508565b925050819055503373ffffffffffffffffffffffffffffffffffffffff167f43e08d78302cdf9c94e1ffd293c2a3696139ee41cf3199b6f5eed9c7f6cc6090600954604051610bb8919061302d565b60405180910390a250565b600a60009054906101000a900460ff16610c12576040517f08c379a0000000000000000000000000000000000000000000000000000000008152600401610c0990613694565b60405180910390fd5b6000806000905060005b6006805490508160ff1610156110d657600060068260ff1681548110610c4557610c446136b4565b5b9060005260206000200160009054906101000a900473ffffffffffffffffffffffffffffffffffffffff1690506000600260008373ffffffffffffffffffffffffffffffffffffffff1673ffffffffffffffffffffffffffffffffffffffff1681526020019081526020016000206040518060c00160405290816000820160009054906101000a900473ffffffffffffffffffffffffffffffffffffffff1673ffffffffffffffffffffffffffffffffffffffff1673ffffffffffffffffffffffffffffffffffffffff168152602001600182015481526020016002820154815260200160038201600280602002604051908101604052809291908260028015610d8a576020028201916000905b82829054906101000a900460ff1660ff1681526020019060010190602082600001049283019260010382029150808411610d535790505b505050505081526020016004820160009054906101000a900460ff161515151581526020016004820160019054906101000a900460ff16151515158152505090508060a0015115610ddc5750506110c3565b60006040518060e001604052808360600151600060028110610e0157610e006136b4565b5b602002015160ff1660ff1681526020018360600151600160028110610e2957610e286136b4565b5b602002015160ff1660ff1681526020016001600060058110610e4e57610e4d6136b4565b5b602091828204019190069054906101000a900460ff1660ff1660ff16815260200160018060058110610e8357610e826136b4565b5b602091828204019190069054906101000a900460ff1660ff1660ff1681526020016001600260058110610eb957610eb86136b4565b5b602091828204019190069054906101000a900460ff1660ff1660ff1681526020016001600360058110610eef57610eee6136b4565b5b602091828204019190069054906101000a900460ff1660ff1660ff1681526020016001600460058110610f2557610f246136b4565b5b602091828204019190069054906101000a900460ff1660ff1660ff168152509050610f4e612ced565b73__$b42c371c512f8fb5c29878ce85a0dd5d0c$__630a685033836040518263ffffffff1660e01b8152600401610f85919061378e565b60c060405180830381865af4158015610fa2573d6000803e3d6000fd5b505050506040513d601f19601f82011682018060405250810190610fc6919061391c565b5080915050600073__$b42c371c512f8fb5c29878ce85a0dd5d0c$__6382e58f9e836040518263ffffffff1660e01b815260040161100491906139be565b6040805180830381865af4158015611020573d6000803e3d6000fd5b505050506040513d601f19601f820116820180604052508101906110449190613a53565b60000151600981111561105a57611059613a80565b5b90508473ffffffffffffffffffffffffffffffffffffffff167fcce5912fd55ac8855a1d6a2ef24b41d5aee9db336fd03187e2e5d6d1193540b9826040516110a2919061302d565b60405180910390a2868111156110bd57809650836000015197505b50505050505b80806110ce90613aaf565b915050610c1c565b507fdb9bc7fcaa98c4c53608315f407c5f185a020d109947b9a30878b189b5047cfc8260008060405161110b93929190613b1d565b60405180910390a1600754600260008473ffffffffffffffffffffffffffffffffffffffff1673ffffffffffffffffffffffffffffffffffffffff16815260200190815260200160002060010160008282546111679190613508565b9250508190555060006007819055508173ffffffffffffffffffffffffffffffffffffffff167f3cf1af53e79884a92609ce59db1ec9f584d88e2d14c8eaba43a21db81318301e600260008573ffffffffffffffffffffffffffffffffffffffff1673ffffffffffffffffffffffffffffffffffffffff168152602001908152602001600020600101546040516111fe919061302d565b60405180910390a26000806000905060005b6004805490508160ff1610156113bc57600060048260ff1681548110611239576112386136b4565b5b9060005260206000200160009054906101000a900473ffffffffffffffffffffffffffffffffffffffff16905060008673ffffffffffffffffffffffffffffffffffffffff16600560008473ffffffffffffffffffffffffffffffffffffffff1673ffffffffffffffffffffffffffffffffffffffff16815260200190815260200160002060009054906101000a900473ffffffffffffffffffffffffffffffffffffffff1673ffffffffffffffffffffffffffffffffffffffff161490507f9749014e173fce1d12dc9a98b5e4663b7d51efea6e8dca7b07496c7db2ca701082600560008573ffffffffffffffffffffffffffffffffffffffff1673ffffffffffffffffffffffffffffffffffffffff16815260200190815260200160002060009054906101000a900473ffffffffffffffffffffffffffffffffffffffff168360405161138a93929190613b54565b60405180910390a180156113a757819450600854935050506113bc565b505080806113b490613aaf565b915050611210565b507fdb9bc7fcaa98c4c53608315f407c5f185a020d109947b9a30878b189b5047cfc8483836040516113f09392919061307e565b60405180910390a160008111156114fd5760008273ffffffffffffffffffffffffffffffffffffffff168260405161142790613bbc565b60006040518083038185875af1925050503d8060008114611464576040519150601f19603f3d011682016040523d82523d6000602084013e611469565b606091505b50509050806114ad576040517f08c379a00000000000000000000000000000000000000000000000000000000081526004016114a490613c43565b60405180910390fd5b8273ffffffffffffffffffffffffffffffffffffffff167fc62b07ede50af94c4e3436d5e1bfe7d8842a4775e4cff45db4bb65e923c63445836040516114f3919061302d565b60405180910390a2505b600060088190555061150d612687565b50505050565b6006818154811061152357600080fd5b906000526020600020016000915054906101000a900473ffffffffffffffffffffffffffffffffffffffff1681565b606060068054806020026020016040519081016040528092919081815260200182805480156115d657602002820191906000526020600020905b8160009054906101000a900473ffffffffffffffffffffffffffffffffffffffff1673ffffffffffffffffffffffffffffffffffffffff168152602001906001019080831161158c575b5050505050905090565b6000600480549050905090565b60005b60048054905081101561179557600060048281548110611613576116126136b4565b5b9060005260206000200160009054906101000a900473ffffffffffffffffffffffffffffffffffffffff1690506000600360008373ffffffffffffffffffffffffffffffffffffffff1673ffffffffffffffffffffffffffffffffffffffff16815260200190815260200160002060020154905060008111156117865760008273ffffffffffffffffffffffffffffffffffffffff16826040516116b690613bbc565b60006040518083038185875af1925050503d80600081146116f3576040519150601f19603f3d011682016040523d82523d6000602084013e6116f8565b606091505b505090508061173c576040517f08c379a000000000000000000000000000000000000000000000000000000000815260040161173390613caf565b60405180910390fd5b6000600360008573ffffffffffffffffffffffffffffffffffffffff1673ffffffffffffffffffffffffffffffffffffffff16815260200190815260200160002060020181905550505b505080806001019150506115f0565b50600460006117a49190612d0f565b6117ac612687565b565b600a60009054906101000a900460ff1681565b60036020528060005260406000206000915090508060000160009054906101000a900473ffffffffffffffffffffffffffffffffffffffff16908060010160009054906101000a900473ffffffffffffffffffffffffffffffffffffffff16908060020154905083565b606060048054806020026020016040519081016040528092919081815260200182805480156118af57602002820191906000526020600020905b8160009054906101000a900473ffffffffffffffffffffffffffffffffffffffff1673ffffffffffffffffffffffffffffffffffffffff1681526020019060010190808311611865575b5050505050905090565b60085481565b6118c7612d30565b600073ffffffffffffffffffffffffffffffffffffffff16600260003373ffffffffffffffffffffffffffffffffffffffff1673ffffffffffffffffffffffffffffffffffffffff16815260200190815260200160002060000160009054906101000a900473ffffffffffffffffffffffffffffffffffffffff1673ffffffffffffffffffffffffffffffffffffffff1603611998576040517f08c379a000000000000000000000000000000000000000000000000000000000815260040161198f90613d1b565b60405180910390fd5b600260003373ffffffffffffffffffffffffffffffffffffffff1673ffffffffffffffffffffffffffffffffffffffff168152602001908152602001600020600301600280602002604051908101604052809291908260028015611a37576020028201916000905b82829054906101000a900460ff1660ff1681526020019060010190602082600001049283019260010382029150808411611a005790505b5050505050905090565b611a49612ced565b6001600580602002604051908101604052809291908260058015611aa8576020028201916000905b82829054906101000a900460ff1660ff1681526020019060010190602082600001049283019260010382029150808411611a715790505b5050505050905090565b6000806000905060005b6006805490508160ff161015611bf157816002600060068460ff1681548110611ae857611ae76136b4565b5b9060005260206000200160009054906101000a900473ffffffffffffffffffffffffffffffffffffffff1673ffffffffffffffffffffffffffffffffffffffff1673ffffffffffffffffffffffffffffffffffffffff168152602001908152602001600020600201541115611bde576002600060068360ff1681548110611b7257611b716136b4565b5b9060005260206000200160009054906101000a900473ffffffffffffffffffffffffffffffffffffffff1673ffffffffffffffffffffffffffffffffffffffff1673ffffffffffffffffffffffffffffffffffffffff1681526020019081526020016000206002015491505b8080611be990613aaf565b915050611abc565b508091505090565b600073ffffffffffffffffffffffffffffffffffffffff16600260003373ffffffffffffffffffffffffffffffffffffffff1673ffffffffffffffffffffffffffffffffffffffff16815260200190815260200160002060000160009054906101000a900473ffffffffffffffffffffffffffffffffffffffff1673ffffffffffffffffffffffffffffffffffffffff1603611cca576040517f08c379a0000000000000000000000000000000000000000000000000000000008152600401611cc190613588565b60405180910390fd5b6000600260003373ffffffffffffffffffffffffffffffffffffffff1673ffffffffffffffffffffffffffffffffffffffff16815260200190815260200160002090506009548211611d51576040517f08c379a0000000000000000000000000000000000000000000000000000000008152600401611d4890613dad565b60405180910390fd5b8181600101541015611d98576040517f08c379a0000000000000000000000000000000000000000000000000000000008152600401611d8f90613e19565b60405180910390fd5b81816001016000828254611dac9190613614565b9250508190555081816002016000828254611dc79190613508565b925050819055508160076000828254611de09190613508565b92505081905550816009819055503373ffffffffffffffffffffffffffffffffffffffff167f43e08d78302cdf9c94e1ffd293c2a3696139ee41cf3199b6f5eed9c7f6cc609083604051611e34919061302d565b60405180910390a25050565b60056020528060005260406000206000915054906101000a900473ffffffffffffffffffffffffffffffffffffffff1681565b6060600060068054905067ffffffffffffffff811115611e9657611e956137bf565b5b604051908082528060200260200182016040528015611ec45781602001602082028036833780820191505090505b50905060005b6006805490508160ff161015611f93576002600060068360ff1681548110611ef557611ef46136b4565b5b9060005260206000200160009054906101000a900473ffffffffffffffffffffffffffffffffffffffff1673ffffffffffffffffffffffffffffffffffffffff1673ffffffffffffffffffffffffffffffffffffffff16815260200190815260200160002060010154828260ff1681518110611f7457611f736136b4565b5b6020026020010181815250508080611f8b90613aaf565b915050611eca565b508091505090565b6000600260008373ffffffffffffffffffffffffffffffffffffffff1673ffffffffffffffffffffffffffffffffffffffff168152602001908152602001600020600201549050919050565b60048181548110611ff757600080fd5b906000526020600020016000915054906101000a900473ffffffffffffffffffffffffffffffffffffffff1681565b60095481565b600260068054905014612074576040517f08c379a000000000000000000000000000000000000000000000000000000000815260040161206b90613eab565b60405180910390fd5b6001600a60006101000a81548160ff02191690831515021790555060008054906101000a900473ffffffffffffffffffffffffffffffffffffffff1673ffffffffffffffffffffffffffffffffffffffff1663b0a3beaf6040518163ffffffff1660e01b8152600401600060405180830381600087803b1580156120f757600080fd5b505af115801561210b573d6000803e3d6000fd5b50505050612117612991565b7f762f260439bb4be3ef6e4dc2786e2e7bd187d3d80b79057d7a424fe98563e33560405160405180910390a1565b60026020528060005260406000206000915090508060000160009054906101000a900473ffffffffffffffffffffffffffffffffffffffff16908060010154908060020154908060040160009054906101000a900460ff16908060040160019054906101000a900460ff16905085565b600073ffffffffffffffffffffffffffffffffffffffff16600260003373ffffffffffffffffffffffffffffffffffffffff1673ffffffffffffffffffffffffffffffffffffffff16815260200190815260200160002060000160009054906101000a900473ffffffffffffffffffffffffffffffffffffffff1673ffffffffffffffffffffffffffffffffffffffff1603612286576040517f08c379a000000000000000000000000000000000000000000000000000000000815260040161227d90613588565b60405180910390fd5b6001600260003373ffffffffffffffffffffffffffffffffffffffff1673ffffffffffffffffffffffffffffffffffffffff16815260200190815260200160002060040160016101000a81548160ff0219169083151502179055503373ffffffffffffffffffffffffffffffffffffffff167fffd9118163057444bb5e3809d9d4297382740f1b9dcc7b984deb91c9dc39aea160405160405180910390a2565b60075481565b6001816005811061233c57600080fd5b60209182820401919006915054906101000a900460ff1681565b600a60009054906101000a900460ff16156123a6576040517f08c379a000000000000000000000000000000000000000000000000000000000815260040161239d906133e1565b60405180910390fd5b600073ffffffffffffffffffffffffffffffffffffffff16600260003373ffffffffffffffffffffffffffffffffffffffff1673ffffffffffffffffffffffffffffffffffffffff16815260200190815260200160002060000160009054906101000a900473ffffffffffffffffffffffffffffffffffffffff1673ffffffffffffffffffffffffffffffffffffffff1614612477576040517f08c379a000000000000000000000000000000000000000000000000000000000815260040161246e90613f17565b60405180910390fd5b6040518060c001604052803373ffffffffffffffffffffffffffffffffffffffff16815260200160648152602001600081526020016040518060400160405280600060ff168152602001600060ff16815250815260200160011515815260200160001515815250600260003373ffffffffffffffffffffffffffffffffffffffff1673ffffffffffffffffffffffffffffffffffffffff16815260200190815260200160002060008201518160000160006101000a81548173ffffffffffffffffffffffffffffffffffffffff021916908373ffffffffffffffffffffffffffffffffffffffff160217905550602082015181600101556040820151816002015560608201518160030190600261258f929190612d52565b5060808201518160040160006101000a81548160ff02191690831515021790555060a08201518160040160016101000a81548160ff0219169083151502179055509050506006339080600181540180825580915050600190039060005260206000200160009091909190916101000a81548173ffffffffffffffffffffffffffffffffffffffff021916908373ffffffffffffffffffffffffffffffffffffffff1602179055503373ffffffffffffffffffffffffffffffffffffffff167f485fd86c2a7d2d9ca3bf02e2ba776ea24271bc62274265b0bd5f478b3b7a1ca4606460405161267d9190613f72565b60405180910390a2565b6000600a60006101000a81548160ff02191690831515021790555060006007819055506000600881905550600160006126c09190612dec565b60005b6006805490508160ff1610156127de57600060068260ff16815481106126ec576126eb6136b4565b5b9060005260206000200160009054906101000a900473ffffffffffffffffffffffffffffffffffffffff169050600260008273ffffffffffffffffffffffffffffffffffffffff1673ffffffffffffffffffffffffffffffffffffffff168152602001908152602001600020600080820160006101000a81549073ffffffffffffffffffffffffffffffffffffffff0219169055600182016000905560028201600090556003820160006127a09190612df3565b6004820160006101000a81549060ff02191690556004820160016101000a81549060ff021916905550505080806127d690613aaf565b9150506126c3565b50600660006127ed9190612d0f565b60005b6004805490508160ff16101561295457600060048260ff1681548110612819576128186136b4565b5b9060005260206000200160009054906101000a900473ffffffffffffffffffffffffffffffffffffffff169050600360008273ffffffffffffffffffffffffffffffffffffffff1673ffffffffffffffffffffffffffffffffffffffff168152602001908152602001600020600080820160006101000a81549073ffffffffffffffffffffffffffffffffffffffff02191690556001820160006101000a81549073ffffffffffffffffffffffffffffffffffffffff021916905560028201600090555050600560008273ffffffffffffffffffffffffffffffffffffffff1673ffffffffffffffffffffffffffffffffffffffff16815260200190815260200160002060006101000a81549073ffffffffffffffffffffffffffffffffffffffff021916905550808061294c90613aaf565b9150506127f0565b50600460006129639190612d0f565b7fc6976b6410888b44c765590c8368eb4a60e0431d4ad683c8a53ea85a8479f22e60405160405180910390a1565b600a60009054906101000a900460ff166129e0576040517f08c379a00000000000000000000000000000000000000000000000000000000081526004016129d790613694565b60405180910390fd5b60005b6006805490508160ff161015612bd957604051806040016040528060008054906101000a900473ffffffffffffffffffffffffffffffffffffffff1673ffffffffffffffffffffffffffffffffffffffff16632f5be23e6040518163ffffffff1660e01b81526004016020604051808303816000875af1158015612a6b573d6000803e3d6000fd5b505050506040513d601f19601f82011682018060405250810190612a8f9190613f8d565b60ff1660ff16815260200160008054906101000a900473ffffffffffffffffffffffffffffffffffffffff1673ffffffffffffffffffffffffffffffffffffffff16632f5be23e6040518163ffffffff1660e01b81526004016020604051808303816000875af1158015612b07573d6000803e3d6000fd5b505050506040513d601f19601f82011682018060405250810190612b2b9190613f8d565b60ff1660ff168152506002600060068460ff1681548110612b4f57612b4e6136b4565b5b9060005260206000200160009054906101000a900473ffffffffffffffffffffffffffffffffffffffff1673ffffffffffffffffffffffffffffffffffffffff1673ffffffffffffffffffffffffffffffffffffffff168152602001908152602001600020600301906002612bc5929190612d52565b508080612bd190613aaf565b9150506129e3565b5060005b60058160ff161015612cbe5760008054906101000a900473ffffffffffffffffffffffffffffffffffffffff1673ffffffffffffffffffffffffffffffffffffffff16632f5be23e6040518163ffffffff1660e01b81526004016020604051808303816000875af1158015612c56573d6000803e3d6000fd5b505050506040513d601f19601f82011682018060405250810190612c7a9190613f8d565b60018260ff1660058110612c9157612c906136b4565b5b602091828204019190066101000a81548160ff021916908360ff1602179055508080600101915050612bdd565b507f7d5adb4711817e37a920b61d48dbfbb4a780bfa95b55236fc09c18f1171d5d9360405160405180910390a1565b6040518060a00160405280600590602082028036833780820191505090505090565b5080546000825590600052602060002090810190612d2d9190612dfa565b50565b6040518060400160405280600290602082028036833780820191505090505090565b826002601f01602090048101928215612ddb5791602002820160005b83821115612dac57835183826101000a81548160ff021916908360ff1602179055509260200192600101602081600001049283019260010302612d6e565b8015612dd95782816101000a81549060ff0219169055600101602081600001049283019260010302612dac565b505b509050612de89190612dfa565b5090565b5060009055565b5060009055565b5b80821115612e13576000816000905550600101612dfb565b5090565b6000604051905090565b600080fd5b600073ffffffffffffffffffffffffffffffffffffffff82169050919050565b6000612e5182612e26565b9050919050565b612e6181612e46565b8114612e6c57600080fd5b50565b600081359050612e7e81612e58565b92915050565b600060208284031215612e9a57612e99612e21565b5b6000612ea884828501612e6f565b91505092915050565b6000819050919050565b612ec481612eb1565b8114612ecf57600080fd5b50565b600081359050612ee181612ebb565b92915050565b600060208284031215612efd57612efc612e21565b5b6000612f0b84828501612ed2565b91505092915050565b612f1d81612e46565b82525050565b6000602082019050612f386000830184612f14565b92915050565b600081519050919050565b600082825260208201905092915050565b6000819050602082019050919050565b612f7381612e46565b82525050565b6000612f858383612f6a565b60208301905092915050565b6000602082019050919050565b6000612fa982612f3e565b612fb38185612f49565b9350612fbe83612f5a565b8060005b83811015612fef578151612fd68882612f79565b9750612fe183612f91565b925050600181019050612fc2565b5085935050505092915050565b600060208201905081810360008301526130168184612f9e565b905092915050565b61302781612eb1565b82525050565b6000602082019050613042600083018461301e565b92915050565b60008115159050919050565b61305d81613048565b82525050565b60006020820190506130786000830184613054565b92915050565b60006060820190506130936000830186612f14565b6130a06020830185612f14565b6130ad604083018461301e565b949350505050565b600060029050919050565b600081905092915050565b6000819050919050565b600060ff82169050919050565b6130eb816130d5565b82525050565b60006130fd83836130e2565b60208301905092915050565b6000602082019050919050565b61311f816130b5565b61312981846130c0565b9250613134826130cb565b8060005b8381101561316557815161314c87826130f1565b965061315783613109565b925050600181019050613138565b505050505050565b60006040820190506131826000830184613116565b92915050565b600060059050919050565b600081905092915050565b6000819050919050565b6000602082019050919050565b6131be81613188565b6131c88184613193565b92506131d38261319e565b8060005b838110156132045781516131eb87826130f1565b96506131f6836131a8565b9250506001810190506131d7565b505050505050565b600060a08201905061322160008301846131b5565b92915050565b600081519050919050565b600082825260208201905092915050565b6000819050602082019050919050565b61325c81612eb1565b82525050565b600061326e8383613253565b60208301905092915050565b6000602082019050919050565b600061329282613227565b61329c8185613232565b93506132a783613243565b8060005b838110156132d85781516132bf8882613262565b97506132ca8361327a565b9250506001810190506132ab565b5085935050505092915050565b600060208201905081810360008301526132ff8184613287565b905092915050565b600060a08201905061331c6000830188612f14565b613329602083018761301e565b613336604083018661301e565b6133436060830185613054565b6133506080830184613054565b9695505050505050565b613363816130d5565b82525050565b600060208201905061337e600083018461335a565b92915050565b600082825260208201905092915050565b7f47616d6520616c72656164792073746172746564000000000000000000000000600082015250565b60006133cb601483613384565b91506133d682613395565b602082019050919050565b600060208201905081810360008301526133fa816133be565b9050919050565b7f426574206d7573742062652065786163746c7920302e30303032204554480000600082015250565b6000613437601e83613384565b915061344282613401565b602082019050919050565b600060208201905081810360008301526134668161342a565b9050919050565b7f416c7265616479206a6f696e656420617320737065637461746f720000000000600082015250565b60006134a3601b83613384565b91506134ae8261346d565b602082019050919050565b600060208201905081810360008301526134d281613496565b9050919050565b7f4e487b7100000000000000000000000000000000000000000000000000000000600052601160045260246000fd5b600061351382612eb1565b915061351e83612eb1565b9250828201905080821115613536576135356134d9565b5b92915050565b7f4e6f742061207265676973746572656420706c61796572000000000000000000600082015250565b6000613572601783613384565b915061357d8261353c565b602082019050919050565b600060208201905081810360008301526135a181613565565b9050919050565b7f496e73756666696369656e742062616c616e636520746f2063616c6c00000000600082015250565b60006135de601c83613384565b91506135e9826135a8565b602082019050919050565b6000602082019050818103600083015261360d816135d1565b9050919050565b600061361f82612eb1565b915061362a83612eb1565b9250828203905081811115613642576136416134d9565b5b92915050565b7f47616d6520686173206e6f742073746172746564000000000000000000000000600082015250565b600061367e601483613384565b915061368982613648565b602082019050919050565b600060208201905081810360008301526136ad81613671565b9050919050565b7f4e487b7100000000000000000000000000000000000000000000000000000000600052603260045260246000fd5b600060079050919050565b600081905092915050565b6000819050919050565b61370c816130d5565b82525050565b600061371e8383613703565b60208301905092915050565b6000602082019050919050565b613740816136e3565b61374a81846136ee565b9250613755826136f9565b8060005b8381101561378657815161376d8782613712565b96506137788361372a565b925050600181019050613759565b505050505050565b600060e0820190506137a36000830184613737565b92915050565b600080fd5b6000601f19601f8301169050919050565b7f4e487b7100000000000000000000000000000000000000000000000000000000600052604160045260246000fd5b6137f7826137ae565b810181811067ffffffffffffffff82111715613816576138156137bf565b5b80604052505050565b6000613829612e17565b905061383582826137ee565b919050565b600067ffffffffffffffff821115613855576138546137bf565b5b602082029050919050565b600080fd5b61386e816130d5565b811461387957600080fd5b50565b60008151905061388b81613865565b92915050565b60006138a461389f8461383a565b61381f565b905080602084028301858111156138be576138bd613860565b5b835b818110156138e757806138d3888261387c565b8452602084019350506020810190506138c0565b5050509392505050565b600082601f830112613906576139056137a9565b5b6005613913848285613891565b91505092915050565b60008060c0838503121561393357613932612e21565b5b6000613941858286016138f1565b92505060a06139528582860161387c565b9150509250929050565b600081905092915050565b61397081613188565b61397a818461395c565b92506139858261319e565b8060005b838110156139b657815161399d8782613712565b96506139a8836131a8565b925050600181019050613989565b505050505050565b600060a0820190506139d36000830184613967565b92915050565b600080fd5b600a81106139eb57600080fd5b50565b6000815190506139fd816139de565b92915050565b600060408284031215613a1957613a186139d9565b5b613a23604061381f565b90506000613a33848285016139ee565b6000830152506020613a478482850161387c565b60208301525092915050565b600060408284031215613a6957613a68612e21565b5b6000613a7784828501613a03565b91505092915050565b7f4e487b7100000000000000000000000000000000000000000000000000000000600052602160045260246000fd5b6000613aba826130d5565b915060ff8203613acd57613acc6134d9565b5b600182019050919050565b6000819050919050565b6000819050919050565b6000613b07613b02613afd84613ad8565b613ae2565b612eb1565b9050919050565b613b1781613aec565b82525050565b6000606082019050613b326000830186612f14565b613b3f6020830185612f14565b613b4c6040830184613b0e565b949350505050565b6000606082019050613b696000830186612f14565b613b766020830185612f14565b613b836040830184613054565b949350505050565b600081905092915050565b50565b6000613ba6600083613b8b565b9150613bb182613b96565b600082019050919050565b6000613bc782613b99565b9150819050919050565b7f4661696c656420746f207472616e736665722077696e6e696e677320746f207360008201527f7065637461746f72000000000000000000000000000000000000000000000000602082015250565b6000613c2d602883613384565b9150613c3882613bd1565b604082019050919050565b60006020820190508181036000830152613c5c81613c20565b9050919050565b7f526566756e64206661696c656420666f7220737065637461746f720000000000600082015250565b6000613c99601b83613384565b9150613ca482613c63565b602082019050919050565b60006020820190508181036000830152613cc881613c8c565b9050919050565b7f414920706c61796572206e6f7420666f756e6400000000000000000000000000600082015250565b6000613d05601383613384565b9150613d1082613ccf565b602082019050919050565b60006020820190508181036000830152613d3481613cf8565b9050919050565b7f5261697365206d75737420626520686967686572207468616e2063757272656e60008201527f7420626574000000000000000000000000000000000000000000000000000000602082015250565b6000613d97602583613384565b9150613da282613d3b565b604082019050919050565b60006020820190508181036000830152613dc681613d8a565b9050919050565b7f496e73756666696369656e742062616c616e636520746f207261697365000000600082015250565b6000613e03601d83613384565b9150613e0e82613dcd565b602082019050919050565b60006020820190508181036000830152613e3281613df6565b9050919050565b7f4e6f7420656e6f75676820706c617965727320746f207374617274207468652060008201527f67616d6500000000000000000000000000000000000000000000000000000000602082015250565b6000613e95602483613384565b9150613ea082613e39565b604082019050919050565b60006020820190508181036000830152613ec481613e88565b9050919050565b7f416c726561647920726567697374657265642061732041490000000000000000600082015250565b6000613f01601883613384565b9150613f0c82613ecb565b602082019050919050565b60006020820190508181036000830152613f3081613ef4565b9050919050565b6000819050919050565b6000613f5c613f57613f5284613f37565b613ae2565b612eb1565b9050919050565b613f6c81613f41565b82525050565b6000602082019050613f876000830184613f63565b92915050565b600060208284031215613fa357613fa2612e21565b5b6000613fb18482850161387c565b9150509291505056fea2646970667358221220c645ddfc634005662ac310eab61be39975a8a2c8199c9f6b562590dea59236cd64736f6c63430008180033",
  "linkReferences": {
    "contracts/PokerHandEvaluator.sol": {
      "PokerHandEvaluator": [
        {
          "length": 20,
          "start": 4218
        },
        {
          "length": 20,
          "start": 4345
        }
      ]
    }
  },
  "deployedLinkReferences": {
    "contracts/PokerHandEvaluator.sol": {
      "PokerHandEvaluator": [
        {
          "length": 20,
          "start": 3920
        },
        {
          "length": 20,
          "start": 4047
        }
      ]
    }
  }
}