{
  "_format": "hh-sol-artifact-1",
  "contractName": "TestPokerHandEvaluator",
  "sourceName": "contracts/TestPokerHandEvaluator.sol",
  "abi": [
    {
      "inputs": [
        {
          "internalType": "uint8[5]",
          "name": "cards",
          "type": "uint8[5]"
        }
      ],
      "name": "evaluateHand",
      "outputs": [
        {
          "components": [
            {
              "internalType": "enum PokerHandEvaluator.HandRank",
              "name": "rank",
              "type": "uint8"
            },
            {
              "internalType": "uint8",
              "name": "highestCard",
              "type": "uint8"
            }
          ],
          "internalType": "struct PokerHandEvaluator.Hand",
          "name": "",
          "type": "tuple"
        }
      ],
      "stateMutability": "pure",
      "type": "function"
    }
  ],
  "bytecode": "0x608060405234801561001057600080fd5b50610559806100206000396000f3fe608060405234801561001057600080fd5b506004361061002b5760003560e01c806382e58f9e14610030575b600080fd5b61004a600480360381019061004591906102a4565b610060565b6040516100579190610386565b60405180910390f35b6100686100e6565b73__$b42c371c512f8fb5c29878ce85a0dd5d0c$__6382e58f9e836040518263ffffffff1660e01b815260040161009f919061044c565b6040805180830381865af41580156100bb573d6000803e3d6000fd5b505050506040513d601f19601f820116820180604052508101906100df91906104f6565b9050919050565b604051806040016040528060006009811115610105576101046102d1565b5b8152602001600060ff1681525090565b6000604051905090565b600080fd5b600080fd5b6000601f19601f8301169050919050565b7f4e487b7100000000000000000000000000000000000000000000000000000000600052604160045260246000fd5b61017282610129565b810181811067ffffffffffffffff821117156101915761019061013a565b5b80604052505050565b60006101a4610115565b90506101b08282610169565b919050565b600067ffffffffffffffff8211156101d0576101cf61013a565b5b602082029050919050565b600080fd5b600060ff82169050919050565b6101f6816101e0565b811461020157600080fd5b50565b600081359050610213816101ed565b92915050565b600061022c610227846101b5565b61019a565b90508060208402830185811115610246576102456101db565b5b835b8181101561026f578061025b8882610204565b845260208401935050602081019050610248565b5050509392505050565b600082601f83011261028e5761028d610124565b5b600561029b848285610219565b91505092915050565b600060a082840312156102ba576102b961011f565b5b60006102c884828501610279565b91505092915050565b7f4e487b7100000000000000000000000000000000000000000000000000000000600052602160045260246000fd5b600a8110610311576103106102d1565b5b50565b600081905061032282610300565b919050565b600061033282610314565b9050919050565b61034281610327565b82525050565b610351816101e0565b82525050565b60408201600082015161036d6000850182610339565b5060208201516103806020850182610348565b50505050565b600060408201905061039b6000830184610357565b92915050565b600060059050919050565b600081905092915050565b6000819050919050565b6103ca816101e0565b82525050565b60006103dc83836103c1565b60208301905092915050565b6000602082019050919050565b6103fe816103a1565b61040881846103ac565b9250610413826103b7565b8060005b8381101561044457815161042b87826103d0565b9650610436836103e8565b925050600181019050610417565b505050505050565b600060a08201905061046160008301846103f5565b92915050565b600080fd5b600a811061047957600080fd5b50565b60008151905061048b8161046c565b92915050565b6000815190506104a0816101ed565b92915050565b6000604082840312156104bc576104bb610467565b5b6104c6604061019a565b905060006104d68482850161047c565b60008301525060206104ea84828501610491565b60208301525092915050565b60006040828403121561050c5761050b61011f565b5b600061051a848285016104a6565b9150509291505056fea26469706673582212208dd40d74742a199e0156b3c627439bf45c22c1c99f60c4ff53cd24fa9db0149664736f6c63430008180033",
  "linkReferences": {
    "contracts/PokerHandEvaluator.sol": {
      "PokerHandEvaluator": [
        {
          "length": 20,
          "start": 138
        }
      ]
    }
  },
  "deployedLinkReferences": {
    "contracts/PokerHandEvaluator.sol": {
      "PokerHandEvaluator": [
        {
          "length": 20,
          "start": 106
        }
      ]
    }
  }
}