{
  "_format": "hh-sol-artifact-1",
  "contractName": "Deck",
  "sourceName": "contracts/Deck.sol",
  "abi": [
    {
      "inputs": [],
      "stateMutability": "nonpayable",
      "type": "constructor"
    },
    {
      "inputs": [],
      "name": "drawCard",
      "outputs": [
        {
          "internalType": "uint8",
          "name": "",
          "type": "uint8"
        }
      ],
      "stateMutability": "nonpayable",
      "type": "function"
    },
    {
      "inputs": [
        {
          "internalType": "uint8",
          "name": "cardIndex",
          "type": "uint8"
        }
      ],
      "name": "getCardString",
      "outputs": [
        {
          "internalType": "string",
          "name": "",
          "type": "string"
        }
      ],
      "stateMutability": "pure",
      "type": "function"
    },
    {
      "inputs": [],
      "name": "lastDrawnCard",
      "outputs": [
        {
          "internalType": "uint8",
          "name": "",
          "type": "uint8"
        }
      ],
      "stateMutability": "view",
      "type": "function"
    },
    {
      "inputs": [],
      "name": "shuffleDeck",
      "outputs": [],
      "stateMutability": "nonpayable",
      "type": "function"
    }
  ],
  "bytecode": "0x60806040523480156200001157600080fd5b50620000226200002860201b60201c565b62000139565b60005b60348160ff1610156200008f57600181620000479190620000ce565b60008260ff16603481106200006157620000606200010a565b5b602091828204019190066101000a81548160ff021916908360ff16021790555080806001019150506200002b565b50565b600060ff82169050919050565b7f4e487b7100000000000000000000000000000000000000000000000000000000600052601160045260246000fd5b6000620000db8262000092565b9150620000e88362000092565b9250828201905060ff8111156200010457620001036200009f565b5b92915050565b7f4e487b7100000000000000000000000000000000000000000000000000000000600052603260045260246000fd5b610e4980620001496000396000f3fe608060405234801561001057600080fd5b506004361061004c5760003560e01c80632f5be23e146100515780633371ce4a1461006f578063948f5f451461008d578063b0a3beaf146100bd575b600080fd5b6100596100c7565b604051610066919061088e565b60405180910390f35b6100776101b0565b604051610084919061088e565b60405180910390f35b6100a760048036038101906100a291906108da565b6101c3565b6040516100b49190610997565b60405180910390f35b6100c56106bd565b005b60006034600260009054906101000a900460ff1660ff161061011e576040517f08c379a000000000000000000000000000000000000000000000000000000000815260040161011590610a05565b60405180910390fd5b60006002600081819054906101000a900460ff168092919061013f90610a54565b91906101000a81548160ff021916908360ff16021790555060ff166034811061016b5761016a610a7d565b5b602091828204019190069054906101000a900460ff16600260016101000a81548160ff021916908360ff160217905550600260019054906101000a900460ff16905090565b600260019054906101000a900460ff1681565b606060018260ff16101580156101dd575060348260ff1611155b61021c576040517f08c379a000000000000000000000000000000000000000000000000000000000815260040161021390610af8565b60405180910390fd5b6000604051806101a001604052806040518060400160405280600381526020017f416365000000000000000000000000000000000000000000000000000000000081525081526020016040518060400160405280600181526020017f320000000000000000000000000000000000000000000000000000000000000081525081526020016040518060400160405280600181526020017f330000000000000000000000000000000000000000000000000000000000000081525081526020016040518060400160405280600181526020017f340000000000000000000000000000000000000000000000000000000000000081525081526020016040518060400160405280600181526020017f350000000000000000000000000000000000000000000000000000000000000081525081526020016040518060400160405280600181526020017f360000000000000000000000000000000000000000000000000000000000000081525081526020016040518060400160405280600181526020017f370000000000000000000000000000000000000000000000000000000000000081525081526020016040518060400160405280600181526020017f380000000000000000000000000000000000000000000000000000000000000081525081526020016040518060400160405280600181526020017f390000000000000000000000000000000000000000000000000000000000000081525081526020016040518060400160405280600281526020017f313000000000000000000000000000000000000000000000000000000000000081525081526020016040518060400160405280600481526020017f4a61636b0000000000000000000000000000000000000000000000000000000081525081526020016040518060400160405280600581526020017f517565656e00000000000000000000000000000000000000000000000000000081525081526020016040518060400160405280600481526020017f4b696e67000000000000000000000000000000000000000000000000000000008152508152509050600060405180608001604052806040518060400160405280600581526020017f436c75627300000000000000000000000000000000000000000000000000000081525081526020016040518060400160405280600881526020017f4469616d6f6e647300000000000000000000000000000000000000000000000081525081526020016040518060400160405280600681526020017f486561727473000000000000000000000000000000000000000000000000000081525081526020016040518060400160405280600681526020017f537061646573000000000000000000000000000000000000000000000000000081525081525090506000600d6001866106339190610b18565b61063d9190610b7c565b90506000600d6001876106509190610b18565b61065a9190610bad565b9050838260ff16600d811061067257610671610a7d565b5b6020020151838260ff166004811061068d5761068c610a7d565b5b60200201516040516020016106a3929190610c66565b604051602081830303815290604052945050505050919050565b6106c561080f565b60005b60348160ff1610156107f057600060344233846040516020016106ed93929190610d70565b6040516020818303038152906040528051906020012060001c6107109190610dad565b905060008160ff166034811061072957610728610a7d565b5b602091828204019190069054906101000a900460ff1660008360ff166034811061075657610755610a7d565b5b602091828204019190069054906101000a900460ff1660008460ff166034811061078357610782610a7d565b5b6020918282040191900660008560ff16603481106107a4576107a3610a7d565b5b602091828204019190068491906101000a81548160ff021916908360ff1602179055508391906101000a81548160ff021916908360ff16021790555050505080806001019150506106c8565b506000600260006101000a81548160ff021916908360ff160217905550565b60005b60348160ff16101561086f5760018161082b9190610dde565b60008260ff166034811061084257610841610a7d565b5b602091828204019190066101000a81548160ff021916908360ff1602179055508080600101915050610812565b50565b600060ff82169050919050565b61088881610872565b82525050565b60006020820190506108a3600083018461087f565b92915050565b600080fd5b6108b781610872565b81146108c257600080fd5b50565b6000813590506108d4816108ae565b92915050565b6000602082840312156108f0576108ef6108a9565b5b60006108fe848285016108c5565b91505092915050565b600081519050919050565b600082825260208201905092915050565b60005b83811015610941578082015181840152602081019050610926565b60008484015250505050565b6000601f19601f8301169050919050565b600061096982610907565b6109738185610912565b9350610983818560208601610923565b61098c8161094d565b840191505092915050565b600060208201905081810360008301526109b1818461095e565b905092915050565b7f4465636b20697320656d70747900000000000000000000000000000000000000600082015250565b60006109ef600d83610912565b91506109fa826109b9565b602082019050919050565b60006020820190508181036000830152610a1e816109e2565b9050919050565b7f4e487b7100000000000000000000000000000000000000000000000000000000600052601160045260246000fd5b6000610a5f82610872565b915060ff8203610a7257610a71610a25565b5b600182019050919050565b7f4e487b7100000000000000000000000000000000000000000000000000000000600052603260045260246000fd5b7f496e76616c6964206361726420696e6465780000000000000000000000000000600082015250565b6000610ae2601283610912565b9150610aed82610aac565b602082019050919050565b60006020820190508181036000830152610b1181610ad5565b9050919050565b6000610b2382610872565b9150610b2e83610872565b9250828203905060ff811115610b4757610b46610a25565b5b92915050565b7f4e487b7100000000000000000000000000000000000000000000000000000000600052601260045260246000fd5b6000610b8782610872565b9150610b9283610872565b925082610ba257610ba1610b4d565b5b828206905092915050565b6000610bb882610872565b9150610bc383610872565b925082610bd357610bd2610b4d565b5b828204905092915050565b600081905092915050565b6000610bf482610907565b610bfe8185610bde565b9350610c0e818560208601610923565b80840191505092915050565b7f206f662000000000000000000000000000000000000000000000000000000000600082015250565b6000610c50600483610bde565b9150610c5b82610c1a565b600482019050919050565b6000610c728285610be9565b9150610c7d82610c43565b9150610c898284610be9565b91508190509392505050565b6000819050919050565b6000819050919050565b610cba610cb582610c95565b610c9f565b82525050565b600073ffffffffffffffffffffffffffffffffffffffff82169050919050565b6000610ceb82610cc0565b9050919050565b60008160601b9050919050565b6000610d0a82610cf2565b9050919050565b6000610d1c82610cff565b9050919050565b610d34610d2f82610ce0565b610d11565b82525050565b60008160f81b9050919050565b6000610d5282610d3a565b9050919050565b610d6a610d6582610872565b610d47565b82525050565b6000610d7c8286610ca9565b602082019150610d8c8285610d23565b601482019150610d9c8284610d59565b600182019150819050949350505050565b6000610db882610c95565b9150610dc383610c95565b925082610dd357610dd2610b4d565b5b828206905092915050565b6000610de982610872565b9150610df483610872565b9250828201905060ff811115610e0d57610e0c610a25565b5b9291505056fea26469706673582212202daeda8674c6a34f51a909ef4c5f84d8ad6c9cad763e351e76f460f1c8f1946b64736f6c63430008180033",
  "linkReferences": {},
  "deployedLinkReferences": {}
}