{
  "_format": "hh-sol-artifact-1",
  "contractName": "TexasHoldem",
  "sourceName": "contracts/table.sol",
  "abi": [
    {
      "inputs": [
        {
          "internalType": "address",
          "name": "_deckContract",
          "type": "address"
        }
      ],
      "stateMutability": "nonpayable",
      "type": "constructor"
    },
    {
      "anonymous": false,
      "inputs": [
        {
          "indexed": true,
          "internalType": "address",
          "name": "player",
          "type": "address"
        },
        {
          "indexed": false,
          "internalType": "uint256",
          "name": "amount",
          "type": "uint256"
        }
      ],
      "name": "BetPlaced",
      "type": "event"
    },
    {
      "anonymous": false,
      "inputs": [],
      "name": "CardsDealt",
      "type": "event"
    },
    {
      "anonymous": false,
      "inputs": [
        {
          "indexed": true,
          "internalType": "address",
          "name": "ai",
          "type": "address"
        },
        {
          "indexed": false,
          "internalType": "uint256",
          "name": "handRank",
          "type": "uint256"
        }
      ],
      "name": "DebugAIWinnerSelection",
      "type": "event"
    },
    {
      "anonymous": false,
      "inputs": [
        {
          "indexed": false,
          "internalType": "address",
          "name": "winningAI",
          "type": "address"
        },
        {
          "indexed": false,
          "internalType": "address",
          "name": "winningSpectator",
          "type": "address"
        },
        {
          "indexed": false,
          "internalType": "uint256",
          "name": "spectatorWinnings",
          "type": "uint256"
        }
      ],
      "name": "DebugFinalWinner",
      "type": "event"
    },
    {
      "anonymous": false,
      "inputs": [
        {
          "indexed": false,
          "internalType": "address",
          "name": "spectator",
          "type": "address"
        },
        {
          "indexed": false,
          "internalType": "address",
          "name": "betOnAI",
          "type": "address"
        },
        {
          "indexed": false,
          "internalType": "bool",
          "name": "isWinner",
          "type": "bool"
        },
        {
          "indexed": false,
          "internalType": "uint256",
          "name": "payout",
          "type": "uint256"
        }
      ],
      "name": "DebugSpectator",
      "type": "event"
    },
    {
      "anonymous": false,
      "inputs": [
        {
          "indexed": false,
          "internalType": "address",
          "name": "spectator",
          "type": "address"
        },
        {
          "indexed": false,
          "internalType": "address",
          "name": "betOnAI",
          "type": "address"
        },
        {
          "indexed": false,
          "internalType": "bool",
          "name": "isMatch",
          "type": "bool"
        }
      ],
      "name": "DebugSpectatorCheck",
      "type": "event"
    },
    {
      "anonymous": false,
      "inputs": [
        {
          "indexed": false,
          "internalType": "uint256",
          "name": "potAmount",
          "type": "uint256"
        }
      ],
      "name": "DebugSpectatorPot",
      "type": "event"
    },
    {
      "anonymous": false,
      "inputs": [
        {
          "indexed": false,
          "internalType": "address",
          "name": "winningAI",
          "type": "address"
        },
        {
          "indexed": false,
          "internalType": "uint256",
          "name": "aiPot",
          "type": "uint256"
        },
        {
          "indexed": false,
          "internalType": "uint256",
          "name": "spectatorPot",
          "type": "uint256"
        }
      ],
      "name": "DebugWinner",
      "type": "event"
    },
    {
      "anonymous": false,
      "inputs": [
        {
          "indexed": false,
          "internalType": "address",
          "name": "winningAI",
          "type": "address"
        }
      ],
      "name": "DebugWinningAI",
      "type": "event"
    },
    {
      "anonymous": false,
      "inputs": [],
      "name": "GameStarted",
      "type": "event"
    },
    {
      "anonymous": false,
      "inputs": [
        {
          "indexed": true,
          "internalType": "address",
          "name": "player",
          "type": "address"
        },
        {
          "indexed": false,
          "internalType": "uint256",
          "name": "betAmount",
          "type": "uint256"
        }
      ],
      "name": "JoinedGame",
      "type": "event"
    },
    {
      "anonymous": false,
      "inputs": [
        {
          "indexed": true,
          "internalType": "address",
          "name": "player",
          "type": "address"
        }
      ],
      "name": "PlayerFolded",
      "type": "event"
    },
    {
      "anonymous": false,
      "inputs": [
        {
          "indexed": false,
          "internalType": "uint256",
          "name": "aiPot",
          "type": "uint256"
        },
        {
          "indexed": false,
          "internalType": "uint256",
          "name": "spectatorPot",
          "type": "uint256"
        },
        {
          "indexed": false,
          "internalType": "address",
          "name": "winner",
          "type": "address"
        }
      ],
      "name": "PotSizeDebug",
      "type": "event"
    },
    {
      "anonymous": false,
      "inputs": [
        {
          "indexed": true,
          "internalType": "address",
          "name": "spectator",
          "type": "address"
        },
        {
          "indexed": true,
          "internalType": "address",
          "name": "betOnAI",
          "type": "address"
        },
        {
          "indexed": false,
          "internalType": "uint256",
          "name": "betAmount",
          "type": "uint256"
        }
      ],
      "name": "SpectatorJoined",
      "type": "event"
    },
    {
      "anonymous": false,
      "inputs": [
        {
          "indexed": true,
          "internalType": "address",
          "name": "spectator",
          "type": "address"
        },
        {
          "indexed": false,
          "internalType": "uint256",
          "name": "amount",
          "type": "uint256"
        }
      ],
      "name": "SpectatorWinningsPaid",
      "type": "event"
    },
    {
      "anonymous": false,
      "inputs": [
        {
          "indexed": true,
          "internalType": "address",
          "name": "winner",
          "type": "address"
        },
        {
          "indexed": false,
          "internalType": "uint256",
          "name": "winnings",
          "type": "uint256"
        }
      ],
      "name": "WinnerDeclared",
      "type": "event"
    },
    {
      "inputs": [],
      "name": "AI_PLAYER_1",
      "outputs": [
        {
          "internalType": "address",
          "name": "",
          "type": "address"
        }
      ],
      "stateMutability": "view",
      "type": "function"
    },
    {
      "inputs": [],
      "name": "AI_PLAYER_2",
      "outputs": [
        {
          "internalType": "address",
          "name": "",
          "type": "address"
        }
      ],
      "stateMutability": "view",
      "type": "function"
    },
    {
      "inputs": [],
      "name": "aiPot",
      "outputs": [
        {
          "internalType": "uint256",
          "name": "",
          "type": "uint256"
        }
      ],
      "stateMutability": "view",
      "type": "function"
    },
    {
      "inputs": [],
      "name": "callBet",
      "outputs": [],
      "stateMutability": "nonpayable",
      "type": "function"
    },
    {
      "inputs": [
        {
          "internalType": "uint256",
          "name": "",
          "type": "uint256"
        }
      ],
      "name": "communityCards",
      "outputs": [
        {
          "internalType": "uint8",
          "name": "",
          "type": "uint8"
        }
      ],
      "stateMutability": "view",
      "type": "function"
    },
    {
      "inputs": [],
      "name": "currentBet",
      "outputs": [
        {
          "internalType": "uint256",
          "name": "",
          "type": "uint256"
        }
      ],
      "stateMutability": "view",
      "type": "function"
    },
    {
      "inputs": [],
      "name": "declareWinner",
      "outputs": [],
      "stateMutability": "nonpayable",
      "type": "function"
    },
    {
      "inputs": [],
      "name": "declareWinnerForTesting",
      "outputs": [],
      "stateMutability": "nonpayable",
      "type": "function"
    },
    {
      "inputs": [
        {
          "internalType": "address",
          "name": "aiWinner",
          "type": "address"
        },
        {
          "internalType": "address",
          "name": "spectator",
          "type": "address"
        }
      ],
      "name": "declareWinnerTest",
      "outputs": [],
      "stateMutability": "nonpayable",
      "type": "function"
    },
    {
      "inputs": [],
      "name": "fold",
      "outputs": [],
      "stateMutability": "nonpayable",
      "type": "function"
    },
    {
      "inputs": [
        {
          "internalType": "address",
          "name": "aiWinner",
          "type": "address"
        }
      ],
      "name": "forceAIWinner",
      "outputs": [],
      "stateMutability": "nonpayable",
      "type": "function"
    },
    {
      "inputs": [
        {
          "internalType": "address",
          "name": "spectator",
          "type": "address"
        }
      ],
      "name": "forceSpectatorWinner",
      "outputs": [],
      "stateMutability": "nonpayable",
      "type": "function"
    },
    {
      "inputs": [],
      "name": "gameStarted",
      "outputs": [
        {
          "internalType": "bool",
          "name": "",
          "type": "bool"
        }
      ],
      "stateMutability": "view",
      "type": "function"
    },
    {
      "inputs": [],
      "name": "getAIBalances",
      "outputs": [
        {
          "internalType": "uint256",
          "name": "ai1Balance",
          "type": "uint256"
        },
        {
          "internalType": "uint256",
          "name": "ai2Balance",
          "type": "uint256"
        }
      ],
      "stateMutability": "view",
      "type": "function"
    },
    {
      "inputs": [],
      "name": "getCommunityCards",
      "outputs": [
        {
          "internalType": "uint8[5]",
          "name": "",
          "type": "uint8[5]"
        }
      ],
      "stateMutability": "view",
      "type": "function"
    },
    {
      "inputs": [],
      "name": "getHighestBet",
      "outputs": [
        {
          "internalType": "uint256",
          "name": "",
          "type": "uint256"
        }
      ],
      "stateMutability": "view",
      "type": "function"
    },
    {
      "inputs": [],
      "name": "getHoleCards",
      "outputs": [
        {
          "internalType": "uint8[2]",
          "name": "",
          "type": "uint8[2]"
        }
      ],
      "stateMutability": "view",
      "type": "function"
    },
    {
      "inputs": [
        {
          "internalType": "address",
          "name": "player",
          "type": "address"
        }
      ],
      "name": "getPlayerBet",
      "outputs": [
        {
          "internalType": "uint256",
          "name": "",
          "type": "uint256"
        }
      ],
      "stateMutability": "view",
      "type": "function"
    },
    {
      "inputs": [],
      "name": "getSpectatorCount",
      "outputs": [
        {
          "internalType": "uint256",
          "name": "count",
          "type": "uint256"
        }
      ],
      "stateMutability": "view",
      "type": "function"
    },
    {
      "inputs": [],
      "name": "getWinningAIForTesting",
      "outputs": [
        {
          "internalType": "address",
          "name": "",
          "type": "address"
        }
      ],
      "stateMutability": "view",
      "type": "function"
    },
    {
      "inputs": [
        {
          "internalType": "address",
          "name": "betOnAI",
          "type": "address"
        }
      ],
      "name": "joinAsSpectator",
      "outputs": [],
      "stateMutability": "payable",
      "type": "function"
    },
    {
      "inputs": [
        {
          "internalType": "uint256",
          "name": "",
          "type": "uint256"
        }
      ],
      "name": "playerAddresses",
      "outputs": [
        {
          "internalType": "address",
          "name": "",
          "type": "address"
        }
      ],
      "stateMutability": "view",
      "type": "function"
    },
    {
      "inputs": [
        {
          "internalType": "address",
          "name": "",
          "type": "address"
        }
      ],
      "name": "players",
      "outputs": [
        {
          "internalType": "address",
          "name": "addr",
          "type": "address"
        },
        {
          "internalType": "uint256",
          "name": "balance",
          "type": "uint256"
        },
        {
          "internalType": "uint256",
          "name": "betAmount",
          "type": "uint256"
        },
        {
          "internalType": "bool",
          "name": "isActive",
          "type": "bool"
        },
        {
          "internalType": "bool",
          "name": "hasFolded",
          "type": "bool"
        }
      ],
      "stateMutability": "view",
      "type": "function"
    },
    {
      "inputs": [
        {
          "internalType": "uint256",
          "name": "amount",
          "type": "uint256"
        }
      ],
      "name": "raiseBet",
      "outputs": [],
      "stateMutability": "nonpayable",
      "type": "function"
    },
    {
      "inputs": [
        {
          "internalType": "uint256",
          "name": "",
          "type": "uint256"
        }
      ],
      "name": "spectatorAddresses",
      "outputs": [
        {
          "internalType": "address",
          "name": "",
          "type": "address"
        }
      ],
      "stateMutability": "view",
      "type": "function"
    },
    {
      "inputs": [
        {
          "internalType": "address",
          "name": "",
          "type": "address"
        }
      ],
      "name": "spectatorBets",
      "outputs": [
        {
          "internalType": "address",
          "name": "",
          "type": "address"
        }
      ],
      "stateMutability": "view",
      "type": "function"
    },
    {
      "inputs": [],
      "name": "spectatorPot",
      "outputs": [
        {
          "internalType": "uint256",
          "name": "",
          "type": "uint256"
        }
      ],
      "stateMutability": "view",
      "type": "function"
    },
    {
      "inputs": [
        {
          "internalType": "address",
          "name": "",
          "type": "address"
        }
      ],
      "name": "spectators",
      "outputs": [
        {
          "internalType": "address",
          "name": "addr",
          "type": "address"
        },
        {
          "internalType": "address",
          "name": "betOnAI",
          "type": "address"
        },
        {
          "internalType": "uint256",
          "name": "betAmount",
          "type": "uint256"
        }
      ],
      "stateMutability": "view",
      "type": "function"
    },
    {
      "inputs": [],
      "name": "startGame",
      "outputs": [],
      "stateMutability": "nonpayable",
      "type": "function"
    }
  ],
  "bytecode": "0x60806040523480156200001157600080fd5b5060405162005199380380620051998339818101604052810190620000379190620000e8565b806000806101000a81548173ffffffffffffffffffffffffffffffffffffffff021916908373ffffffffffffffffffffffffffffffffffffffff160217905550506200011a565b600080fd5b600073ffffffffffffffffffffffffffffffffffffffff82169050919050565b6000620000b08262000083565b9050919050565b620000c281620000a3565b8114620000ce57600080fd5b50565b600081519050620000e281620000b7565b92915050565b6000602082840312156200010157620001006200007e565b5b60006200011184828501620000d1565b91505092915050565b61506f806200012a6000396000f3fe6080604052600436106101c25760003560e01c80637694c1a9116100f7578063c137d64311610095578063e2eb41ff11610064578063e2eb41ff146105f0578063e684f46a14610631578063ef782ee814610648578063eff02a0714610673576101c2565b8063c137d64314610534578063c2e01b8a14610571578063d504cb65146105ae578063d65ab5f2146105d9576101c2565b806391a9a405116100d157806391a9a40514610477578063a721e7f1146104a2578063aaeea100146104df578063bf25ac5a14610508576101c2565b80637694c1a9146103f8578063780c72eb1461042357806385864a701461044e576101c2565b806352775054116101645780635f1946b81161013e5780635f1946b81461033857806371b094731461037757806373630c47146103a257806374844e19146103cd576101c2565b806352775054146102cb578063582427f1146102f65780635e123ce41461030d576101c2565b806314034bd2116101a057806314034bd21461022357806315c6aee21461023a57806335257063146102775780633a864b98146102a0576101c2565b80630a9e0f42146101c75780631025db80146101e357806312a2e07b1461020c575b600080fd5b6101e160048036038101906101dc9190613f3a565b6106b0565b005b3480156101ef57600080fd5b5061020a60048036038101906102059190613f67565b610b68565b005b34801561021857600080fd5b50610221610f07565b005b34801561022f57600080fd5b50610238611107565b005b34801561024657600080fd5b50610261600480360381019061025c9190613fdd565b611b05565b60405161026e9190614019565b60405180910390f35b34801561028357600080fd5b5061029e60048036038101906102999190613f3a565b611b44565b005b3480156102ac57600080fd5b506102b5611d06565b6040516102c29190614043565b60405180910390f35b3480156102d757600080fd5b506102e0611e1d565b6040516102ed9190614019565b60405180910390f35b34801561030257600080fd5b5061030b611e35565b005b34801561031957600080fd5b50610322612340565b60405161032f9190614079565b60405180910390f35b34801561034457600080fd5b5061035f600480360381019061035a9190613f3a565b612353565b60405161036e93929190614094565b60405180910390f35b34801561038357600080fd5b5061038c6123bd565b6040516103999190614043565b60405180910390f35b3480156103ae57600080fd5b506103b76123c3565b6040516103c49190614183565b60405180910390f35b3480156103d957600080fd5b506103e2612545565b6040516103ef9190614222565b60405180910390f35b34801561040457600080fd5b5061040d6125b6565b60405161041a9190614043565b60405180910390f35b34801561042f57600080fd5b506104386126fd565b6040516104459190614019565b60405180910390f35b34801561045a57600080fd5b5061047560048036038101906104709190613fdd565b612c2b565b005b34801561048357600080fd5b5061048c612e6d565b6040516104999190614019565b60405180910390f35b3480156104ae57600080fd5b506104c960048036038101906104c49190613f3a565b612e85565b6040516104d69190614019565b60405180910390f35b3480156104eb57600080fd5b5061050660048036038101906105019190613f3a565b612eb8565b005b34801561051457600080fd5b5061051d613097565b60405161052b92919061423d565b60405180910390f35b34801561054057600080fd5b5061055b60048036038101906105569190613f3a565b613150565b6040516105689190614043565b60405180910390f35b34801561057d57600080fd5b5061059860048036038101906105939190613fdd565b61319c565b6040516105a59190614019565b60405180910390f35b3480156105ba57600080fd5b506105c36131db565b6040516105d09190614043565b60405180910390f35b3480156105e557600080fd5b506105ee6131e1565b005b3480156105fc57600080fd5b5061061760048036038101906106129190613f3a565b613334565b604051610628959493929190614266565b60405180910390f35b34801561063d57600080fd5b506106466133a4565b005b34801561065457600080fd5b5061065d613510565b60405161066a9190614043565b60405180910390f35b34801561067f57600080fd5b5061069a60048036038101906106959190613fdd565b613516565b6040516106a791906142c8565b60405180910390f35b600a60009054906101000a900460ff1615610700576040517f08c379a00000000000000000000000000000000000000000000000000000000081526004016106f790614340565b60405180910390fd5b65b5e620f480003414610748576040517f08c379a000000000000000000000000000000000000000000000000000000000815260040161073f906143ac565b60405180910390fd5b600073ffffffffffffffffffffffffffffffffffffffff16600360003373ffffffffffffffffffffffffffffffffffffffff1673ffffffffffffffffffffffffffffffffffffffff16815260200190815260200160002060000160009054906101000a900473ffffffffffffffffffffffffffffffffffffffff1673ffffffffffffffffffffffffffffffffffffffff1614610819576040517f08c379a000000000000000000000000000000000000000000000000000000000815260040161081090614418565b60405180910390fd5b73f0b88b96491f3fce34c353a5dd9e68e6efc6b6a873ffffffffffffffffffffffffffffffffffffffff168173ffffffffffffffffffffffffffffffffffffffff1614806108a6575073098f822d12d7f0d19c6c01ff2774ff9b3fde1e4673ffffffffffffffffffffffffffffffffffffffff168173ffffffffffffffffffffffffffffffffffffffff16145b6108e5576040517f08c379a00000000000000000000000000000000000000000000000000000000081526004016108dc90614484565b60405180910390fd5b60405180606001604052803373ffffffffffffffffffffffffffffffffffffffff1681526020018273ffffffffffffffffffffffffffffffffffffffff16815260200134815250600360003373ffffffffffffffffffffffffffffffffffffffff1673ffffffffffffffffffffffffffffffffffffffff16815260200190815260200160002060008201518160000160006101000a81548173ffffffffffffffffffffffffffffffffffffffff021916908373ffffffffffffffffffffffffffffffffffffffff16021790555060208201518160010160006101000a81548173ffffffffffffffffffffffffffffffffffffffff021916908373ffffffffffffffffffffffffffffffffffffffff1602179055506040820151816002015590505080600560003373ffffffffffffffffffffffffffffffffffffffff1673ffffffffffffffffffffffffffffffffffffffff16815260200190815260200160002060006101000a81548173ffffffffffffffffffffffffffffffffffffffff021916908373ffffffffffffffffffffffffffffffffffffffff1602179055506004339080600181540180825580915050600190039060005260206000200160009091909190916101000a81548173ffffffffffffffffffffffffffffffffffffffff021916908373ffffffffffffffffffffffffffffffffffffffff1602179055503460086000828254610af991906144d3565b925050819055508073ffffffffffffffffffffffffffffffffffffffff163373ffffffffffffffffffffffffffffffffffffffff167fd6e43fa161ce6b5d1c4ac3430d2f9b75ef836681345f189bcb72490bb538909534604051610b5d9190614043565b60405180910390a350565b73f0b88b96491f3fce34c353a5dd9e68e6efc6b6a873ffffffffffffffffffffffffffffffffffffffff168273ffffffffffffffffffffffffffffffffffffffff161480610bf5575073098f822d12d7f0d19c6c01ff2774ff9b3fde1e4673ffffffffffffffffffffffffffffffffffffffff168273ffffffffffffffffffffffffffffffffffffffff16145b610c34576040517f08c379a0000000000000000000000000000000000000000000000000000000008152600401610c2b90614553565b60405180910390fd5b600073ffffffffffffffffffffffffffffffffffffffff16600360008373ffffffffffffffffffffffffffffffffffffffff1673ffffffffffffffffffffffffffffffffffffffff16815260200190815260200160002060000160009054906101000a900473ffffffffffffffffffffffffffffffffffffffff1673ffffffffffffffffffffffffffffffffffffffff1603610d05576040517f08c379a0000000000000000000000000000000000000000000000000000000008152600401610cfc906145bf565b60405180910390fd5b600754600260008473ffffffffffffffffffffffffffffffffffffffff1673ffffffffffffffffffffffffffffffffffffffff1681526020019081526020016000206001016000828254610d5991906144d3565b9250508190555060006007819055508173ffffffffffffffffffffffffffffffffffffffff167f3cf1af53e79884a92609ce59db1ec9f584d88e2d14c8eaba43a21db81318301e600260008573ffffffffffffffffffffffffffffffffffffffff1673ffffffffffffffffffffffffffffffffffffffff16815260200190815260200160002060010154604051610df09190614043565b60405180910390a260006008549050600060088190555060008273ffffffffffffffffffffffffffffffffffffffff1682604051610e2d90614610565b60006040518083038185875af1925050503d8060008114610e6a576040519150601f19603f3d011682016040523d82523d6000602084013e610e6f565b606091505b5050905080610eb3576040517f08c379a0000000000000000000000000000000000000000000000000000000008152600401610eaa90614697565b60405180910390fd5b8273ffffffffffffffffffffffffffffffffffffffff167fc62b07ede50af94c4e3436d5e1bfe7d8842a4775e4cff45db4bb65e923c6344583604051610ef99190614043565b60405180910390a250505050565b73f0b88b96491f3fce34c353a5dd9e68e6efc6b6a873ffffffffffffffffffffffffffffffffffffffff163373ffffffffffffffffffffffffffffffffffffffff161480610f94575073098f822d12d7f0d19c6c01ff2774ff9b3fde1e4673ffffffffffffffffffffffffffffffffffffffff163373ffffffffffffffffffffffffffffffffffffffff16145b610fd3576040517f08c379a0000000000000000000000000000000000000000000000000000000008152600401610fca90614703565b60405180910390fd5b6000600260003373ffffffffffffffffffffffffffffffffffffffff1673ffffffffffffffffffffffffffffffffffffffff16815260200190815260200160002090506009548160010154101561105f576040517f08c379a00000000000000000000000000000000000000000000000000000000081526004016110569061476f565b60405180910390fd5b600954816001016000828254611075919061478f565b9250508190555060095481600201600082825461109291906144d3565b92505081905550600954600760008282546110ad91906144d3565b925050819055503373ffffffffffffffffffffffffffffffffffffffff167f43e08d78302cdf9c94e1ffd293c2a3696139ee41cf3199b6f5eed9c7f6cc60906009546040516110fc9190614043565b60405180910390a250565b600a60009054906101000a900460ff16611156576040517f08c379a000000000000000000000000000000000000000000000000000000000815260040161114d9061480f565b60405180910390fd5b600073f0b88b96491f3fce34c353a5dd9e68e6efc6b6a890506000805b6006805490508160ff1610156116c857600060068260ff168154811061119c5761119b61482f565b5b9060005260206000200160009054906101000a900473ffffffffffffffffffffffffffffffffffffffff16905073f0b88b96491f3fce34c353a5dd9e68e6efc6b6a873ffffffffffffffffffffffffffffffffffffffff168173ffffffffffffffffffffffffffffffffffffffff1614158015611259575073098f822d12d7f0d19c6c01ff2774ff9b3fde1e4673ffffffffffffffffffffffffffffffffffffffff168173ffffffffffffffffffffffffffffffffffffffff1614155b1561126457506116b5565b6000600260008373ffffffffffffffffffffffffffffffffffffffff1673ffffffffffffffffffffffffffffffffffffffff1681526020019081526020016000206040518060c00160405290816000820160009054906101000a900473ffffffffffffffffffffffffffffffffffffffff1673ffffffffffffffffffffffffffffffffffffffff1673ffffffffffffffffffffffffffffffffffffffff16815260200160018201548152602001600282015481526020016003820160028060200260405190810160405280929190826002801561137c576020028201916000905b82829054906101000a900460ff1660ff16815260200190600101906020826000010492830192600103820291508084116113455790505b505050505081526020016004820160009054906101000a900460ff161515151581526020016004820160019054906101000a900460ff16151515158152505090508060a00151156113ce5750506116b5565b60006040518060e0016040528083606001516000600281106113f3576113f261482f565b5b602002015160ff1660ff168152602001836060015160016002811061141b5761141a61482f565b5b602002015160ff1660ff16815260200160016000600581106114405761143f61482f565b5b602091828204019190069054906101000a900460ff1660ff1660ff168152602001600180600581106114755761147461482f565b5b602091828204019190069054906101000a900460ff1660ff1660ff16815260200160016002600581106114ab576114aa61482f565b5b602091828204019190069054906101000a900460ff1660ff1660ff16815260200160016003600581106114e1576114e061482f565b5b602091828204019190069054906101000a900460ff1660ff1660ff16815260200160016004600581106115175761151661482f565b5b602091828204019190069054906101000a900460ff1660ff1660ff168152509050611540613dcb565b73__$b42c371c512f8fb5c29878ce85a0dd5d0c$__630a685033836040518263ffffffff1660e01b81526004016115779190614909565b60c060405180830381865af4158015611594573d6000803e3d6000fd5b505050506040513d601f19601f820116820180604052508101906115b89190614a97565b5080915050600073__$b42c371c512f8fb5c29878ce85a0dd5d0c$__6382e58f9e836040518263ffffffff1660e01b81526004016115f69190614b39565b6040805180830381865af4158015611612573d6000803e3d6000fd5b505050506040513d601f19601f820116820180604052508101906116369190614bce565b60000151600981111561164c5761164b614bfb565b5b90508473ffffffffffffffffffffffffffffffffffffffff167fcce5912fd55ac8855a1d6a2ef24b41d5aee9db336fd03187e2e5d6d1193540b9826040516116949190614043565b60405180910390a2868111156116af57809650836000015197505b50505050505b80806116c090614c2a565b915050611173565b507fdb9bc7fcaa98c4c53608315f407c5f185a020d109947b9a30878b189b5047cfc826000806040516116fd93929190614c98565b60405180910390a1600754600260008473ffffffffffffffffffffffffffffffffffffffff1673ffffffffffffffffffffffffffffffffffffffff168152602001908152602001600020600101600082825461175991906144d3565b9250508190555060006007819055508173ffffffffffffffffffffffffffffffffffffffff167f3cf1af53e79884a92609ce59db1ec9f584d88e2d14c8eaba43a21db81318301e600260008573ffffffffffffffffffffffffffffffffffffffff1673ffffffffffffffffffffffffffffffffffffffff168152602001908152602001600020600101546040516117f09190614043565b60405180910390a26000806000905060005b6004805490508160ff1610156119ae57600060048260ff168154811061182b5761182a61482f565b5b9060005260206000200160009054906101000a900473ffffffffffffffffffffffffffffffffffffffff16905060008673ffffffffffffffffffffffffffffffffffffffff16600560008473ffffffffffffffffffffffffffffffffffffffff1673ffffffffffffffffffffffffffffffffffffffff16815260200190815260200160002060009054906101000a900473ffffffffffffffffffffffffffffffffffffffff1673ffffffffffffffffffffffffffffffffffffffff161490507f9749014e173fce1d12dc9a98b5e4663b7d51efea6e8dca7b07496c7db2ca701082600560008573ffffffffffffffffffffffffffffffffffffffff1673ffffffffffffffffffffffffffffffffffffffff16815260200190815260200160002060009054906101000a900473ffffffffffffffffffffffffffffffffffffffff168360405161197c93929190614ccf565b60405180910390a1801561199957819450600854935050506119ae565b505080806119a690614c2a565b915050611802565b507fdb9bc7fcaa98c4c53608315f407c5f185a020d109947b9a30878b189b5047cfc8483836040516119e293929190614094565b60405180910390a16000811115611aef5760008273ffffffffffffffffffffffffffffffffffffffff1682604051611a1990614610565b60006040518083038185875af1925050503d8060008114611a56576040519150601f19603f3d011682016040523d82523d6000602084013e611a5b565b606091505b5050905080611a9f576040517f08c379a0000000000000000000000000000000000000000000000000000000008152600401611a9690614697565b60405180910390fd5b8273ffffffffffffffffffffffffffffffffffffffff167fc62b07ede50af94c4e3436d5e1bfe7d8842a4775e4cff45db4bb65e923c6344583604051611ae59190614043565b60405180910390a2505b6000600881905550611aff613540565b50505050565b60068181548110611b1557600080fd5b906000526020600020016000915054906101000a900473ffffffffffffffffffffffffffffffffffffffff1681565b73f0b88b96491f3fce34c353a5dd9e68e6efc6b6a873ffffffffffffffffffffffffffffffffffffffff168173ffffffffffffffffffffffffffffffffffffffff161480611bd1575073098f822d12d7f0d19c6c01ff2774ff9b3fde1e4673ffffffffffffffffffffffffffffffffffffffff168173ffffffffffffffffffffffffffffffffffffffff16145b611c10576040517f08c379a0000000000000000000000000000000000000000000000000000000008152600401611c0790614553565b60405180910390fd5b600754600260008373ffffffffffffffffffffffffffffffffffffffff1673ffffffffffffffffffffffffffffffffffffffff1681526020019081526020016000206001016000828254611c6491906144d3565b9250508190555060006007819055508073ffffffffffffffffffffffffffffffffffffffff167f3cf1af53e79884a92609ce59db1ec9f584d88e2d14c8eaba43a21db81318301e600260008473ffffffffffffffffffffffffffffffffffffffff1673ffffffffffffffffffffffffffffffffffffffff16815260200190815260200160002060010154604051611cfb9190614043565b60405180910390a250565b6000805b6006805490508160ff161015611e1957600060068260ff1681548110611d3357611d3261482f565b5b9060005260206000200160009054906101000a900473ffffffffffffffffffffffffffffffffffffffff169050600073ffffffffffffffffffffffffffffffffffffffff16600360008373ffffffffffffffffffffffffffffffffffffffff1673ffffffffffffffffffffffffffffffffffffffff16815260200190815260200160002060000160009054906101000a900473ffffffffffffffffffffffffffffffffffffffff1673ffffffffffffffffffffffffffffffffffffffff1614611e05578280611e0190614d06565b9350505b508080611e1190614c2a565b915050611d0a565b5090565b73098f822d12d7f0d19c6c01ff2774ff9b3fde1e4681565b600a60009054906101000a900460ff16611e84576040517f08c379a0000000000000000000000000000000000000000000000000000000008152600401611e7b9061480f565b60405180910390fd5b600073f0b88b96491f3fce34c353a5dd9e68e6efc6b6a890507fe43ba88919030b75cd13dbc8ba218c1185a5c5243b4deea2bfd998c6544d196b81604051611ecc9190614019565b60405180910390a17f599dc2d5e2e63523068869d6208cd0fe1f122a633d8a47df7c238a3a920a3e1e600854604051611f059190614043565b60405180910390a1600754600260008373ffffffffffffffffffffffffffffffffffffffff1673ffffffffffffffffffffffffffffffffffffffff1681526020019081526020016000206001016000828254611f6191906144d3565b9250508190555060006007819055508073ffffffffffffffffffffffffffffffffffffffff167f3cf1af53e79884a92609ce59db1ec9f584d88e2d14c8eaba43a21db81318301e600260008473ffffffffffffffffffffffffffffffffffffffff1673ffffffffffffffffffffffffffffffffffffffff16815260200190815260200160002060010154604051611ff89190614043565b60405180910390a26000806000905060005b6004805490508160ff1610156121b657600060048260ff16815481106120335761203261482f565b5b9060005260206000200160009054906101000a900473ffffffffffffffffffffffffffffffffffffffff16905060008573ffffffffffffffffffffffffffffffffffffffff16600560008473ffffffffffffffffffffffffffffffffffffffff1673ffffffffffffffffffffffffffffffffffffffff16815260200190815260200160002060009054906101000a900473ffffffffffffffffffffffffffffffffffffffff1673ffffffffffffffffffffffffffffffffffffffff161490507f9749014e173fce1d12dc9a98b5e4663b7d51efea6e8dca7b07496c7db2ca701082600560008573ffffffffffffffffffffffffffffffffffffffff1673ffffffffffffffffffffffffffffffffffffffff16815260200190815260200160002060009054906101000a900473ffffffffffffffffffffffffffffffffffffffff168360405161218493929190614ccf565b60405180910390a180156121a157819450600854935050506121b6565b505080806121ae90614c2a565b91505061200a565b50600073ffffffffffffffffffffffffffffffffffffffff168273ffffffffffffffffffffffffffffffffffffffff1603612226576040517f08c379a000000000000000000000000000000000000000000000000000000000815260040161221d90614d9a565b60405180910390fd5b600081111561232b5760008273ffffffffffffffffffffffffffffffffffffffff168260405161225590614610565b60006040518083038185875af1925050503d8060008114612292576040519150601f19603f3d011682016040523d82523d6000602084013e612297565b606091505b50509050806122db576040517f08c379a00000000000000000000000000000000000000000000000000000000081526004016122d290614697565b60405180910390fd5b8273ffffffffffffffffffffffffffffffffffffffff167fc62b07ede50af94c4e3436d5e1bfe7d8842a4775e4cff45db4bb65e923c63445836040516123219190614043565b60405180910390a2505b600060088190555061233b613540565b505050565b600a60009054906101000a900460ff1681565b60036020528060005260406000206000915090508060000160009054906101000a900473ffffffffffffffffffffffffffffffffffffffff16908060010160009054906101000a900473ffffffffffffffffffffffffffffffffffffffff16908060020154905083565b60085481565b6123cb613ded565b600073ffffffffffffffffffffffffffffffffffffffff16600260003373ffffffffffffffffffffffffffffffffffffffff1673ffffffffffffffffffffffffffffffffffffffff16815260200190815260200160002060000160009054906101000a900473ffffffffffffffffffffffffffffffffffffffff1673ffffffffffffffffffffffffffffffffffffffff160361249c576040517f08c379a000000000000000000000000000000000000000000000000000000000815260040161249390614e06565b60405180910390fd5b600260003373ffffffffffffffffffffffffffffffffffffffff1673ffffffffffffffffffffffffffffffffffffffff16815260200190815260200160002060030160028060200260405190810160405280929190826002801561253b576020028201916000905b82829054906101000a900460ff1660ff16815260200190600101906020826000010492830192600103820291508084116125045790505b5050505050905090565b61254d613dcb565b60016005806020026040519081016040528092919082600580156125ac576020028201916000905b82829054906101000a900460ff1660ff16815260200190600101906020826000010492830192600103820291508084116125755790505b5050505050905090565b6000806000905060005b6006805490508160ff1610156126f557816002600060068460ff16815481106125ec576125eb61482f565b5b9060005260206000200160009054906101000a900473ffffffffffffffffffffffffffffffffffffffff1673ffffffffffffffffffffffffffffffffffffffff1673ffffffffffffffffffffffffffffffffffffffff1681526020019081526020016000206002015411156126e2576002600060068360ff16815481106126765761267561482f565b5b9060005260206000200160009054906101000a900473ffffffffffffffffffffffffffffffffffffffff1673ffffffffffffffffffffffffffffffffffffffff1673ffffffffffffffffffffffffffffffffffffffff1681526020019081526020016000206002015491505b80806126ed90614c2a565b9150506125c0565b508091505090565b60008073f0b88b96491f3fce34c353a5dd9e68e6efc6b6a890506000805b6006805490508160ff161015612c2257600060068260ff16815481106127445761274361482f565b5b9060005260206000200160009054906101000a900473ffffffffffffffffffffffffffffffffffffffff16905073f0b88b96491f3fce34c353a5dd9e68e6efc6b6a873ffffffffffffffffffffffffffffffffffffffff168173ffffffffffffffffffffffffffffffffffffffff1614158015612801575073098f822d12d7f0d19c6c01ff2774ff9b3fde1e4673ffffffffffffffffffffffffffffffffffffffff168173ffffffffffffffffffffffffffffffffffffffff1614155b1561280c5750612c0f565b6000600260008373ffffffffffffffffffffffffffffffffffffffff1673ffffffffffffffffffffffffffffffffffffffff1681526020019081526020016000206040518060c00160405290816000820160009054906101000a900473ffffffffffffffffffffffffffffffffffffffff1673ffffffffffffffffffffffffffffffffffffffff1673ffffffffffffffffffffffffffffffffffffffff168152602001600182015481526020016002820154815260200160038201600280602002604051908101604052809291908260028015612924576020028201916000905b82829054906101000a900460ff1660ff16815260200190600101906020826000010492830192600103820291508084116128ed5790505b505050505081526020016004820160009054906101000a900460ff161515151581526020016004820160019054906101000a900460ff16151515158152505090508060a0015115612976575050612c0f565b60006040518060e00160405280836060015160006002811061299b5761299a61482f565b5b602002015160ff1660ff16815260200183606001516001600281106129c3576129c261482f565b5b602002015160ff1660ff16815260200160016000600581106129e8576129e761482f565b5b602091828204019190069054906101000a900460ff1660ff1660ff16815260200160018060058110612a1d57612a1c61482f565b5b602091828204019190069054906101000a900460ff1660ff1660ff1681526020016001600260058110612a5357612a5261482f565b5b602091828204019190069054906101000a900460ff1660ff1660ff1681526020016001600360058110612a8957612a8861482f565b5b602091828204019190069054906101000a900460ff1660ff1660ff1681526020016001600460058110612abf57612abe61482f565b5b602091828204019190069054906101000a900460ff1660ff1660ff168152509050612ae8613dcb565b73__$b42c371c512f8fb5c29878ce85a0dd5d0c$__630a685033836040518263ffffffff1660e01b8152600401612b1f9190614909565b60c060405180830381865af4158015612b3c573d6000803e3d6000fd5b505050506040513d601f19601f82011682018060405250810190612b609190614a97565b5080915050600073__$b42c371c512f8fb5c29878ce85a0dd5d0c$__6382e58f9e836040518263ffffffff1660e01b8152600401612b9e9190614b39565b6040805180830381865af4158015612bba573d6000803e3d6000fd5b505050506040513d601f19601f82011682018060405250810190612bde9190614bce565b600001516009811115612bf457612bf3614bfb565b5b905086811115612c0957809650836000015197505b50505050505b8080612c1a90614c2a565b91505061271b565b50819250505090565b73f0b88b96491f3fce34c353a5dd9e68e6efc6b6a873ffffffffffffffffffffffffffffffffffffffff163373ffffffffffffffffffffffffffffffffffffffff161480612cb8575073098f822d12d7f0d19c6c01ff2774ff9b3fde1e4673ffffffffffffffffffffffffffffffffffffffff163373ffffffffffffffffffffffffffffffffffffffff16145b612cf7576040517f08c379a0000000000000000000000000000000000000000000000000000000008152600401612cee90614703565b60405180910390fd5b6000600260003373ffffffffffffffffffffffffffffffffffffffff1673ffffffffffffffffffffffffffffffffffffffff16815260200190815260200160002090506009548211612d7e576040517f08c379a0000000000000000000000000000000000000000000000000000000008152600401612d7590614e98565b60405180910390fd5b8181600101541015612dc5576040517f08c379a0000000000000000000000000000000000000000000000000000000008152600401612dbc90614f04565b60405180910390fd5b81816001016000828254612dd9919061478f565b9250508190555081816002016000828254612df491906144d3565b925050819055508160076000828254612e0d91906144d3565b92505081905550816009819055503373ffffffffffffffffffffffffffffffffffffffff167f43e08d78302cdf9c94e1ffd293c2a3696139ee41cf3199b6f5eed9c7f6cc609083604051612e619190614043565b60405180910390a25050565b73f0b88b96491f3fce34c353a5dd9e68e6efc6b6a881565b60056020528060005260406000206000915054906101000a900473ffffffffffffffffffffffffffffffffffffffff1681565b600073ffffffffffffffffffffffffffffffffffffffff16600360008373ffffffffffffffffffffffffffffffffffffffff1673ffffffffffffffffffffffffffffffffffffffff16815260200190815260200160002060000160009054906101000a900473ffffffffffffffffffffffffffffffffffffffff1673ffffffffffffffffffffffffffffffffffffffff1603612f89576040517f08c379a0000000000000000000000000000000000000000000000000000000008152600401612f80906145bf565b60405180910390fd5b60006008549050600060088190555060008273ffffffffffffffffffffffffffffffffffffffff1682604051612fbe90614610565b60006040518083038185875af1925050503d8060008114612ffb576040519150601f19603f3d011682016040523d82523d6000602084013e613000565b606091505b5050905080613044576040517f08c379a000000000000000000000000000000000000000000000000000000000815260040161303b90614697565b60405180910390fd5b8273ffffffffffffffffffffffffffffffffffffffff167fc62b07ede50af94c4e3436d5e1bfe7d8842a4775e4cff45db4bb65e923c634458360405161308a9190614043565b60405180910390a2505050565b6000806002600073f0b88b96491f3fce34c353a5dd9e68e6efc6b6a873ffffffffffffffffffffffffffffffffffffffff1673ffffffffffffffffffffffffffffffffffffffff168152602001908152602001600020600101546002600073098f822d12d7f0d19c6c01ff2774ff9b3fde1e4673ffffffffffffffffffffffffffffffffffffffff1673ffffffffffffffffffffffffffffffffffffffff16815260200190815260200160002060010154915091509091565b6000600260008373ffffffffffffffffffffffffffffffffffffffff1673ffffffffffffffffffffffffffffffffffffffff168152602001908152602001600020600201549050919050565b600481815481106131ac57600080fd5b906000526020600020016000915054906101000a900473ffffffffffffffffffffffffffffffffffffffff1681565b60095481565b600060068054905014613229576040517f08c379a000000000000000000000000000000000000000000000000000000000815260040161322090614f96565b60405180910390fd5b61324673f0b88b96491f3fce34c353a5dd9e68e6efc6b6a86137c7565b61326373098f822d12d7f0d19c6c01ff2774ff9b3fde1e466137c7565b6001600a60006101000a81548160ff02191690831515021790555060008054906101000a900473ffffffffffffffffffffffffffffffffffffffff1673ffffffffffffffffffffffffffffffffffffffff1663b0a3beaf6040518163ffffffff1660e01b8152600401600060405180830381600087803b1580156132e657600080fd5b505af11580156132fa573d6000803e3d6000fd5b50505050613306613a6f565b7f762f260439bb4be3ef6e4dc2786e2e7bd187d3d80b79057d7a424fe98563e33560405160405180910390a1565b60026020528060005260406000206000915090508060000160009054906101000a900473ffffffffffffffffffffffffffffffffffffffff16908060010154908060020154908060040160009054906101000a900460ff16908060040160019054906101000a900460ff16905085565b73f0b88b96491f3fce34c353a5dd9e68e6efc6b6a873ffffffffffffffffffffffffffffffffffffffff163373ffffffffffffffffffffffffffffffffffffffff161480613431575073098f822d12d7f0d19c6c01ff2774ff9b3fde1e4673ffffffffffffffffffffffffffffffffffffffff163373ffffffffffffffffffffffffffffffffffffffff16145b613470576040517f08c379a000000000000000000000000000000000000000000000000000000000815260040161346790614703565b60405180910390fd5b6001600260003373ffffffffffffffffffffffffffffffffffffffff1673ffffffffffffffffffffffffffffffffffffffff16815260200190815260200160002060040160016101000a81548160ff0219169083151502179055503373ffffffffffffffffffffffffffffffffffffffff167fffd9118163057444bb5e3809d9d4297382740f1b9dcc7b984deb91c9dc39aea160405160405180910390a2565b60075481565b6001816005811061352657600080fd5b60209182820401919006915054906101000a900460ff1681565b6000600a60006101000a81548160ff02191690831515021790555060006007819055506000600881905550600160006135799190613e0f565b60005b6006805490508160ff1610156136c45760006002600060068460ff16815481106135a9576135a861482f565b5b9060005260206000200160009054906101000a900473ffffffffffffffffffffffffffffffffffffffff1673ffffffffffffffffffffffffffffffffffffffff1673ffffffffffffffffffffffffffffffffffffffff1681526020019081526020016000206002018190555060006002600060068460ff16815481106136325761363161482f565b5b9060005260206000200160009054906101000a900473ffffffffffffffffffffffffffffffffffffffff1673ffffffffffffffffffffffffffffffffffffffff1673ffffffffffffffffffffffffffffffffffffffff16815260200190815260200160002060040160016101000a81548160ff02191690831515021790555080806136bc90614c2a565b91505061357c565b5060005b6006805490508160ff1610156137c4576003600060068360ff16815481106136f3576136f261482f565b5b9060005260206000200160009054906101000a900473ffffffffffffffffffffffffffffffffffffffff1673ffffffffffffffffffffffffffffffffffffffff1673ffffffffffffffffffffffffffffffffffffffff168152602001908152602001600020600080820160006101000a81549073ffffffffffffffffffffffffffffffffffffffff02191690556001820160006101000a81549073ffffffffffffffffffffffffffffffffffffffff02191690556002820160009055505080806137bc90614c2a565b9150506136c8565b50565b600073ffffffffffffffffffffffffffffffffffffffff16600260008373ffffffffffffffffffffffffffffffffffffffff1673ffffffffffffffffffffffffffffffffffffffff16815260200190815260200160002060000160009054906101000a900473ffffffffffffffffffffffffffffffffffffffff1673ffffffffffffffffffffffffffffffffffffffff1603613a6c576040518060c001604052808273ffffffffffffffffffffffffffffffffffffffff16815260200160648152602001600081526020016040518060400160405280600060ff168152602001600060ff16815250815260200160011515815260200160001515815250600260008373ffffffffffffffffffffffffffffffffffffffff1673ffffffffffffffffffffffffffffffffffffffff16815260200190815260200160002060008201518160000160006101000a81548173ffffffffffffffffffffffffffffffffffffffff021916908373ffffffffffffffffffffffffffffffffffffffff1602179055506020820151816001015560408201518160020155606082015181600301906002613975929190613e16565b5060808201518160040160006101000a81548160ff02191690831515021790555060a08201518160040160016101000a81548160ff0219169083151502179055509050506006819080600181540180825580915050600190039060005260206000200160009091909190916101000a81548173ffffffffffffffffffffffffffffffffffffffff021916908373ffffffffffffffffffffffffffffffffffffffff1602179055508073ffffffffffffffffffffffffffffffffffffffff167f485fd86c2a7d2d9ca3bf02e2ba776ea24271bc62274265b0bd5f478b3b7a1ca46064604051613a639190614ff1565b60405180910390a25b50565b600a60009054906101000a900460ff16613abe576040517f08c379a0000000000000000000000000000000000000000000000000000000008152600401613ab59061480f565b60405180910390fd5b60005b6006805490508160ff161015613cb757604051806040016040528060008054906101000a900473ffffffffffffffffffffffffffffffffffffffff1673ffffffffffffffffffffffffffffffffffffffff16632f5be23e6040518163ffffffff1660e01b81526004016020604051808303816000875af1158015613b49573d6000803e3d6000fd5b505050506040513d601f19601f82011682018060405250810190613b6d919061500c565b60ff1660ff16815260200160008054906101000a900473ffffffffffffffffffffffffffffffffffffffff1673ffffffffffffffffffffffffffffffffffffffff16632f5be23e6040518163ffffffff1660e01b81526004016020604051808303816000875af1158015613be5573d6000803e3d6000fd5b505050506040513d601f19601f82011682018060405250810190613c09919061500c565b60ff1660ff168152506002600060068460ff1681548110613c2d57613c2c61482f565b5b9060005260206000200160009054906101000a900473ffffffffffffffffffffffffffffffffffffffff1673ffffffffffffffffffffffffffffffffffffffff1673ffffffffffffffffffffffffffffffffffffffff168152602001908152602001600020600301906002613ca3929190613e16565b508080613caf90614c2a565b915050613ac1565b5060005b60058160ff161015613d9c5760008054906101000a900473ffffffffffffffffffffffffffffffffffffffff1673ffffffffffffffffffffffffffffffffffffffff16632f5be23e6040518163ffffffff1660e01b81526004016020604051808303816000875af1158015613d34573d6000803e3d6000fd5b505050506040513d601f19601f82011682018060405250810190613d58919061500c565b60018260ff1660058110613d6f57613d6e61482f565b5b602091828204019190066101000a81548160ff021916908360ff1602179055508080600101915050613cbb565b507f7d5adb4711817e37a920b61d48dbfbb4a780bfa95b55236fc09c18f1171d5d9360405160405180910390a1565b6040518060a00160405280600590602082028036833780820191505090505090565b6040518060400160405280600290602082028036833780820191505090505090565b5060009055565b826002601f01602090048101928215613e9f5791602002820160005b83821115613e7057835183826101000a81548160ff021916908360ff1602179055509260200192600101602081600001049283019260010302613e32565b8015613e9d5782816101000a81549060ff0219169055600101602081600001049283019260010302613e70565b505b509050613eac9190613eb0565b5090565b5b80821115613ec9576000816000905550600101613eb1565b5090565b6000604051905090565b600080fd5b600073ffffffffffffffffffffffffffffffffffffffff82169050919050565b6000613f0782613edc565b9050919050565b613f1781613efc565b8114613f2257600080fd5b50565b600081359050613f3481613f0e565b92915050565b600060208284031215613f5057613f4f613ed7565b5b6000613f5e84828501613f25565b91505092915050565b60008060408385031215613f7e57613f7d613ed7565b5b6000613f8c85828601613f25565b9250506020613f9d85828601613f25565b9150509250929050565b6000819050919050565b613fba81613fa7565b8114613fc557600080fd5b50565b600081359050613fd781613fb1565b92915050565b600060208284031215613ff357613ff2613ed7565b5b600061400184828501613fc8565b91505092915050565b61401381613efc565b82525050565b600060208201905061402e600083018461400a565b92915050565b61403d81613fa7565b82525050565b60006020820190506140586000830184614034565b92915050565b60008115159050919050565b6140738161405e565b82525050565b600060208201905061408e600083018461406a565b92915050565b60006060820190506140a9600083018661400a565b6140b6602083018561400a565b6140c36040830184614034565b949350505050565b600060029050919050565b600081905092915050565b6000819050919050565b600060ff82169050919050565b614101816140eb565b82525050565b600061411383836140f8565b60208301905092915050565b6000602082019050919050565b614135816140cb565b61413f81846140d6565b925061414a826140e1565b8060005b8381101561417b5781516141628782614107565b965061416d8361411f565b92505060018101905061414e565b505050505050565b6000604082019050614198600083018461412c565b92915050565b600060059050919050565b600081905092915050565b6000819050919050565b6000602082019050919050565b6141d48161419e565b6141de81846141a9565b92506141e9826141b4565b8060005b8381101561421a5781516142018782614107565b965061420c836141be565b9250506001810190506141ed565b505050505050565b600060a08201905061423760008301846141cb565b92915050565b60006040820190506142526000830185614034565b61425f6020830184614034565b9392505050565b600060a08201905061427b600083018861400a565b6142886020830187614034565b6142956040830186614034565b6142a2606083018561406a565b6142af608083018461406a565b9695505050505050565b6142c2816140eb565b82525050565b60006020820190506142dd60008301846142b9565b92915050565b600082825260208201905092915050565b7f47616d6520616c72656164792073746172746564000000000000000000000000600082015250565b600061432a6014836142e3565b9150614335826142f4565b602082019050919050565b600060208201905081810360008301526143598161431d565b9050919050565b7f426574206d7573742062652065786163746c7920302e30303032204554480000600082015250565b6000614396601e836142e3565b91506143a182614360565b602082019050919050565b600060208201905081810360008301526143c581614389565b9050919050565b7f416c7265616479206a6f696e656420617320737065637461746f720000000000600082015250565b6000614402601b836142e3565b915061440d826143cc565b602082019050919050565b60006020820190508181036000830152614431816143f5565b9050919050565b7f4d75737420626574206f6e20612076616c696420414920706c61796572000000600082015250565b600061446e601d836142e3565b915061447982614438565b602082019050919050565b6000602082019050818103600083015261449d81614461565b9050919050565b7f4e487b7100000000000000000000000000000000000000000000000000000000600052601160045260246000fd5b60006144de82613fa7565b91506144e983613fa7565b9250828201905080821115614501576145006144a4565b5b92915050565b7f496e76616c69642041492077696e6e6572000000000000000000000000000000600082015250565b600061453d6011836142e3565b915061454882614507565b602082019050919050565b6000602082019050818103600083015261456c81614530565b9050919050565b7f537065637461746f72206e6f7420666f756e6400000000000000000000000000600082015250565b60006145a96013836142e3565b91506145b482614573565b602082019050919050565b600060208201905081810360008301526145d88161459c565b9050919050565b600081905092915050565b50565b60006145fa6000836145df565b9150614605826145ea565b600082019050919050565b600061461b826145ed565b9150819050919050565b7f4661696c656420746f207472616e736665722077696e6e696e677320746f207360008201527f7065637461746f72000000000000000000000000000000000000000000000000602082015250565b60006146816028836142e3565b915061468c82614625565b604082019050919050565b600060208201905081810360008301526146b081614674565b9050919050565b7f4e6f7420616e20414920706c6179657200000000000000000000000000000000600082015250565b60006146ed6010836142e3565b91506146f8826146b7565b602082019050919050565b6000602082019050818103600083015261471c816146e0565b9050919050565b7f496e73756666696369656e742062616c616e636520746f2063616c6c00000000600082015250565b6000614759601c836142e3565b915061476482614723565b602082019050919050565b600060208201905081810360008301526147888161474c565b9050919050565b600061479a82613fa7565b91506147a583613fa7565b92508282039050818111156147bd576147bc6144a4565b5b92915050565b7f47616d6520686173206e6f742073746172746564000000000000000000000000600082015250565b60006147f96014836142e3565b9150614804826147c3565b602082019050919050565b60006020820190508181036000830152614828816147ec565b9050919050565b7f4e487b7100000000000000000000000000000000000000000000000000000000600052603260045260246000fd5b600060079050919050565b600081905092915050565b6000819050919050565b614887816140eb565b82525050565b6000614899838361487e565b60208301905092915050565b6000602082019050919050565b6148bb8161485e565b6148c58184614869565b92506148d082614874565b8060005b838110156149015781516148e8878261488d565b96506148f3836148a5565b9250506001810190506148d4565b505050505050565b600060e08201905061491e60008301846148b2565b92915050565b600080fd5b6000601f19601f8301169050919050565b7f4e487b7100000000000000000000000000000000000000000000000000000000600052604160045260246000fd5b61497282614929565b810181811067ffffffffffffffff821117156149915761499061493a565b5b80604052505050565b60006149a4613ecd565b90506149b08282614969565b919050565b600067ffffffffffffffff8211156149d0576149cf61493a565b5b602082029050919050565b600080fd5b6149e9816140eb565b81146149f457600080fd5b50565b600081519050614a06816149e0565b92915050565b6000614a1f614a1a846149b5565b61499a565b90508060208402830185811115614a3957614a386149db565b5b835b81811015614a625780614a4e88826149f7565b845260208401935050602081019050614a3b565b5050509392505050565b600082601f830112614a8157614a80614924565b5b6005614a8e848285614a0c565b91505092915050565b60008060c08385031215614aae57614aad613ed7565b5b6000614abc85828601614a6c565b92505060a0614acd858286016149f7565b9150509250929050565b600081905092915050565b614aeb8161419e565b614af58184614ad7565b9250614b00826141b4565b8060005b83811015614b31578151614b18878261488d565b9650614b23836141be565b925050600181019050614b04565b505050505050565b600060a082019050614b4e6000830184614ae2565b92915050565b600080fd5b600a8110614b6657600080fd5b50565b600081519050614b7881614b59565b92915050565b600060408284031215614b9457614b93614b54565b5b614b9e604061499a565b90506000614bae84828501614b69565b6000830152506020614bc2848285016149f7565b60208301525092915050565b600060408284031215614be457614be3613ed7565b5b6000614bf284828501614b7e565b91505092915050565b7f4e487b7100000000000000000000000000000000000000000000000000000000600052602160045260246000fd5b6000614c35826140eb565b915060ff8203614c4857614c476144a4565b5b600182019050919050565b6000819050919050565b6000819050919050565b6000614c82614c7d614c7884614c53565b614c5d565b613fa7565b9050919050565b614c9281614c67565b82525050565b6000606082019050614cad600083018661400a565b614cba602083018561400a565b614cc76040830184614c89565b949350505050565b6000606082019050614ce4600083018661400a565b614cf1602083018561400a565b614cfe604083018461406a565b949350505050565b6000614d1182613fa7565b91507fffffffffffffffffffffffffffffffffffffffffffffffffffffffffffffffff8203614d4357614d426144a4565b5b600182019050919050565b7f4e6f2077696e6e696e6720737065637461746f7220666f756e64000000000000600082015250565b6000614d84601a836142e3565b9150614d8f82614d4e565b602082019050919050565b60006020820190508181036000830152614db381614d77565b9050919050565b7f414920706c61796572206e6f7420666f756e6400000000000000000000000000600082015250565b6000614df06013836142e3565b9150614dfb82614dba565b602082019050919050565b60006020820190508181036000830152614e1f81614de3565b9050919050565b7f5261697365206d75737420626520686967686572207468616e2063757272656e60008201527f7420626574000000000000000000000000000000000000000000000000000000602082015250565b6000614e826025836142e3565b9150614e8d82614e26565b604082019050919050565b60006020820190508181036000830152614eb181614e75565b9050919050565b7f496e73756666696369656e742062616c616e636520746f207261697365000000600082015250565b6000614eee601d836142e3565b9150614ef982614eb8565b602082019050919050565b60006020820190508181036000830152614f1d81614ee1565b9050919050565b7f47616d6520616c72656164792073746172746564207769746820706c6179657260008201527f7300000000000000000000000000000000000000000000000000000000000000602082015250565b6000614f806021836142e3565b9150614f8b82614f24565b604082019050919050565b60006020820190508181036000830152614faf81614f73565b9050919050565b6000819050919050565b6000614fdb614fd6614fd184614fb6565b614c5d565b613fa7565b9050919050565b614feb81614fc0565b82525050565b60006020820190506150066000830184614fe2565b92915050565b60006020828403121561502257615021613ed7565b5b6000615030848285016149f7565b9150509291505056fea264697066735822122027c60739cf0f0fdef40e87a5ddc078d3f6b1ed97c468c613ea82bb3f49c0de4364736f6c63430008180033",
  "linkReferences": {
    "contracts/PokerHandEvaluator.sol": {
      "PokerHandEvaluator": [
        {
          "length": 20,
          "start": 5740
        },
        {
          "length": 20,
          "start": 5867
        },
        {
          "length": 20,
          "start": 11284
        },
        {
          "length": 20,
          "start": 11411
        }
      ]
    }
  },
  "deployedLinkReferences": {
    "contracts/PokerHandEvaluator.sol": {
      "PokerHandEvaluator": [
        {
          "length": 20,
          "start": 5442
        },
        {
          "length": 20,
          "start": 5569
        },
        {
          "length": 20,
          "start": 10986
        },
        {
          "length": 20,
          "start": 11113
        }
      ]
    }
  }
}