{
  "_format": "hh-sol-artifact-1",
  "contractName": "PokerHandEvaluator",
  "sourceName": "contracts/PokerHandEvaluator.sol",
  "abi": [
    {
      "inputs": [
        {
          "internalType": "uint8[5]",
          "name": "ranks",
          "type": "uint8[5]"
        }
      ],
      "name": "countRanks",
      "outputs": [
        {
          "internalType": "uint8[13]",
          "name": "",
          "type": "uint8[13]"
        }
      ],
      "stateMutability": "pure",
      "type": "function"
    },
    {
      "inputs": [
        {
          "internalType": "uint8[5]",
          "name": "cards",
          "type": "uint8[5]"
        }
      ],
      "name": "evaluateHand",
      "outputs": [
        {
          "components": [
            {
              "internalType": "enum PokerHandEvaluator.HandRank",
              "name": "rank",
              "type": "PokerHandEvaluator.HandRank"
            },
            {
              "internalType": "uint8",
              "name": "highestCard",
              "type": "uint8"
            }
          ],
          "internalType": "struct PokerHandEvaluator.Hand",
          "name": "",
          "type": "tuple"
        }
      ],
      "stateMutability": "pure",
      "type": "function"
    },
    {
      "inputs": [
        {
          "internalType": "uint8[7]",
          "name": "fullHand",
          "type": "uint8[7]"
        }
      ],
      "name": "findBestFiveCardHand",
      "outputs": [
        {
          "internalType": "uint8[5]",
          "name": "bestHand",
          "type": "uint8[5]"
        },
        {
          "internalType": "uint8",
          "name": "rank",
          "type": "uint8"
        }
      ],
      "stateMutability": "pure",
      "type": "function"
    },
    {
      "inputs": [
        {
          "internalType": "uint8[5]",
          "name": "ranks",
          "type": "uint8[5]"
        }
      ],
      "name": "findStraight",
      "outputs": [
        {
          "internalType": "bool",
          "name": "",
          "type": "bool"
        }
      ],
      "stateMutability": "pure",
      "type": "function"
    },
    {
      "inputs": [
        {
          "internalType": "uint8[5]",
          "name": "suits",
          "type": "uint8[5]"
        }
      ],
      "name": "isFlush",
      "outputs": [
        {
          "internalType": "bool",
          "name": "",
          "type": "bool"
        }
      ],
      "stateMutability": "pure",
      "type": "function"
    },
    {
      "inputs": [
        {
          "internalType": "uint8[5]",
          "name": "ranks",
          "type": "uint8[5]"
        }
      ],
      "name": "isRoyalStraight",
      "outputs": [
        {
          "internalType": "bool",
          "name": "",
          "type": "bool"
        }
      ],
      "stateMutability": "pure",
      "type": "function"
    },
    {
      "inputs": [
        {
          "internalType": "uint8[5]",
          "name": "ranks",
          "type": "uint8[5]"
        }
      ],
      "name": "sortRanks",
      "outputs": [
        {
          "internalType": "uint8[5]",
          "name": "",
          "type": "uint8[5]"
        }
      ],
      "stateMutability": "pure",
      "type": "function"
    }
  ],
  "bytecode": "0x6117ae610053600b82828239805160001a607314610046577f4e487b7100000000000000000000000000000000000000000000000000000000600052600060045260246000fd5b30600052607381538281f3fe73000000000000000000000000000000000000000030146080604052600436106100875760003560e01c8063b19654ca11610065578063b19654ca1461011d578063cc49a3811461014d578063de6cd1611461017d578063fc04c4e5146101ad57610087565b80630a6850331461008c5780632a73f714146100bd57806382e58f9e146100ed575b600080fd5b6100a660048036038101906100a19190611147565b6101dd565b6040516100b492919061122e565b60405180910390f35b6100d760048036038101906100d29190611308565b6103b7565b6040516100e49190611350565b60405180910390f35b61010760048036038101906101029190611308565b61050c565b6040516101149190611411565b60405180910390f35b61013760048036038101906101329190611308565b610be8565b604051610144919061142c565b60405180910390f35b61016760048036038101906101629190611308565b610d04565b60405161017491906114cb565b60405180910390f35b61019760048036038101906101929190611308565b610e0b565b6040516101a49190611350565b60405180910390f35b6101c760048036038101906101c29190611308565b610e80565b6040516101d49190611350565b60405180910390f35b6101e5610f44565b6000806040518060400160405280600060098111156102075761020661136b565b5b8152602001600060ff16815250905060005b60078160ff1610156103975760006001826102349190611516565b90505b60078160ff1610156103895761024b610f44565b6000805b60078160ff1610156102da578460ff168160ff161415801561027757508360ff168160ff1614155b156102cd57888160ff16600781106102925761029161154b565b5b6020020151838360ff16600581106102ad576102ac61154b565b5b602002019060ff16908160ff168152505081806102c99061157a565b9250505b808060010191505061024f565b5060006102e68361050c565b9050856000015160098111156102ff576102fe61136b565b5b816000015160098111156103165761031561136b565b5b111561032757809550829750610379565b8560000151600981111561033e5761033d61136b565b5b816000015160098111156103555761035461136b565b5b0361037857856020015160ff16816020015160ff161115610377578095508297505b5b5b5050508080600101915050610237565b508080600101915050610219565b50806000015160098111156103af576103ae61136b565b5b915050915091565b6000600e826000600581106103cf576103ce61154b565b5b602002015160ff161480156103ff57506005826001600581106103f5576103f461154b565b5b602002015160ff16145b8015610426575060048260026005811061041c5761041b61154b565b5b602002015160ff16145b801561044d57506003826003600581106104435761044261154b565b5b602002015160ff16145b8015610474575060028260046005811061046a5761046961154b565b5b602002015160ff16145b156104825760019050610507565b60005b60048160ff161015610501576001836001836104a19190611516565b60ff16600581106104b5576104b461154b565b5b60200201516104c49190611516565b60ff16838260ff16600581106104dd576104dc61154b565b5b602002015160ff16146104f4576000915050610507565b8080600101915050610485565b50600190505b919050565b610514610f66565b61051c610f44565b610524610f44565b60005b60058160ff16101561064f576001600d6001878460ff166005811061054f5761054e61154b565b5b602002015161055e91906115a3565b6105689190611607565b6105729190611516565b838260ff16600581106105885761058761154b565b5b602002019060ff16908160ff1681525050600d6001868360ff16600581106105b3576105b261154b565b5b60200201516105c291906115a3565b6105cc9190611638565b828260ff16600581106105e2576105e161154b565b5b602002019060ff16908160ff16815250506001838260ff166005811061060b5761060a61154b565b5b602002015160ff160361064257600e838260ff16600581106106305761062f61154b565b5b602002019060ff16908160ff16815250505b8080600101915050610527565b5061065982610be8565b9150600061066683610d04565b905060008060008061067786610e0b565b90506000610684886103b7565b9050600061069189610e80565b905082801561069d5750805b156106f45760405180604001604052806009808111156106c0576106bf61136b565b5b81526020018a6000600581106106d9576106d861154b565b5b602002015160ff168152509950505050505050505050610be3565b8280156106fe5750815b15610756576040518060400160405280600860098111156107225761072161136b565b5b81526020018a60006005811061073b5761073a61154b565b5b602002015160ff168152509950505050505050505050610be3565b60005b600d8160ff1610156107df576004888260ff16600d811061077d5761077c61154b565b5b602002015160ff16036107d2576040518060400160405280600760098111156107a9576107a861136b565b5b81526020016001836107bb9190611516565b60ff168152509a5050505050505050505050610be3565b8080600101915050610759565b5060005b600d8160ff16101561088b576003888260ff16600d81106108075761080661154b565b5b602002015160ff1603610828576001816108219190611516565b945061087e565b6002888260ff16600d81106108405761083f61154b565b5b602002015160ff160361087d5760008760ff160361086c576001816108659190611516565b965061087c565b6001816108799190611516565b95505b5b5b80806001019150506107e3565b5060008460ff161180156108a2575060008660ff16115b80156108b1575060008560ff16145b156108f1576040518060400160405280600660098111156108d5576108d461136b565b5b81526020018560ff168152509950505050505050505050610be3565b811561094a576040518060400160405280600460098111156109165761091561136b565b5b81526020018a60006005811061092f5761092e61154b565b5b602002015160ff168152509950505050505050505050610be3565b82156109a35760405180604001604052806005600981111561096f5761096e61136b565b5b81526020018a6000600581106109885761098761154b565b5b602002015160ff168152509950505050505050505050610be3565b60008460ff1611156109ea576040518060400160405280600360098111156109ce576109cd61136b565b5b81526020018560ff168152509950505050505050505050610be3565b60008660ff16118015610a00575060008560ff16115b15610a9c578460ff168660ff1603610a4d576040517f08c379a0000000000000000000000000000000000000000000000000000000008152600401610a44906116c6565b60405180910390fd5b604051806040016040528060026009811115610a6c57610a6b61136b565b5b81526020018660ff168860ff1611610a845786610a86565b875b60ff168152509950505050505050505050610be3565b60008660ff161115610ae357604051806040016040528060016009811115610ac757610ac661136b565b5b81526020018760ff168152509950505050505050505050610be3565b60008660ff16118015610af9575060008560ff16115b15610b4d57604051806040016040528060026009811115610b1d57610b1c61136b565b5b81526020018660ff168860ff1611610b355786610b37565b875b60ff168152509950505050505050505050610be3565b60008660ff161115610b9457604051806040016040528060016009811115610b7857610b7761136b565b5b81526020018760ff168152509950505050505050505050610be3565b604051806040016040528060006009811115610bb357610bb261136b565b5b81526020018a600060058110610bcc57610bcb61154b565b5b602002015160ff1681525099505050505050505050505b919050565b610bf0610f44565b60005b60048160ff161015610cfb576000600182610c0e9190611516565b90505b60058160ff161015610ced57838160ff1660058110610c3357610c3261154b565b5b602002015160ff16848360ff1660058110610c5157610c5061154b565b5b602002015160ff161015610ce057838160ff1660058110610c7557610c7461154b565b5b6020020151848360ff1660058110610c9057610c8f61154b565b5b6020020151858460ff1660058110610cab57610caa61154b565b5b60200201868460ff1660058110610cc557610cc461154b565b5b602002018260ff1660ff168152508260ff1660ff1681525050505b8080600101915050610c11565b508080600101915050610bf3565b50819050919050565b610d0c610f95565b610d14610f95565b60005b60058160ff161015610e01576000600e858360ff1660058110610d3d57610d3c61154b565b5b602002015160ff1614610d76576001858360ff1660058110610d6257610d6161154b565b5b6020020151610d7191906115a3565b610d79565b60005b9050600d8160ff1610610dc1576040517f08c379a0000000000000000000000000000000000000000000000000000000008152600401610db890611758565b60405180910390fd5b828160ff16600d8110610dd757610dd661154b565b5b602002018051809190610de99061157a565b60ff1660ff1681525050508080600101915050610d17565b5080915050919050565b600080600190505b60058160ff161015610e755782600060058110610e3357610e3261154b565b5b602002015160ff16838260ff1660058110610e5157610e5061154b565b5b602002015160ff1614610e68576000915050610e7b565b8080600101915050610e13565b50600190505b919050565b6000600e82600060058110610e9857610e9761154b565b5b602002015160ff16148015610ec85750600d82600160058110610ebe57610ebd61154b565b5b602002015160ff16145b8015610eef5750600c82600260058110610ee557610ee461154b565b5b602002015160ff16145b8015610f165750600b82600360058110610f0c57610f0b61154b565b5b602002015160ff16145b8015610f3d5750600a82600460058110610f3357610f3261154b565b5b602002015160ff16145b9050919050565b6040518060a00160405280600590602082028036833780820191505090505090565b604051806040016040528060006009811115610f8557610f8461136b565b5b8152602001600060ff1681525090565b604051806101a00160405280600d90602082028036833780820191505090505090565b6000604051905090565b600080fd5b600080fd5b6000601f19601f8301169050919050565b7f4e487b7100000000000000000000000000000000000000000000000000000000600052604160045260246000fd5b61101582610fcc565b810181811067ffffffffffffffff8211171561103457611033610fdd565b5b80604052505050565b6000611047610fb8565b9050611053828261100c565b919050565b600067ffffffffffffffff82111561107357611072610fdd565b5b602082029050919050565b600080fd5b600060ff82169050919050565b61109981611083565b81146110a457600080fd5b50565b6000813590506110b681611090565b92915050565b60006110cf6110ca84611058565b61103d565b905080602084028301858111156110e9576110e861107e565b5b835b8181101561111257806110fe88826110a7565b8452602084019350506020810190506110eb565b5050509392505050565b600082601f83011261113157611130610fc7565b5b600761113e8482856110bc565b91505092915050565b600060e0828403121561115d5761115c610fc2565b5b600061116b8482850161111c565b91505092915050565b600060059050919050565b600081905092915050565b6000819050919050565b61119d81611083565b82525050565b60006111af8383611194565b60208301905092915050565b6000602082019050919050565b6111d181611174565b6111db818461117f565b92506111e68261118a565b8060005b838110156112175781516111fe87826111a3565b9650611209836111bb565b9250506001810190506111ea565b505050505050565b61122881611083565b82525050565b600060c08201905061124360008301856111c8565b61125060a083018461121f565b9392505050565b600067ffffffffffffffff82111561127257611271610fdd565b5b602082029050919050565b600061129061128b84611257565b61103d565b905080602084028301858111156112aa576112a961107e565b5b835b818110156112d357806112bf88826110a7565b8452602084019350506020810190506112ac565b5050509392505050565b600082601f8301126112f2576112f1610fc7565b5b60056112ff84828561127d565b91505092915050565b600060a0828403121561131e5761131d610fc2565b5b600061132c848285016112dd565b91505092915050565b60008115159050919050565b61134a81611335565b82525050565b60006020820190506113656000830184611341565b92915050565b7f4e487b7100000000000000000000000000000000000000000000000000000000600052602160045260246000fd5b600a81106113ab576113aa61136b565b5b50565b60008190506113bc8261139a565b919050565b60006113cc826113ae565b9050919050565b6113dc816113c1565b82525050565b6040820160008201516113f860008501826113d3565b50602082015161140b6020850182611194565b50505050565b600060408201905061142660008301846113e2565b92915050565b600060a08201905061144160008301846111c8565b92915050565b6000600d9050919050565b600081905092915050565b6000819050919050565b6000602082019050919050565b61147d81611447565b6114878184611452565b92506114928261145d565b8060005b838110156114c35781516114aa87826111a3565b96506114b583611467565b925050600181019050611496565b505050505050565b60006101a0820190506114e16000830184611474565b92915050565b7f4e487b7100000000000000000000000000000000000000000000000000000000600052601160045260246000fd5b600061152182611083565b915061152c83611083565b9250828201905060ff811115611545576115446114e7565b5b92915050565b7f4e487b7100000000000000000000000000000000000000000000000000000000600052603260045260246000fd5b600061158582611083565b915060ff8203611598576115976114e7565b5b600182019050919050565b60006115ae82611083565b91506115b983611083565b9250828203905060ff8111156115d2576115d16114e7565b5b92915050565b7f4e487b7100000000000000000000000000000000000000000000000000000000600052601260045260246000fd5b600061161282611083565b915061161d83611083565b92508261162d5761162c6115d8565b5b828206905092915050565b600061164382611083565b915061164e83611083565b92508261165e5761165d6115d8565b5b828204905092915050565b600082825260208201905092915050565b7f4572726f723a204475706c696361746520706169727320646574656374656421600082015250565b60006116b0602083611669565b91506116bb8261167a565b602082019050919050565b600060208201905081810360008301526116df816116a3565b9050919050565b7f636f756e7452616e6b733a2052616e6b20696e646578206f7574206f6620626f60008201527f756e647300000000000000000000000000000000000000000000000000000000602082015250565b6000611742602483611669565b915061174d826116e6565b604082019050919050565b6000602082019050818103600083015261177181611735565b905091905056fea2646970667358221220d30fd2ca35815a2144670efce46b5e3a0c446f5ef2320f99851ad456a8db230764736f6c63430008180033",
  "linkReferences": {},
  "deployedLinkReferences": {}
}